{
  "contractName": "KIP13CheckerMock",
  "abi": [
    {
      "constant": true,
      "inputs": [
        {
          "name": "account",
          "type": "address"
        }
      ],
      "name": "supportsKIP13",
      "outputs": [
        {
          "name": "",
          "type": "bool"
        }
      ],
      "payable": false,
      "stateMutability": "view",
      "type": "function"
    },
    {
      "constant": true,
      "inputs": [
        {
          "name": "account",
          "type": "address"
        },
        {
          "name": "interfaceId",
          "type": "bytes4"
        }
      ],
      "name": "supportsInterface",
      "outputs": [
        {
          "name": "",
          "type": "bool"
        }
      ],
      "payable": false,
      "stateMutability": "view",
      "type": "function"
    },
    {
      "constant": true,
      "inputs": [
        {
          "name": "account",
          "type": "address"
        },
        {
          "name": "interfaceIds",
          "type": "bytes4[]"
        }
      ],
      "name": "supportsAllInterfaces",
      "outputs": [
        {
          "name": "",
          "type": "bool"
        }
      ],
      "payable": false,
      "stateMutability": "view",
      "type": "function"
    }
  ],
  "bytecode": "0x608060405234801561001057600080fd5b5061032b806100206000396000f3fe608060405234801561001057600080fd5b50600436106100415760003560e01c80634b9dd90414610046578063aad8e2c21461010d578063d905700714610133575b600080fd5b6100f96004803603604081101561005c57600080fd5b6001600160a01b03823516919081019060408101602082013564010000000081111561008757600080fd5b82018360208201111561009957600080fd5b803590602001918460208302840111640100000000831117156100bb57600080fd5b919080806020026020016040519081016040528093929190818152602001838360200280828437600092019190915250929550610169945050505050565b604080519115158252519081900360200190f35b6100f96004803603602081101561012357600080fd5b50356001600160a01b031661018d565b6100f96004803603604081101561014957600080fd5b5080356001600160a01b031690602001356001600160e01b0319166101a1565b60006101846001600160a01b0384168363ffffffff6101bc16565b90505b92915050565b6000610187826001600160a01b031661021c565b60006101846001600160a01b0384168363ffffffff61025216565b60006101c78361021c565b6101d357506000610187565b60005b8251811015610212576101fc848483815181106101ef57fe5b602002602001015161026a565b61020a576000915050610187565b6001016101d6565b5060019392505050565b600061023282600160e01b6301ffc9a70261026a565b8015610187575061024b826001600160e01b031961026a565b1592915050565b600061025d8361021c565b8015610184575061018483835b60008060006102798585610290565b915091508180156102875750805b95945050505050565b604080516001600160e01b031983166024808301919091528251808303909101815260449091018252602081810180516001600160e01b0316600160e01b6301ffc9a702178152825193516000808252948594939091908183858b617530fa905190989097509550505050505056fea165627a7a72305820b9700414dd897de246603ba29e7ecd94f53b465add08224143f717bd534edf0b0029",
  "source": "pragma solidity ^0.5.0;\n\nimport \"../introspection/KIP13Checker.sol\";\n\ncontract KIP13CheckerMock {\n    using KIP13Checker for address;\n\n    function supportsKIP13(address account) public view returns (bool) {\n        return account._supportsKIP13();\n    }\n\n    function supportsInterface(address account, bytes4 interfaceId) public view returns (bool) {\n        return account._supportsInterface(interfaceId);\n    }\n\n    function supportsAllInterfaces(address account, bytes4[] memory interfaceIds) public view returns (bool) {\n        return account._supportsAllInterfaces(interfaceIds);\n    }\n}\n",
  "sourcePath": "C:/Users/runde/Documents/Mint_Leo/src/contracts/klaytn-contracts/mocks/KIP13CheckerMock.sol",
  "compiler": {
    "name": "solc",
    "version": "0.5.6+commit.b259423e.Emscripten.clang"
  },
  "schemaVersion": "3.3.3",
  "updatedAt": "2022-02-25T08:53:57.169Z",
  "devdoc": {
    "methods": {}
  },
  "userdoc": {
    "methods": {}
  }
}