{
  "contractName": "KIP17Pausable",
  "abi": [
    {
      "constant": true,
      "inputs": [
        {
          "name": "interfaceId",
          "type": "bytes4"
        }
      ],
      "name": "supportsInterface",
      "outputs": [
        {
          "name": "",
          "type": "bool"
        }
      ],
      "payable": false,
      "stateMutability": "view",
      "type": "function"
    },
    {
      "constant": true,
      "inputs": [
        {
          "name": "tokenId",
          "type": "uint256"
        }
      ],
      "name": "getApproved",
      "outputs": [
        {
          "name": "",
          "type": "address"
        }
      ],
      "payable": false,
      "stateMutability": "view",
      "type": "function"
    },
    {
      "constant": false,
      "inputs": [],
      "name": "unpause",
      "outputs": [],
      "payable": false,
      "stateMutability": "nonpayable",
      "type": "function"
    },
    {
      "constant": false,
      "inputs": [
        {
          "name": "from",
          "type": "address"
        },
        {
          "name": "to",
          "type": "address"
        },
        {
          "name": "tokenId",
          "type": "uint256"
        }
      ],
      "name": "safeTransferFrom",
      "outputs": [],
      "payable": false,
      "stateMutability": "nonpayable",
      "type": "function"
    },
    {
      "constant": true,
      "inputs": [
        {
          "name": "account",
          "type": "address"
        }
      ],
      "name": "isPauser",
      "outputs": [
        {
          "name": "",
          "type": "bool"
        }
      ],
      "payable": false,
      "stateMutability": "view",
      "type": "function"
    },
    {
      "constant": true,
      "inputs": [],
      "name": "paused",
      "outputs": [
        {
          "name": "",
          "type": "bool"
        }
      ],
      "payable": false,
      "stateMutability": "view",
      "type": "function"
    },
    {
      "constant": true,
      "inputs": [
        {
          "name": "tokenId",
          "type": "uint256"
        }
      ],
      "name": "ownerOf",
      "outputs": [
        {
          "name": "",
          "type": "address"
        }
      ],
      "payable": false,
      "stateMutability": "view",
      "type": "function"
    },
    {
      "constant": false,
      "inputs": [],
      "name": "renouncePauser",
      "outputs": [],
      "payable": false,
      "stateMutability": "nonpayable",
      "type": "function"
    },
    {
      "constant": true,
      "inputs": [
        {
          "name": "owner",
          "type": "address"
        }
      ],
      "name": "balanceOf",
      "outputs": [
        {
          "name": "",
          "type": "uint256"
        }
      ],
      "payable": false,
      "stateMutability": "view",
      "type": "function"
    },
    {
      "constant": false,
      "inputs": [
        {
          "name": "account",
          "type": "address"
        }
      ],
      "name": "addPauser",
      "outputs": [],
      "payable": false,
      "stateMutability": "nonpayable",
      "type": "function"
    },
    {
      "constant": false,
      "inputs": [],
      "name": "pause",
      "outputs": [],
      "payable": false,
      "stateMutability": "nonpayable",
      "type": "function"
    },
    {
      "constant": false,
      "inputs": [
        {
          "name": "from",
          "type": "address"
        },
        {
          "name": "to",
          "type": "address"
        },
        {
          "name": "tokenId",
          "type": "uint256"
        },
        {
          "name": "_data",
          "type": "bytes"
        }
      ],
      "name": "safeTransferFrom",
      "outputs": [],
      "payable": false,
      "stateMutability": "nonpayable",
      "type": "function"
    },
    {
      "constant": true,
      "inputs": [
        {
          "name": "owner",
          "type": "address"
        },
        {
          "name": "operator",
          "type": "address"
        }
      ],
      "name": "isApprovedForAll",
      "outputs": [
        {
          "name": "",
          "type": "bool"
        }
      ],
      "payable": false,
      "stateMutability": "view",
      "type": "function"
    },
    {
      "inputs": [],
      "payable": false,
      "stateMutability": "nonpayable",
      "type": "constructor"
    },
    {
      "anonymous": false,
      "inputs": [
        {
          "indexed": false,
          "name": "account",
          "type": "address"
        }
      ],
      "name": "Paused",
      "type": "event"
    },
    {
      "anonymous": false,
      "inputs": [
        {
          "indexed": false,
          "name": "account",
          "type": "address"
        }
      ],
      "name": "Unpaused",
      "type": "event"
    },
    {
      "anonymous": false,
      "inputs": [
        {
          "indexed": true,
          "name": "account",
          "type": "address"
        }
      ],
      "name": "PauserAdded",
      "type": "event"
    },
    {
      "anonymous": false,
      "inputs": [
        {
          "indexed": true,
          "name": "account",
          "type": "address"
        }
      ],
      "name": "PauserRemoved",
      "type": "event"
    },
    {
      "anonymous": false,
      "inputs": [
        {
          "indexed": true,
          "name": "from",
          "type": "address"
        },
        {
          "indexed": true,
          "name": "to",
          "type": "address"
        },
        {
          "indexed": true,
          "name": "tokenId",
          "type": "uint256"
        }
      ],
      "name": "Transfer",
      "type": "event"
    },
    {
      "anonymous": false,
      "inputs": [
        {
          "indexed": true,
          "name": "owner",
          "type": "address"
        },
        {
          "indexed": true,
          "name": "approved",
          "type": "address"
        },
        {
          "indexed": true,
          "name": "tokenId",
          "type": "uint256"
        }
      ],
      "name": "Approval",
      "type": "event"
    },
    {
      "anonymous": false,
      "inputs": [
        {
          "indexed": true,
          "name": "owner",
          "type": "address"
        },
        {
          "indexed": true,
          "name": "operator",
          "type": "address"
        },
        {
          "indexed": false,
          "name": "approved",
          "type": "bool"
        }
      ],
      "name": "ApprovalForAll",
      "type": "event"
    },
    {
      "constant": false,
      "inputs": [
        {
          "name": "to",
          "type": "address"
        },
        {
          "name": "tokenId",
          "type": "uint256"
        }
      ],
      "name": "approve",
      "outputs": [],
      "payable": false,
      "stateMutability": "nonpayable",
      "type": "function"
    },
    {
      "constant": false,
      "inputs": [
        {
          "name": "to",
          "type": "address"
        },
        {
          "name": "approved",
          "type": "bool"
        }
      ],
      "name": "setApprovalForAll",
      "outputs": [],
      "payable": false,
      "stateMutability": "nonpayable",
      "type": "function"
    },
    {
      "constant": false,
      "inputs": [
        {
          "name": "from",
          "type": "address"
        },
        {
          "name": "to",
          "type": "address"
        },
        {
          "name": "tokenId",
          "type": "uint256"
        }
      ],
      "name": "transferFrom",
      "outputs": [],
      "payable": false,
      "stateMutability": "nonpayable",
      "type": "function"
    }
  ],
  "bytecode": "0x60806040523480156200001157600080fd5b506200002a6301ffc9a760e01b6200009560201b60201c565b620000426380ac58cd60e01b6200009560201b60201c565b62000053336200016460201b60201c565b6006805460ff191690556200008f7f4d5507ff0000000000000000000000000000000000000000000000000000000062000095602090811b901c565b620002dd565b7fffffffff0000000000000000000000000000000000000000000000000000000080821614156200012757604080517f08c379a000000000000000000000000000000000000000000000000000000000815260206004820152601b60248201527f4b495031333a20696e76616c696420696e746572666163652069640000000000604482015290519081900360640190fd5b7fffffffff00000000000000000000000000000000000000000000000000000000166000908152602081905260409020805460ff19166001179055565b6200017f816005620001b660201b620012d71790919060201c565b6040516001600160a01b038216907f6719d08c1888103bea251a4ed56406bd0c3e69723c8a1686e017e7bbe159b6f890600090a250565b620001c882826200025a60201b60201c565b156200023557604080517f08c379a000000000000000000000000000000000000000000000000000000000815260206004820152601f60248201527f526f6c65733a206163636f756e7420616c72656164792068617320726f6c6500604482015290519081900360640190fd5b6001600160a01b0316600090815260209190915260409020805460ff19166001179055565b60006001600160a01b038216620002bd576040517f08c379a0000000000000000000000000000000000000000000000000000000008152600401808060200182810382526022815260200180620019b46022913960400191505060405180910390fd5b506001600160a01b03166000908152602091909152604090205460ff1690565b6116c780620002ed6000396000f3fe608060405234801561001057600080fd5b50600436106101005760003560e01c80636352211e116100975780638456cb59116100665780638456cb59146102cc578063a22cb465146102d4578063b88d4fde14610302578063e985e9c5146103c857610100565b80636352211e146102495780636ef8d66d1461026657806370a082311461026e57806382dc1ec4146102a657610100565b80633f4ba83a116100d35780633f4ba83a146101dd57806342842e0e146101e557806346fbf68e1461021b5780635c975abb1461024157610100565b806301ffc9a714610105578063081812fc14610140578063095ea7b31461017957806323b872dd146101a7575b600080fd5b61012c6004803603602081101561011b57600080fd5b50356001600160e01b0319166103f6565b604080519115158252519081900360200190f35b61015d6004803603602081101561015657600080fd5b5035610415565b604080516001600160a01b039092168252519081900360200190f35b6101a56004803603604081101561018f57600080fd5b506001600160a01b03813516906020013561047a565b005b6101a5600480360360608110156101bd57600080fd5b506001600160a01b038135811691602081013590911690604001356104d9565b6101a561053a565b6101a5600480360360608110156101fb57600080fd5b506001600160a01b0381358116916020810135909116906040013561061a565b61012c6004803603602081101561023157600080fd5b50356001600160a01b0316610635565b61012c61064e565b61015d6004803603602081101561025f57600080fd5b5035610657565b6101a56106ae565b6102946004803603602081101561028457600080fd5b50356001600160a01b03166106b9565b60408051918252519081900360200190f35b6101a5600480360360208110156102bc57600080fd5b50356001600160a01b0316610724565b6101a5610777565b6101a5600480360360408110156102ea57600080fd5b506001600160a01b0381351690602001351515610851565b6101a56004803603608081101561031857600080fd5b6001600160a01b0382358116926020810135909116916040820135919081019060808101606082013564010000000081111561035357600080fd5b82018360208201111561036557600080fd5b8035906020019184600183028401116401000000008311171561038757600080fd5b91908080601f0160208091040260200160405190810160405280939291908181526020018383808284376000920191909152509295506108ac945050505050565b61012c600480360360408110156103de57600080fd5b506001600160a01b0381358116916020013516610907565b6001600160e01b03191660009081526020819052604090205460ff1690565b600061042082610935565b61045e57604051600160e51b62461bcd02815260040180806020018281038252602b81526020018061160f602b913960400191505060405180910390fd5b506000908152600260205260409020546001600160a01b031690565b60065460ff16156104cb5760408051600160e51b62461bcd0281526020600482015260106024820152600160821b6f14185d5cd8589b194e881c185d5cd95902604482015290519081900360640190fd5b6104d58282610952565b5050565b60065460ff161561052a5760408051600160e51b62461bcd0281526020600482015260106024820152600160821b6f14185d5cd8589b194e881c185d5cd95902604482015290519081900360640190fd5b610535838383610a7f565b505050565b61054333610635565b61058157604051600160e51b62461bcd0281526004018080602001828103825260308152602001806114a06030913960400191505060405180910390fd5b60065460ff166105db5760408051600160e51b62461bcd02815260206004820152601460248201527f5061757361626c653a206e6f7420706175736564000000000000000000000000604482015290519081900360640190fd5b6006805460ff191690556040805133815290517f5db9ee0a495bf2e6ff9c91a7834c1ba4fdd244a5e8aa4e537bd38aeae4b073aa9181900360200190a1565b610535838383604051806020016040528060008152506108ac565b600061064860058363ffffffff610ad216565b92915050565b60065460ff1690565b6000818152600160205260408120546001600160a01b03168061064857604051600160e51b62461bcd0281526004018080602001828103825260288152602001806115146028913960400191505060405180910390fd5b6106b733610b3c565b565b60006001600160a01b03821661070357604051600160e51b62461bcd0281526004018080602001828103825260298152602001806115be6029913960400191505060405180910390fd5b6001600160a01b038216600090815260036020526040902061064890610b84565b61072d33610635565b61076b57604051600160e51b62461bcd0281526004018080602001828103825260308152602001806114a06030913960400191505060405180910390fd5b61077481610b88565b50565b61078033610635565b6107be57604051600160e51b62461bcd0281526004018080602001828103825260308152602001806114a06030913960400191505060405180910390fd5b60065460ff161561080f5760408051600160e51b62461bcd0281526020600482015260106024820152600160821b6f14185d5cd8589b194e881c185d5cd95902604482015290519081900360640190fd5b6006805460ff191660011790556040805133815290517f62e78cea01bee320cd4e420270b5ea74000d11b0c9f74754ebdbfc544b05a2589181900360200190a1565b60065460ff16156108a25760408051600160e51b62461bcd0281526020600482015260106024820152600160821b6f14185d5cd8589b194e881c185d5cd95902604482015290519081900360640190fd5b6104d58282610bd0565b6108b78484846104d9565b6108c384848484610c9f565b61090157604051600160e51b62461bcd02815260040180806020018281038252603081526020018061158e6030913960400191505060405180910390fd5b50505050565b6001600160a01b03918216600090815260046020908152604080832093909416825291909152205460ff1690565b6000908152600160205260409020546001600160a01b0316151590565b600061095d82610657565b9050806001600160a01b0316836001600160a01b031614156109c95760408051600160e51b62461bcd02815260206004820181905260248201527f4b495031373a20617070726f76616c20746f2063757272656e74206f776e6572604482015290519081900360640190fd5b336001600160a01b03821614806109e557506109e58133610907565b610a2357604051600160e51b62461bcd02815260040180806020018281038252603781526020018061163a6037913960400191505060405180910390fd5b60008281526002602052604080822080546001600160a01b0319166001600160a01b0387811691821790925591518593918516917f8c5be1e5ebec7d5bd14f71427d1e84f3dd0314c0f7b2291e5b200ac8c7c3b92591a4505050565b610a893382611084565b610ac757604051600160e51b62461bcd02815260040180806020018281038252603081526020018061153c6030913960400191505060405180910390fd5b610535838383611123565b60006001600160a01b038216610b1c57604051600160e51b62461bcd02815260040180806020018281038252602281526020018061156c6022913960400191505060405180910390fd5b506001600160a01b03166000908152602091909152604090205460ff1690565b610b4d60058263ffffffff61126d16565b6040516001600160a01b038216907fcd265ebaf09df2871cc7bd4133404a235ba12eff2041bb89d9c714a2621c7c7e90600090a250565b5490565b610b9960058263ffffffff6112d716565b6040516001600160a01b038216907f6719d08c1888103bea251a4ed56406bd0c3e69723c8a1686e017e7bbe159b6f890600090a250565b6001600160a01b038216331415610c315760408051600160e51b62461bcd02815260206004820152601860248201527f4b495031373a20617070726f766520746f2063616c6c65720000000000000000604482015290519081900360640190fd5b3360008181526004602090815260408083206001600160a01b03871680855290835292819020805460ff1916861515908117909155815190815290519293927f17307eab39ab6107e8899845ad3d59bd9653f200f220920489ca2b5937696c31929181900390910190a35050565b6000806060610cb6866001600160a01b031661135b565b610cc55760019250505061107c565b856001600160a01b031663150b7a0260e01b3389888860405160240180856001600160a01b03166001600160a01b03168152602001846001600160a01b03166001600160a01b0316815260200183815260200180602001828103825283818151815260200191508051906020019080838360005b83811015610d51578181015183820152602001610d39565b50505050905090810190601f168015610d7e5780820380516001836020036101000a031916815260200191505b5060408051601f198184030181529181526020820180516001600160e01b03166001600160e01b0319909a16999099178952518151919890975087965094509250829150849050835b60208310610de65780518252601f199092019160209182019101610dc7565b6001836020036101000a0380198251168184511680821785525050505050509050019150506000604051808303816000865af19150503d8060008114610e48576040519150601f19603f3d011682016040523d82523d6000602084013e610e4d565b606091505b508051919350915015801590610e8d57508051600160e11b630a85bd01029060208084019190811015610e7f57600080fd5b50516001600160e01b031916145b15610e9d5760019250505061107c565b856001600160a01b0316636745782b60e01b3389888860405160240180856001600160a01b03166001600160a01b03168152602001846001600160a01b03166001600160a01b0316815260200183815260200180602001828103825283818151815260200191508051906020019080838360005b83811015610f29578181015183820152602001610f11565b50505050905090810190601f168015610f565780820380516001836020036101000a031916815260200191505b5060408051601f198184030181529181526020820180516001600160e01b03166001600160e01b0319909a16999099178952518151919890975087965094509250829150849050835b60208310610fbe5780518252601f199092019160209182019101610f9f565b6001836020036101000a0380198251168184511680821785525050505050509050019150506000604051808303816000865af19150503d8060008114611020576040519150601f19603f3d011682016040523d82523d6000602084013e611025565b606091505b50805191935091501580159061106557508051600160e01b636745782b02906020808401919081101561105757600080fd5b50516001600160e01b031916145b156110755760019250505061107c565b6000925050505b949350505050565b600061108f82610935565b6110cd57604051600160e51b62461bcd02815260040180806020018281038252602b815260200180611671602b913960400191505060405180910390fd5b60006110d883610657565b9050806001600160a01b0316846001600160a01b031614806111135750836001600160a01b031661110884610415565b6001600160a01b0316145b8061107c575061107c8185610907565b826001600160a01b031661113682610657565b6001600160a01b03161461117e57604051600160e51b62461bcd0281526004018080602001828103825260288152602001806115e76028913960400191505060405180910390fd5b6001600160a01b0382166111c657604051600160e51b62461bcd0281526004018080602001828103825260238152602001806114d06023913960400191505060405180910390fd5b6111cf81611361565b6001600160a01b03831660009081526003602052604090206111f09061139c565b6001600160a01b0382166000908152600360205260409020611211906113b3565b60008181526001602052604080822080546001600160a01b0319166001600160a01b0386811691821790925591518493918716917fddf252ad1be2c89b69c2b068fc378daa952ba7f163c4a11628f55a4df523b3ef91a4505050565b6112778282610ad2565b6112b557604051600160e51b62461bcd0281526004018080602001828103825260218152602001806114f36021913960400191505060405180910390fd5b6001600160a01b0316600090815260209190915260409020805460ff19169055565b6112e18282610ad2565b156113365760408051600160e51b62461bcd02815260206004820152601f60248201527f526f6c65733a206163636f756e7420616c72656164792068617320726f6c6500604482015290519081900360640190fd5b6001600160a01b0316600090815260209190915260409020805460ff19166001179055565b3b151590565b6000818152600260205260409020546001600160a01b03161561077457600090815260026020526040902080546001600160a01b0319169055565b80546113af90600163ffffffff6113bc16565b9055565b80546001019055565b60006113fe83836040518060400160405280601e81526020017f536166654d6174683a207375627472616374696f6e206f766572666c6f770000815250611405565b9392505050565b6000818484111561149757604051600160e51b62461bcd0281526004018080602001828103825283818151815260200191508051906020019080838360005b8381101561145c578181015183820152602001611444565b50505050905090810190601f1680156114895780820380516001836020036101000a031916815260200191505b509250505060405180910390fd5b50505090039056fe506175736572526f6c653a2063616c6c657220646f6573206e6f742068617665207468652050617573657220726f6c654b495031373a207472616e7366657220746f20746865207a65726f2061646472657373526f6c65733a206163636f756e7420646f6573206e6f74206861766520726f6c654b495031373a206f776e657220717565727920666f72206e6f6e6578697374656e7420746f6b656e4b495031373a207472616e736665722063616c6c6572206973206e6f74206f776e6572206e6f7220617070726f766564526f6c65733a206163636f756e7420697320746865207a65726f20616464726573734b495031373a207472616e7366657220746f206e6f6e204b49503137526563656976657220696d706c656d656e7465724b495031373a2062616c616e636520717565727920666f7220746865207a65726f20616464726573734b495031373a207472616e73666572206f6620746f6b656e2074686174206973206e6f74206f776e4b495031373a20617070726f76656420717565727920666f72206e6f6e6578697374656e7420746f6b656e4b495031373a20617070726f76652063616c6c6572206973206e6f74206f776e6572206e6f7220617070726f76656420666f7220616c6c4b495031373a206f70657261746f7220717565727920666f72206e6f6e6578697374656e7420746f6b656ea165627a7a723058207509e8c3650976804c6854debde30b05f1a571b25d6498aff9ca6e79cdd8cc000029526f6c65733a206163636f756e7420697320746865207a65726f2061646472657373",
  "source": "pragma solidity ^0.5.0;\n\nimport \"./KIP17.sol\";\nimport \"../../lifecycle/Pausable.sol\";\nimport \"../../introspection/KIP13.sol\";\n\n/**\n * @title KIP17 Non-Fungible Pausable token\n * @dev KIP17 modified with pausable transfers.\n */\ncontract KIP17Pausable is KIP13, KIP17, Pausable {\n    /*\n     *     bytes4(keccak256('paused()')) == 0x5c975abb\n     *     bytes4(keccak256('pause()')) == 0x8456cb59\n     *     bytes4(keccak256('unpause()')) == 0x3f4ba83a\n     *     bytes4(keccak256('isPauser(address)')) == 0x46fbf68e\n     *     bytes4(keccak256('addPauser(address)')) == 0x82dc1ec4\n     *     bytes4(keccak256('renouncePauser()')) == 0x6ef8d66d\n     *\n     *     => 0x5c975abb ^ 0x8456cb59 ^ 0x3f4ba83a ^ 0x46fbf68e ^ 0x82dc1ec4 ^ 0x6ef8d66d == 0x4d5507ff\n     */\n    bytes4 private constant _INTERFACE_ID_KIP17_PAUSABLE = 0x4d5507ff;\n\n    /**\n     * @dev Constructor function.\n     */\n    constructor () public {\n        // register the supported interface to conform to KIP17Pausable via KIP13\n        _registerInterface(_INTERFACE_ID_KIP17_PAUSABLE);\n    }\n\n    function approve(address to, uint256 tokenId) public whenNotPaused {\n        super.approve(to, tokenId);\n    }\n\n    function setApprovalForAll(address to, bool approved) public whenNotPaused {\n        super.setApprovalForAll(to, approved);\n    }\n\n    function transferFrom(address from, address to, uint256 tokenId) public whenNotPaused {\n        super.transferFrom(from, to, tokenId);\n    }\n}\n",
  "sourcePath": "C:\\Users\\runde\\Documents\\Mint_Leo\\src\\contracts\\klaytn-contracts\\token\\KIP17\\KIP17Pausable.sol",
  "compiler": {
    "name": "solc",
    "version": "0.5.6+commit.b259423e.Emscripten.clang"
  },
  "schemaVersion": "3.3.3",
  "updatedAt": "2022-02-24T11:14:36.089Z",
  "devdoc": {
    "details": "KIP17 modified with pausable transfers.",
    "methods": {
      "balanceOf(address)": {
        "details": "Gets the balance of the specified address.",
        "params": {
          "owner": "address to query the balance of"
        },
        "return": "uint256 representing the amount owned by the passed address"
      },
      "constructor": {
        "details": "Constructor function."
      },
      "getApproved(uint256)": {
        "details": "Gets the approved address for a token ID, or zero if no address set Reverts if the token ID does not exist.",
        "params": {
          "tokenId": "uint256 ID of the token to query the approval of"
        },
        "return": "address currently approved for the given token ID"
      },
      "isApprovedForAll(address,address)": {
        "details": "Tells whether an operator is approved by a given owner.",
        "params": {
          "operator": "operator address which you want to query the approval of",
          "owner": "owner address which you want to query the approval of"
        },
        "return": "bool whether the given operator is approved by the given owner"
      },
      "ownerOf(uint256)": {
        "details": "Gets the owner of the specified token ID.",
        "params": {
          "tokenId": "uint256 ID of the token to query the owner of"
        },
        "return": "address currently marked as the owner of the given token ID"
      },
      "pause()": {
        "details": "Called by a pauser to pause, triggers stopped state."
      },
      "paused()": {
        "details": "Returns true if the contract is paused, and false otherwise."
      },
      "safeTransferFrom(address,address,uint256)": {
        "details": "Safely transfers the ownership of a given token ID to another address If the target address is a contract, it must implement `onKIP17Received`, which is called upon a safe transfer, and return the magic value `bytes4(keccak256(\"onKIP17Received(address,address,uint256,bytes)\"))`; otherwise, the transfer is reverted. Requires the msg.sender to be the owner, approved, or operator",
        "params": {
          "from": "current owner of the token",
          "to": "address to receive the ownership of the given token ID",
          "tokenId": "uint256 ID of the token to be transferred"
        }
      },
      "safeTransferFrom(address,address,uint256,bytes)": {
        "details": "Safely transfers the ownership of a given token ID to another address If the target address is a contract, it must implement `onKIP17Received`, which is called upon a safe transfer, and return the magic value `bytes4(keccak256(\"onKIP17Received(address,address,uint256,bytes)\"))`; otherwise, the transfer is reverted. Requires the msg.sender to be the owner, approved, or operator",
        "params": {
          "_data": "bytes data to send along with a safe transfer check",
          "from": "current owner of the token",
          "to": "address to receive the ownership of the given token ID",
          "tokenId": "uint256 ID of the token to be transferred"
        }
      },
      "supportsInterface(bytes4)": {
        "details": "See `IKIP13.supportsInterface`.     * Time complexity O(1), guaranteed to always use less than 30 000 gas."
      },
      "unpause()": {
        "details": "Called by a pauser to unpause, returns to normal state."
      }
    },
    "title": "KIP17 Non-Fungible Pausable token"
  },
  "userdoc": {
    "methods": {}
  }
}