{
  "contractName": "KIP17Burnable",
  "abi": [
    {
      "constant": true,
      "inputs": [
        {
          "name": "interfaceId",
          "type": "bytes4"
        }
      ],
      "name": "supportsInterface",
      "outputs": [
        {
          "name": "",
          "type": "bool"
        }
      ],
      "payable": false,
      "stateMutability": "view",
      "type": "function"
    },
    {
      "constant": true,
      "inputs": [
        {
          "name": "tokenId",
          "type": "uint256"
        }
      ],
      "name": "getApproved",
      "outputs": [
        {
          "name": "",
          "type": "address"
        }
      ],
      "payable": false,
      "stateMutability": "view",
      "type": "function"
    },
    {
      "constant": false,
      "inputs": [
        {
          "name": "to",
          "type": "address"
        },
        {
          "name": "tokenId",
          "type": "uint256"
        }
      ],
      "name": "approve",
      "outputs": [],
      "payable": false,
      "stateMutability": "nonpayable",
      "type": "function"
    },
    {
      "constant": false,
      "inputs": [
        {
          "name": "from",
          "type": "address"
        },
        {
          "name": "to",
          "type": "address"
        },
        {
          "name": "tokenId",
          "type": "uint256"
        }
      ],
      "name": "transferFrom",
      "outputs": [],
      "payable": false,
      "stateMutability": "nonpayable",
      "type": "function"
    },
    {
      "constant": false,
      "inputs": [
        {
          "name": "from",
          "type": "address"
        },
        {
          "name": "to",
          "type": "address"
        },
        {
          "name": "tokenId",
          "type": "uint256"
        }
      ],
      "name": "safeTransferFrom",
      "outputs": [],
      "payable": false,
      "stateMutability": "nonpayable",
      "type": "function"
    },
    {
      "constant": true,
      "inputs": [
        {
          "name": "tokenId",
          "type": "uint256"
        }
      ],
      "name": "ownerOf",
      "outputs": [
        {
          "name": "",
          "type": "address"
        }
      ],
      "payable": false,
      "stateMutability": "view",
      "type": "function"
    },
    {
      "constant": true,
      "inputs": [
        {
          "name": "owner",
          "type": "address"
        }
      ],
      "name": "balanceOf",
      "outputs": [
        {
          "name": "",
          "type": "uint256"
        }
      ],
      "payable": false,
      "stateMutability": "view",
      "type": "function"
    },
    {
      "constant": false,
      "inputs": [
        {
          "name": "to",
          "type": "address"
        },
        {
          "name": "approved",
          "type": "bool"
        }
      ],
      "name": "setApprovalForAll",
      "outputs": [],
      "payable": false,
      "stateMutability": "nonpayable",
      "type": "function"
    },
    {
      "constant": false,
      "inputs": [
        {
          "name": "from",
          "type": "address"
        },
        {
          "name": "to",
          "type": "address"
        },
        {
          "name": "tokenId",
          "type": "uint256"
        },
        {
          "name": "_data",
          "type": "bytes"
        }
      ],
      "name": "safeTransferFrom",
      "outputs": [],
      "payable": false,
      "stateMutability": "nonpayable",
      "type": "function"
    },
    {
      "constant": true,
      "inputs": [
        {
          "name": "owner",
          "type": "address"
        },
        {
          "name": "operator",
          "type": "address"
        }
      ],
      "name": "isApprovedForAll",
      "outputs": [
        {
          "name": "",
          "type": "bool"
        }
      ],
      "payable": false,
      "stateMutability": "view",
      "type": "function"
    },
    {
      "inputs": [],
      "payable": false,
      "stateMutability": "nonpayable",
      "type": "constructor"
    },
    {
      "anonymous": false,
      "inputs": [
        {
          "indexed": true,
          "name": "from",
          "type": "address"
        },
        {
          "indexed": true,
          "name": "to",
          "type": "address"
        },
        {
          "indexed": true,
          "name": "tokenId",
          "type": "uint256"
        }
      ],
      "name": "Transfer",
      "type": "event"
    },
    {
      "anonymous": false,
      "inputs": [
        {
          "indexed": true,
          "name": "owner",
          "type": "address"
        },
        {
          "indexed": true,
          "name": "approved",
          "type": "address"
        },
        {
          "indexed": true,
          "name": "tokenId",
          "type": "uint256"
        }
      ],
      "name": "Approval",
      "type": "event"
    },
    {
      "anonymous": false,
      "inputs": [
        {
          "indexed": true,
          "name": "owner",
          "type": "address"
        },
        {
          "indexed": true,
          "name": "operator",
          "type": "address"
        },
        {
          "indexed": false,
          "name": "approved",
          "type": "bool"
        }
      ],
      "name": "ApprovalForAll",
      "type": "event"
    },
    {
      "constant": false,
      "inputs": [
        {
          "name": "tokenId",
          "type": "uint256"
        }
      ],
      "name": "burn",
      "outputs": [],
      "payable": false,
      "stateMutability": "nonpayable",
      "type": "function"
    }
  ],
  "bytecode": "0x608060405234801561001057600080fd5b506100276301ffc9a760e01b61005860201b60201c565b61003d6380ac58cd60e01b61005860201b60201c565b6100536342966c6860e01b61005860201b60201c565b610126565b7fffffffff0000000000000000000000000000000000000000000000000000000080821614156100e957604080517f08c379a000000000000000000000000000000000000000000000000000000000815260206004820152601b60248201527f4b495031333a20696e76616c696420696e746572666163652069640000000000604482015290519081900360640190fd5b7fffffffff00000000000000000000000000000000000000000000000000000000166000908152602081905260409020805460ff19166001179055565b611215806101356000396000f3fe608060405234801561001057600080fd5b50600436106100a95760003560e01c806342966c681161007157806342966c68146101bc5780636352211e146101d957806370a08231146101f6578063a22cb4651461022e578063b88d4fde1461025c578063e985e9c514610322576100a9565b806301ffc9a7146100ae578063081812fc146100e9578063095ea7b31461012257806323b872dd1461015057806342842e0e14610186575b600080fd5b6100d5600480360360208110156100c457600080fd5b50356001600160e01b031916610350565b604080519115158252519081900360200190f35b610106600480360360208110156100ff57600080fd5b503561036f565b604080516001600160a01b039092168252519081900360200190f35b61014e6004803603604081101561013857600080fd5b506001600160a01b0381351690602001356103d4565b005b61014e6004803603606081101561016657600080fd5b506001600160a01b03813581169160208101359091169060400135610501565b61014e6004803603606081101561019c57600080fd5b506001600160a01b03813581169160208101359091169060400135610559565b61014e600480360360208110156101d257600080fd5b5035610574565b610106600480360360208110156101ef57600080fd5b50356105c8565b61021c6004803603602081101561020c57600080fd5b50356001600160a01b0316610625565b60408051918252519081900360200190f35b61014e6004803603604081101561024457600080fd5b506001600160a01b0381351690602001351515610690565b61014e6004803603608081101561027257600080fd5b6001600160a01b038235811692602081013590911691604082013591908101906080810160608201356401000000008111156102ad57600080fd5b8201836020820111156102bf57600080fd5b803590602001918460018302840111640100000000831117156102e157600080fd5b91908080601f01602080910402602001604051908101604052809392919081815260200183838082843760009201919091525092955061075f945050505050565b6100d56004803603604081101561033857600080fd5b506001600160a01b03813581169160200135166107ba565b6001600160e01b03191660009081526020819052604090205460ff1690565b600061037a826107e8565b6103b857604051600160e51b62461bcd02815260040180806020018281038252602b81526020018061115d602b913960400191505060405180910390fd5b506000908152600260205260409020546001600160a01b031690565b60006103df826105c8565b9050806001600160a01b0316836001600160a01b0316141561044b5760408051600160e51b62461bcd02815260206004820181905260248201527f4b495031373a20617070726f76616c20746f2063757272656e74206f776e6572604482015290519081900360640190fd5b336001600160a01b0382161480610467575061046781336107ba565b6104a557604051600160e51b62461bcd0281526004018080602001828103825260378152602001806111886037913960400191505060405180910390fd5b60008281526002602052604080822080546001600160a01b0319166001600160a01b0387811691821790925591518593918516917f8c5be1e5ebec7d5bd14f71427d1e84f3dd0314c0f7b2291e5b200ac8c7c3b92591a4505050565b61050b3382610805565b61054957604051600160e51b62461bcd0281526004018080602001828103825260308152602001806110596030913960400191505060405180910390fd5b6105548383836108ac565b505050565b6105548383836040518060200160405280600081525061075f565b61057e3382610805565b6105bc57604051600160e51b62461bcd02815260040180806020018281038252602f8152602001806110b9602f913960400191505060405180910390fd5b6105c5816109f6565b50565b6000818152600160205260408120546001600160a01b03168061061f57604051600160e51b62461bcd0281526004018080602001828103825260288152602001806110316028913960400191505060405180910390fd5b92915050565b60006001600160a01b03821661066f57604051600160e51b62461bcd0281526004018080602001828103825260298152602001806110e86029913960400191505060405180910390fd5b6001600160a01b038216600090815260036020526040902061061f90610a08565b6001600160a01b0382163314156106f15760408051600160e51b62461bcd02815260206004820152601860248201527f4b495031373a20617070726f766520746f2063616c6c65720000000000000000604482015290519081900360640190fd5b3360008181526004602090815260408083206001600160a01b03871680855290835292819020805460ff1916861515908117909155815190815290519293927f17307eab39ab6107e8899845ad3d59bd9653f200f220920489ca2b5937696c31929181900390910190a35050565b61076a848484610501565b61077684848484610a0c565b6107b457604051600160e51b62461bcd0281526004018080602001828103825260308152602001806110896030913960400191505060405180910390fd5b50505050565b6001600160a01b03918216600090815260046020908152604080832093909416825291909152205460ff1690565b6000908152600160205260409020546001600160a01b0316151590565b6000610810826107e8565b61084e57604051600160e51b62461bcd02815260040180806020018281038252602b8152602001806111bf602b913960400191505060405180910390fd5b6000610859836105c8565b9050806001600160a01b0316846001600160a01b031614806108945750836001600160a01b03166108898461036f565b6001600160a01b0316145b806108a457506108a481856107ba565b949350505050565b826001600160a01b03166108bf826105c8565b6001600160a01b03161461090757604051600160e51b62461bcd0281526004018080602001828103825260288152602001806111116028913960400191505060405180910390fd5b6001600160a01b03821661094f57604051600160e51b62461bcd02815260040180806020018281038252602381526020018061100e6023913960400191505060405180910390fd5b61095881610def565b6001600160a01b038316600090815260036020526040902061097990610e2a565b6001600160a01b038216600090815260036020526040902061099a90610e41565b60008181526001602052604080822080546001600160a01b0319166001600160a01b0386811691821790925591518493918716917fddf252ad1be2c89b69c2b068fc378daa952ba7f163c4a11628f55a4df523b3ef91a4505050565b6105c5610a02826105c8565b82610e4a565b5490565b6000806060610a23866001600160a01b0316610f24565b610a32576001925050506108a4565b856001600160a01b031663150b7a0260e01b3389888860405160240180856001600160a01b03166001600160a01b03168152602001846001600160a01b03166001600160a01b0316815260200183815260200180602001828103825283818151815260200191508051906020019080838360005b83811015610abe578181015183820152602001610aa6565b50505050905090810190601f168015610aeb5780820380516001836020036101000a031916815260200191505b5060408051601f198184030181529181526020820180516001600160e01b03166001600160e01b0319909a16999099178952518151919890975087965094509250829150849050835b60208310610b535780518252601f199092019160209182019101610b34565b6001836020036101000a0380198251168184511680821785525050505050509050019150506000604051808303816000865af19150503d8060008114610bb5576040519150601f19603f3d011682016040523d82523d6000602084013e610bba565b606091505b508051919350915015801590610bfa57508051600160e11b630a85bd01029060208084019190811015610bec57600080fd5b50516001600160e01b031916145b15610c0a576001925050506108a4565b856001600160a01b0316636745782b60e01b3389888860405160240180856001600160a01b03166001600160a01b03168152602001846001600160a01b03166001600160a01b0316815260200183815260200180602001828103825283818151815260200191508051906020019080838360005b83811015610c96578181015183820152602001610c7e565b50505050905090810190601f168015610cc35780820380516001836020036101000a031916815260200191505b5060408051601f198184030181529181526020820180516001600160e01b03166001600160e01b0319909a16999099178952518151919890975087965094509250829150849050835b60208310610d2b5780518252601f199092019160209182019101610d0c565b6001836020036101000a0380198251168184511680821785525050505050509050019150506000604051808303816000865af19150503d8060008114610d8d576040519150601f19603f3d011682016040523d82523d6000602084013e610d92565b606091505b508051919350915015801590610dd257508051600160e01b636745782b029060208084019190811015610dc457600080fd5b50516001600160e01b031916145b15610de2576001925050506108a4565b5060009695505050505050565b6000818152600260205260409020546001600160a01b0316156105c557600090815260026020526040902080546001600160a01b0319169055565b8054610e3d90600163ffffffff610f2a16565b9055565b80546001019055565b816001600160a01b0316610e5d826105c8565b6001600160a01b031614610ea557604051600160e51b62461bcd0281526004018080602001828103825260248152602001806111396024913960400191505060405180910390fd5b610eae81610def565b6001600160a01b0382166000908152600360205260409020610ecf90610e2a565b60008181526001602052604080822080546001600160a01b0319169055518291906001600160a01b038516907fddf252ad1be2c89b69c2b068fc378daa952ba7f163c4a11628f55a4df523b3ef908390a45050565b3b151590565b6000610f6c83836040518060400160405280601e81526020017f536166654d6174683a207375627472616374696f6e206f766572666c6f770000815250610f73565b9392505050565b6000818484111561100557604051600160e51b62461bcd0281526004018080602001828103825283818151815260200191508051906020019080838360005b83811015610fca578181015183820152602001610fb2565b50505050905090810190601f168015610ff75780820380516001836020036101000a031916815260200191505b509250505060405180910390fd5b50505090039056fe4b495031373a207472616e7366657220746f20746865207a65726f20616464726573734b495031373a206f776e657220717565727920666f72206e6f6e6578697374656e7420746f6b656e4b495031373a207472616e736665722063616c6c6572206973206e6f74206f776e6572206e6f7220617070726f7665644b495031373a207472616e7366657220746f206e6f6e204b49503137526563656976657220696d706c656d656e7465724b495031374275726e61626c653a2063616c6c6572206973206e6f74206f776e6572206e6f7220617070726f7665644b495031373a2062616c616e636520717565727920666f7220746865207a65726f20616464726573734b495031373a207472616e73666572206f6620746f6b656e2074686174206973206e6f74206f776e4b495031373a206275726e206f6620746f6b656e2074686174206973206e6f74206f776e4b495031373a20617070726f76656420717565727920666f72206e6f6e6578697374656e7420746f6b656e4b495031373a20617070726f76652063616c6c6572206973206e6f74206f776e6572206e6f7220617070726f76656420666f7220616c6c4b495031373a206f70657261746f7220717565727920666f72206e6f6e6578697374656e7420746f6b656ea165627a7a7230582095141b344a2ef2a93401af828092b28479602f7ab36a6e761ec6f0a4f71252590029",
  "source": "pragma solidity ^0.5.0;\n\nimport \"./KIP17.sol\";\nimport \"../../introspection/KIP13.sol\";\n\n/**\n * @title KIP17 Burnable Token\n * @dev KIP17 Token that can be irreversibly burned (destroyed).\n * See http://kips.klaytn.com/KIPs/kip-17-non_fungible_token\n */\ncontract KIP17Burnable is KIP13, KIP17 {\n    /*\n     *     bytes4(keccak256('burn(uint256)')) == 0x42966c68\n     *\n     *     => 0x42966c68 == 0x42966c68\n     */\n    bytes4 private constant _INTERFACE_ID_KIP17_BURNABLE = 0x42966c68;\n\n    /**\n     * @dev Constructor function.\n     */\n    constructor () public {\n        // register the supported interface to conform to KIP17Burnable via KIP13\n        _registerInterface(_INTERFACE_ID_KIP17_BURNABLE);\n    }\n\n    /**\n     * @dev Burns a specific KIP17 token.\n     * @param tokenId uint256 id of the KIP17 token to be burned.\n     */\n    function burn(uint256 tokenId) public {\n        //solhint-disable-next-line max-line-length\n        require(_isApprovedOrOwner(msg.sender, tokenId), \"KIP17Burnable: caller is not owner nor approved\");\n        _burn(tokenId);\n    }\n}\n",
  "sourcePath": "C:\\Users\\runde\\Documents\\Mint_Leo\\src\\contracts\\klaytn-contracts\\token\\KIP17\\KIP17Burnable.sol",
  "compiler": {
    "name": "solc",
    "version": "0.5.6+commit.b259423e.Emscripten.clang"
  },
  "schemaVersion": "3.3.3",
  "updatedAt": "2022-02-24T11:14:36.074Z",
  "devdoc": {
    "details": "KIP17 Token that can be irreversibly burned (destroyed). See http://kips.klaytn.com/KIPs/kip-17-non_fungible_token",
    "methods": {
      "approve(address,uint256)": {
        "details": "Approves another address to transfer the given token ID The zero address indicates there is no approved address. There can only be one approved address per token at a given time. Can only be called by the token owner or an approved operator.",
        "params": {
          "to": "address to be approved for the given token ID",
          "tokenId": "uint256 ID of the token to be approved"
        }
      },
      "balanceOf(address)": {
        "details": "Gets the balance of the specified address.",
        "params": {
          "owner": "address to query the balance of"
        },
        "return": "uint256 representing the amount owned by the passed address"
      },
      "burn(uint256)": {
        "details": "Burns a specific KIP17 token.",
        "params": {
          "tokenId": "uint256 id of the KIP17 token to be burned."
        }
      },
      "constructor": {
        "details": "Constructor function."
      },
      "getApproved(uint256)": {
        "details": "Gets the approved address for a token ID, or zero if no address set Reverts if the token ID does not exist.",
        "params": {
          "tokenId": "uint256 ID of the token to query the approval of"
        },
        "return": "address currently approved for the given token ID"
      },
      "isApprovedForAll(address,address)": {
        "details": "Tells whether an operator is approved by a given owner.",
        "params": {
          "operator": "operator address which you want to query the approval of",
          "owner": "owner address which you want to query the approval of"
        },
        "return": "bool whether the given operator is approved by the given owner"
      },
      "ownerOf(uint256)": {
        "details": "Gets the owner of the specified token ID.",
        "params": {
          "tokenId": "uint256 ID of the token to query the owner of"
        },
        "return": "address currently marked as the owner of the given token ID"
      },
      "safeTransferFrom(address,address,uint256)": {
        "details": "Safely transfers the ownership of a given token ID to another address If the target address is a contract, it must implement `onKIP17Received`, which is called upon a safe transfer, and return the magic value `bytes4(keccak256(\"onKIP17Received(address,address,uint256,bytes)\"))`; otherwise, the transfer is reverted. Requires the msg.sender to be the owner, approved, or operator",
        "params": {
          "from": "current owner of the token",
          "to": "address to receive the ownership of the given token ID",
          "tokenId": "uint256 ID of the token to be transferred"
        }
      },
      "safeTransferFrom(address,address,uint256,bytes)": {
        "details": "Safely transfers the ownership of a given token ID to another address If the target address is a contract, it must implement `onKIP17Received`, which is called upon a safe transfer, and return the magic value `bytes4(keccak256(\"onKIP17Received(address,address,uint256,bytes)\"))`; otherwise, the transfer is reverted. Requires the msg.sender to be the owner, approved, or operator",
        "params": {
          "_data": "bytes data to send along with a safe transfer check",
          "from": "current owner of the token",
          "to": "address to receive the ownership of the given token ID",
          "tokenId": "uint256 ID of the token to be transferred"
        }
      },
      "setApprovalForAll(address,bool)": {
        "details": "Sets or unsets the approval of a given operator An operator is allowed to transfer all tokens of the sender on their behalf.",
        "params": {
          "approved": "representing the status of the approval to be set",
          "to": "operator address to set the approval"
        }
      },
      "supportsInterface(bytes4)": {
        "details": "See `IKIP13.supportsInterface`.     * Time complexity O(1), guaranteed to always use less than 30 000 gas."
      },
      "transferFrom(address,address,uint256)": {
        "details": "Transfers the ownership of a given token ID to another address. Usage of this method is discouraged, use `safeTransferFrom` whenever possible. Requires the msg.sender to be the owner, approved, or operator.",
        "params": {
          "from": "current owner of the token",
          "to": "address to receive the ownership of the given token ID",
          "tokenId": "uint256 ID of the token to be transferred"
        }
      }
    },
    "title": "KIP17 Burnable Token"
  },
  "userdoc": {
    "methods": {}
  }
}