{
  "contractName": "KIP13Mock",
  "abi": [
    {
      "constant": true,
      "inputs": [
        {
          "name": "interfaceId",
          "type": "bytes4"
        }
      ],
      "name": "supportsInterface",
      "outputs": [
        {
          "name": "",
          "type": "bool"
        }
      ],
      "payable": false,
      "stateMutability": "view",
      "type": "function"
    },
    {
      "constant": false,
      "inputs": [
        {
          "name": "interfaceId",
          "type": "bytes4"
        }
      ],
      "name": "registerInterface",
      "outputs": [],
      "payable": false,
      "stateMutability": "nonpayable",
      "type": "function"
    }
  ],
  "bytecode": "0x608060405261001a6301ffc9a760e01b61001f60201b60201c565b6100ed565b7fffffffff0000000000000000000000000000000000000000000000000000000080821614156100b057604080517f08c379a000000000000000000000000000000000000000000000000000000000815260206004820152601b60248201527f4b495031333a20696e76616c696420696e746572666163652069640000000000604482015290519081900360640190fd5b7fffffffff00000000000000000000000000000000000000000000000000000000166000908152602081905260409020805460ff19166001179055565b61017d806100fc6000396000f3fe608060405234801561001057600080fd5b50600436106100365760003560e01c806301ffc9a71461003b578063214cdb8014610076575b600080fd5b6100626004803603602081101561005157600080fd5b50356001600160e01b03191661009f565b604080519115158252519081900360200190f35b61009d6004803603602081101561008c57600080fd5b50356001600160e01b0319166100be565b005b6001600160e01b03191660009081526020819052604090205460ff1690565b6100c7816100ca565b50565b6001600160e01b0319808216141561012c5760408051600160e51b62461bcd02815260206004820152601b60248201527f4b495031333a20696e76616c696420696e746572666163652069640000000000604482015290519081900360640190fd5b6001600160e01b0319166000908152602081905260409020805460ff1916600117905556fea165627a7a72305820aba76f6816ef3bd72d495de92dd04a0c58516d4df3de894c960f3d6e5cb6a5180029",
  "source": "pragma solidity ^0.5.0;\n\nimport \"../introspection/KIP13.sol\";\n\ncontract KIP13Mock is KIP13 {\n    function registerInterface(bytes4 interfaceId) public {\n        _registerInterface(interfaceId);\n    }\n}\n",
  "sourcePath": "C:\\Users\\runde\\Documents\\Mint_Leo\\src\\contracts\\klaytn-contracts\\mocks\\KIP13Mock.sol",
  "compiler": {
    "name": "solc",
    "version": "0.5.6+commit.b259423e.Emscripten.clang"
  },
  "schemaVersion": "3.3.3",
  "updatedAt": "2022-02-25T08:53:57.171Z",
  "devdoc": {
    "methods": {
      "supportsInterface(bytes4)": {
        "details": "See `IKIP13.supportsInterface`.     * Time complexity O(1), guaranteed to always use less than 30 000 gas."
      }
    }
  },
  "userdoc": {
    "methods": {}
  }
}