{
  "contractName": "KIP37Mock",
  "abi": [
    {
      "constant": true,
      "inputs": [
        {
          "name": "account",
          "type": "address"
        },
        {
          "name": "id",
          "type": "uint256"
        }
      ],
      "name": "balanceOf",
      "outputs": [
        {
          "name": "",
          "type": "uint256"
        }
      ],
      "payable": false,
      "stateMutability": "view",
      "type": "function"
    },
    {
      "constant": true,
      "inputs": [
        {
          "name": "interfaceId",
          "type": "bytes4"
        }
      ],
      "name": "supportsInterface",
      "outputs": [
        {
          "name": "",
          "type": "bool"
        }
      ],
      "payable": false,
      "stateMutability": "view",
      "type": "function"
    },
    {
      "constant": true,
      "inputs": [
        {
          "name": "",
          "type": "uint256"
        }
      ],
      "name": "uri",
      "outputs": [
        {
          "name": "",
          "type": "string"
        }
      ],
      "payable": false,
      "stateMutability": "view",
      "type": "function"
    },
    {
      "constant": false,
      "inputs": [
        {
          "name": "from",
          "type": "address"
        },
        {
          "name": "to",
          "type": "address"
        },
        {
          "name": "ids",
          "type": "uint256[]"
        },
        {
          "name": "amounts",
          "type": "uint256[]"
        },
        {
          "name": "data",
          "type": "bytes"
        }
      ],
      "name": "safeBatchTransferFrom",
      "outputs": [],
      "payable": false,
      "stateMutability": "nonpayable",
      "type": "function"
    },
    {
      "constant": true,
      "inputs": [
        {
          "name": "accounts",
          "type": "address[]"
        },
        {
          "name": "ids",
          "type": "uint256[]"
        }
      ],
      "name": "balanceOfBatch",
      "outputs": [
        {
          "name": "",
          "type": "uint256[]"
        }
      ],
      "payable": false,
      "stateMutability": "view",
      "type": "function"
    },
    {
      "constant": false,
      "inputs": [
        {
          "name": "operator",
          "type": "address"
        },
        {
          "name": "approved",
          "type": "bool"
        }
      ],
      "name": "setApprovalForAll",
      "outputs": [],
      "payable": false,
      "stateMutability": "nonpayable",
      "type": "function"
    },
    {
      "constant": true,
      "inputs": [
        {
          "name": "_tokenId",
          "type": "uint256"
        }
      ],
      "name": "totalSupply",
      "outputs": [
        {
          "name": "",
          "type": "uint256"
        }
      ],
      "payable": false,
      "stateMutability": "view",
      "type": "function"
    },
    {
      "constant": true,
      "inputs": [
        {
          "name": "account",
          "type": "address"
        },
        {
          "name": "operator",
          "type": "address"
        }
      ],
      "name": "isApprovedForAll",
      "outputs": [
        {
          "name": "",
          "type": "bool"
        }
      ],
      "payable": false,
      "stateMutability": "view",
      "type": "function"
    },
    {
      "constant": false,
      "inputs": [
        {
          "name": "from",
          "type": "address"
        },
        {
          "name": "to",
          "type": "address"
        },
        {
          "name": "id",
          "type": "uint256"
        },
        {
          "name": "amount",
          "type": "uint256"
        },
        {
          "name": "data",
          "type": "bytes"
        }
      ],
      "name": "safeTransferFrom",
      "outputs": [],
      "payable": false,
      "stateMutability": "nonpayable",
      "type": "function"
    },
    {
      "inputs": [
        {
          "name": "uri",
          "type": "string"
        }
      ],
      "payable": false,
      "stateMutability": "nonpayable",
      "type": "constructor"
    },
    {
      "anonymous": false,
      "inputs": [
        {
          "indexed": true,
          "name": "operator",
          "type": "address"
        },
        {
          "indexed": true,
          "name": "from",
          "type": "address"
        },
        {
          "indexed": true,
          "name": "to",
          "type": "address"
        },
        {
          "indexed": false,
          "name": "id",
          "type": "uint256"
        },
        {
          "indexed": false,
          "name": "value",
          "type": "uint256"
        }
      ],
      "name": "TransferSingle",
      "type": "event"
    },
    {
      "anonymous": false,
      "inputs": [
        {
          "indexed": true,
          "name": "operator",
          "type": "address"
        },
        {
          "indexed": true,
          "name": "from",
          "type": "address"
        },
        {
          "indexed": true,
          "name": "to",
          "type": "address"
        },
        {
          "indexed": false,
          "name": "ids",
          "type": "uint256[]"
        },
        {
          "indexed": false,
          "name": "values",
          "type": "uint256[]"
        }
      ],
      "name": "TransferBatch",
      "type": "event"
    },
    {
      "anonymous": false,
      "inputs": [
        {
          "indexed": true,
          "name": "account",
          "type": "address"
        },
        {
          "indexed": true,
          "name": "operator",
          "type": "address"
        },
        {
          "indexed": false,
          "name": "approved",
          "type": "bool"
        }
      ],
      "name": "ApprovalForAll",
      "type": "event"
    },
    {
      "anonymous": false,
      "inputs": [
        {
          "indexed": false,
          "name": "value",
          "type": "string"
        },
        {
          "indexed": true,
          "name": "id",
          "type": "uint256"
        }
      ],
      "name": "URI",
      "type": "event"
    },
    {
      "constant": false,
      "inputs": [
        {
          "name": "newuri",
          "type": "string"
        }
      ],
      "name": "setURI",
      "outputs": [],
      "payable": false,
      "stateMutability": "nonpayable",
      "type": "function"
    },
    {
      "constant": false,
      "inputs": [
        {
          "name": "to",
          "type": "address"
        },
        {
          "name": "id",
          "type": "uint256"
        },
        {
          "name": "value",
          "type": "uint256"
        },
        {
          "name": "data",
          "type": "bytes"
        }
      ],
      "name": "mint",
      "outputs": [],
      "payable": false,
      "stateMutability": "nonpayable",
      "type": "function"
    },
    {
      "constant": false,
      "inputs": [
        {
          "name": "to",
          "type": "address"
        },
        {
          "name": "ids",
          "type": "uint256[]"
        },
        {
          "name": "values",
          "type": "uint256[]"
        },
        {
          "name": "data",
          "type": "bytes"
        }
      ],
      "name": "mintBatch",
      "outputs": [],
      "payable": false,
      "stateMutability": "nonpayable",
      "type": "function"
    },
    {
      "constant": false,
      "inputs": [
        {
          "name": "owner",
          "type": "address"
        },
        {
          "name": "id",
          "type": "uint256"
        },
        {
          "name": "value",
          "type": "uint256"
        }
      ],
      "name": "burn",
      "outputs": [],
      "payable": false,
      "stateMutability": "nonpayable",
      "type": "function"
    },
    {
      "constant": false,
      "inputs": [
        {
          "name": "owner",
          "type": "address"
        },
        {
          "name": "ids",
          "type": "uint256[]"
        },
        {
          "name": "values",
          "type": "uint256[]"
        }
      ],
      "name": "burnBatch",
      "outputs": [],
      "payable": false,
      "stateMutability": "nonpayable",
      "type": "function"
    }
  ],
  "bytecode": "0x60806040523480156200001157600080fd5b5060405162002d5938038062002d59833981018060405260208110156200003757600080fd5b8101908080516401000000008111156200005057600080fd5b820160208101848111156200006457600080fd5b81516401000000008111828201871017156200007f57600080fd5b505092919050505080620000a06301ffc9a760e01b620000e960201b60201c565b620000b181620001b860201b60201c565b620000c9636433ca1f60e01b620000e960201b60201c565b620000e1630e89341c60e01b620000e960201b60201c565b505062000276565b7fffffffff0000000000000000000000000000000000000000000000000000000080821614156200017b57604080517f08c379a000000000000000000000000000000000000000000000000000000000815260206004820152601b60248201527f4b495031333a20696e76616c696420696e746572666163652069640000000000604482015290519081900360640190fd5b7fffffffff00000000000000000000000000000000000000000000000000000000166000908152602081905260409020805460ff19166001179055565b8051620001cd906004906020840190620001d1565b5050565b828054600181600116156101000203166002900490600052602060002090601f016020900481019282601f106200021457805160ff191683800117855562000244565b8280016001018555821562000244579182015b828111156200024457825182559160200191906001019062000227565b506200025292915062000256565b5090565b6200027391905b808211156200025257600081556001016200025d565b90565b612ad380620002866000396000f3fe608060405234801561001057600080fd5b50600436106100e95760003560e01c80636b20c4541161008c578063bd85b03911610066578063bd85b039146109ac578063e985e9c5146109c9578063f242432a146109f7578063f5298aca14610ac0576100e9565b80636b20c4541461078b578063731133e9146108be578063a22cb4651461097e576100e9565b80630e89341c116100c85780630e89341c1461020d5780631f7fdffa1461029f5780632eb2c2d6146104575780634e1273f414610618576100e9565b8062fdd58e146100ee57806301ffc9a71461012c57806302fe530514610167575b600080fd5b61011a6004803603604081101561010457600080fd5b506001600160a01b038135169060200135610af2565b60408051918252519081900360200190f35b6101536004803603602081101561014257600080fd5b50356001600160e01b031916610b64565b604080519115158252519081900360200190f35b61020b6004803603602081101561017d57600080fd5b810190602081018135600160201b81111561019757600080fd5b8201836020820111156101a957600080fd5b803590602001918460018302840111600160201b831117156101ca57600080fd5b91908080601f016020809104026020016040519081016040528093929190818152602001838380828437600092019190915250929550610b83945050505050565b005b61022a6004803603602081101561022357600080fd5b5035610b8f565b6040805160208082528351818301528351919283929083019185019080838360005b8381101561026457818101518382015260200161024c565b50505050905090810190601f1680156102915780820380516001836020036101000a031916815260200191505b509250505060405180910390f35b61020b600480360360808110156102b557600080fd5b6001600160a01b038235169190810190604081016020820135600160201b8111156102df57600080fd5b8201836020820111156102f157600080fd5b803590602001918460208302840111600160201b8311171561031257600080fd5b9190808060200260200160405190810160405280939291908181526020018383602002808284376000920191909152509295949360208101935035915050600160201b81111561036157600080fd5b82018360208201111561037357600080fd5b803590602001918460208302840111600160201b8311171561039457600080fd5b9190808060200260200160405190810160405280939291908181526020018383602002808284376000920191909152509295949360208101935035915050600160201b8111156103e357600080fd5b8201836020820111156103f557600080fd5b803590602001918460018302840111600160201b8311171561041657600080fd5b91908080601f016020809104026020016040519081016040528093929190818152602001838380828437600092019190915250929550610c27945050505050565b61020b600480360360a081101561046d57600080fd5b6001600160a01b038235811692602081013590911691810190606081016040820135600160201b8111156104a057600080fd5b8201836020820111156104b257600080fd5b803590602001918460208302840111600160201b831117156104d357600080fd5b9190808060200260200160405190810160405280939291908181526020018383602002808284376000920191909152509295949360208101935035915050600160201b81111561052257600080fd5b82018360208201111561053457600080fd5b803590602001918460208302840111600160201b8311171561055557600080fd5b9190808060200260200160405190810160405280939291908181526020018383602002808284376000920191909152509295949360208101935035915050600160201b8111156105a457600080fd5b8201836020820111156105b657600080fd5b803590602001918460018302840111600160201b831117156105d757600080fd5b91908080601f016020809104026020016040519081016040528093929190818152602001838380828437600092019190915250929550610c39945050505050565b61073b6004803603604081101561062e57600080fd5b810190602081018135600160201b81111561064857600080fd5b82018360208201111561065a57600080fd5b803590602001918460208302840111600160201b8311171561067b57600080fd5b9190808060200260200160405190810160405280939291908181526020018383602002808284376000920191909152509295949360208101935035915050600160201b8111156106ca57600080fd5b8201836020820111156106dc57600080fd5b803590602001918460208302840111600160201b831117156106fd57600080fd5b919080806020026020016040519081016040528093929190818152602001838360200280828437600092019190915250929550610f7e945050505050565b60408051602080825283518183015283519192839290830191858101910280838360005b8381101561077757818101518382015260200161075f565b505050509050019250505060405180910390f35b61020b600480360360608110156107a157600080fd5b6001600160a01b038235169190810190604081016020820135600160201b8111156107cb57600080fd5b8201836020820111156107dd57600080fd5b803590602001918460208302840111600160201b831117156107fe57600080fd5b9190808060200260200160405190810160405280939291908181526020018383602002808284376000920191909152509295949360208101935035915050600160201b81111561084d57600080fd5b82018360208201111561085f57600080fd5b803590602001918460208302840111600160201b8311171561088057600080fd5b9190808060200260200160405190810160405280939291908181526020018383602002808284376000920191909152509295506110eb945050505050565b61020b600480360360808110156108d457600080fd5b6001600160a01b038235169160208101359160408201359190810190608081016060820135600160201b81111561090a57600080fd5b82018360208201111561091c57600080fd5b803590602001918460018302840111600160201b8311171561093d57600080fd5b91908080601f0160208091040260200160405190810160405280939291908181526020018383808284376000920191909152509295506110fb945050505050565b61020b6004803603604081101561099457600080fd5b506001600160a01b0381351690602001351515611107565b61011a600480360360208110156109c257600080fd5b50356111f9565b610153600480360360408110156109df57600080fd5b506001600160a01b038135811691602001351661120b565b61020b600480360360a0811015610a0d57600080fd5b6001600160a01b03823581169260208101359091169160408201359160608101359181019060a081016080820135600160201b811115610a4c57600080fd5b820183602082011115610a5e57600080fd5b803590602001918460018302840111600160201b83111715610a7f57600080fd5b91908080601f016020809104026020016040519081016040528093929190818152602001838380828437600092019190915250929550611239945050505050565b61020b60048036036060811015610ad657600080fd5b506001600160a01b03813516906020810135906040013561144e565b60006001600160a01b038316610b3c57604051600160e51b62461bcd0281526004018080602001828103825260298152602001806128d46029913960400191505060405180910390fd5b5060009081526001602090815260408083206001600160a01b03949094168352929052205490565b6001600160e01b03191660009081526020819052604090205460ff1690565b610b8c81611459565b50565b60048054604080516020601f6002600019610100600188161502019095169490940493840181900481028201810190925282815260609390929091830182828015610c1b5780601f10610bf057610100808354040283529160200191610c1b565b820191906000526020600020905b815481529060010190602001808311610bfe57829003601f168201915b50505050509050919050565b610c3384848484611470565b50505050565b8151835114610c7c57604051600160e51b62461bcd0281526004018080602001828103825260268152602001806129246026913960400191505060405180910390fd5b6001600160a01b038416610cc457604051600160e51b62461bcd028152600401808060200182810382526023815260200180612a206023913960400191505060405180910390fd5b610ccc61178c565b6001600160a01b0316856001600160a01b03161480610cf75750610cf785610cf261178c565b61120b565b610d3557604051600160e51b62461bcd02815260040180806020018281038252603081526020018061294a6030913960400191505060405180910390fd5b6000610d3f61178c565b9050610d4f818787878787610f76565b60005b8451811015610e50576000858281518110610d6957fe5b602002602001015190506000858381518110610d8157fe5b60200260200101519050610dee8160405180606001604052806028815260200161297a602891396001600086815260200190815260200160002060008d6001600160a01b03166001600160a01b03168152602001908152602001600020546117919092919063ffffffff16565b60008381526001602090815260408083206001600160a01b038e811685529252808320939093558a1681522054610e25908261182b565b60009283526001602081815260408086206001600160a01b038d168752909152909320555001610d52565b50846001600160a01b0316866001600160a01b0316826001600160a01b03167f4a39dc06d4c0dbc64b70af90fd698a233a518aa5d07e595d983b8c0526c8f7fb8787604051808060200180602001838103835285818151815260200191508051906020019060200280838360005b83811015610ed6578181015183820152602001610ebe565b50505050905001838103825284818151815260200191508051906020019060200280838360005b83811015610f15578181015183820152602001610efd565b5050505090500194505050505060405180910390a4610f3881878787878761188f565b610f7657604051600160e51b62461bcd028152600401808060200182810382526036815260200180612a436036913960400191505060405180910390fd5b505050505050565b60608151835114610fc357604051600160e51b62461bcd02815260040180806020018281038252602781526020018061286a6027913960400191505060405180910390fd5b60608351604051908082528060200260200182016040528015610ff0578160200160208202803883390190505b50905060005b84518110156110e35760006001600160a01b031685828151811061101657fe5b60200260200101516001600160a01b0316141561106757604051600160e51b62461bcd02815260040180806020018281038252602f815260200180612a79602f913960400191505060405180910390fd5b6001600085838151811061107757fe5b60200260200101518152602001908152602001600020600086838151811061109b57fe5b60200260200101516001600160a01b03166001600160a01b03168152602001908152602001600020548282815181106110d057fe5b6020908102919091010152600101610ff6565b509392505050565b6110f6838383611d82565b505050565b610c3384848484612093565b816001600160a01b031661111961178c565b6001600160a01b0316141561116257604051600160e51b62461bcd0281526004018080602001828103825260278152602001806129a26027913960400191505060405180910390fd5b806002600061116f61178c565b6001600160a01b03908116825260208083019390935260409182016000908120918716808252919093529120805460ff1916921515929092179091556111b361178c565b60408051841515815290516001600160a01b0392909216917f17307eab39ab6107e8899845ad3d59bd9653f200f220920489ca2b5937696c319181900360200190a35050565b60009081526003602052604090205490565b6001600160a01b03918216600090815260026020908152604080832093909416825291909152205460ff1690565b6001600160a01b03841661128157604051600160e51b62461bcd028152600401808060200182810382526023815260200180612a206023913960400191505060405180910390fd5b61128961178c565b6001600160a01b0316856001600160a01b031614806112af57506112af85610cf261178c565b6112ed57604051600160e51b62461bcd0281526004018080602001828103825260278152602001806129f96027913960400191505060405180910390fd5b60006112f761178c565b905061131781878761130888612229565b61131188612229565b87610f76565b6113648360405180606001604052806028815260200161297a6028913960008781526001602090815260408083206001600160a01b038d168452909152902054919063ffffffff61179116565b60008581526001602090815260408083206001600160a01b038b8116855292528083209390935587168152205461139b908461182b565b60008581526001602090815260408083206001600160a01b03808b168086529184529382902094909455805188815291820187905280518a8416938616927fc3d58168c5ae7397731d063d5bbf3d657854427343f4c083240f7aacaa2d0f6292908290030190a461141081878787878761226d565b610f7657604051600160e51b62461bcd0281526004018080602001828103825260308152602001806129c96030913960400191505060405180910390fd5b6110f6838383612639565b805161146c9060049060208401906127d1565b5050565b6001600160a01b0384166114ce5760408051600160e51b62461bcd02815260206004820152601f60248201527f4b495033373a206d696e7420746f20746865207a65726f206164647265737300604482015290519081900360640190fd5b815183511461151157604051600160e51b62461bcd0281526004018080602001828103825260268152602001806129246026913960400191505060405180910390fd5b600061151b61178c565b905061152c81600087878787610f76565b60005b845181101561165d576115a76001600087848151811061154b57fe5b602002602001015181526020019081526020016000206000886001600160a01b03166001600160a01b031681526020019081526020016000205485838151811061159157fe5b602002602001015161182b90919063ffffffff16565b600160008784815181106115b757fe5b602002602001015181526020019081526020016000206000886001600160a01b03166001600160a01b031681526020019081526020016000208190555061162a6003600087848151811061160757fe5b602002602001015181526020019081526020016000205485838151811061159157fe5b6003600087848151811061163a57fe5b60209081029190910181015182528101919091526040016000205560010161152f565b50846001600160a01b031660006001600160a01b0316826001600160a01b03167f4a39dc06d4c0dbc64b70af90fd698a233a518aa5d07e595d983b8c0526c8f7fb8787604051808060200180602001838103835285818151815260200191508051906020019060200280838360005b838110156116e45781810151838201526020016116cc565b50505050905001838103825284818151815260200191508051906020019060200280838360005b8381101561172357818101518382015260200161170b565b5050505090500194505050505060405180910390a46117478160008787878761188f565b61178557604051600160e51b62461bcd028152600401808060200182810382526036815260200180612a436036913960400191505060405180910390fd5b5050505050565b335b90565b6000818484111561182357604051600160e51b62461bcd0281526004018080602001828103825283818151815260200191508051906020019080838360005b838110156117e85781810151838201526020016117d0565b50505050905090810190601f1680156118155780820380516001836020036101000a031916815260200191505b509250505060405180910390fd5b505050900390565b6000828201838110156118885760408051600160e51b62461bcd02815260206004820152601b60248201527f536166654d6174683a206164646974696f6e206f766572666c6f770000000000604482015290519081900360640190fd5b9392505050565b60008060606118a6876001600160a01b03166127cb565b6118b557600192505050611d78565b866001600160a01b031663bc197c8160e01b8a8a89898960405160240180866001600160a01b03166001600160a01b03168152602001856001600160a01b03166001600160a01b03168152602001806020018060200180602001848103845287818151815260200191508051906020019060200280838360005b8381101561194757818101518382015260200161192f565b50505050905001848103835286818151815260200191508051906020019060200280838360005b8381101561198657818101518382015260200161196e565b50505050905001848103825285818151815260200191508051906020019080838360005b838110156119c25781810151838201526020016119aa565b50505050905090810190601f1680156119ef5780820380516001836020036101000a031916815260200191505b5098505050505050505050604051602081830303815290604052906001600160e01b0319166020820180516001600160e01b0383818316178352505050506040518082805190602001908083835b60208310611a5c5780518252601f199092019160209182019101611a3d565b6001836020036101000a0380198251168184511680821785525050505050509050019150506000604051808303816000865af19150503d8060008114611abe576040519150601f19603f3d011682016040523d82523d6000602084013e611ac3565b606091505b508051919350915015801590611b0357508051600160e01b63bc197c81029060208084019190811015611af557600080fd5b50516001600160e01b031916145b15611b1357600192505050611d78565b866001600160a01b0316639b49e33260e01b8a8a89898960405160240180866001600160a01b03166001600160a01b03168152602001856001600160a01b03166001600160a01b03168152602001806020018060200180602001848103845287818151815260200191508051906020019060200280838360005b83811015611ba5578181015183820152602001611b8d565b50505050905001848103835286818151815260200191508051906020019060200280838360005b83811015611be4578181015183820152602001611bcc565b50505050905001848103825285818151815260200191508051906020019080838360005b83811015611c20578181015183820152602001611c08565b50505050905090810190601f168015611c4d5780820380516001836020036101000a031916815260200191505b5098505050505050505050604051602081830303815290604052906001600160e01b0319166020820180516001600160e01b0383818316178352505050506040518082805190602001908083835b60208310611cba5780518252601f199092019160209182019101611c9b565b6001836020036101000a0380198251168184511680821785525050505050509050019150506000604051808303816000865af19150503d8060008114611d1c576040519150601f19603f3d011682016040523d82523d6000602084013e611d21565b606091505b508051919350915015801590611d6157508051600160e11b634da4f199029060208084019190811015611d5357600080fd5b50516001600160e01b031916145b15611d7157600192505050611d78565b6000925050505b9695505050505050565b6001600160a01b038316611dca57604051600160e51b62461bcd0281526004018080602001828103825260218152602001806128b36021913960400191505060405180910390fd5b8051825114611e0d57604051600160e51b62461bcd0281526004018080602001828103825260268152602001806129246026913960400191505060405180910390fd5b6000611e1761178c565b9050611e3781856000868660405180602001604052806000815250610f76565b60005b8351811015611fb257611ecc838281518110611e5257fe5b60200260200101516040518060600160405280602281526020016128916022913960016000888681518110611e8357fe5b602002602001015181526020019081526020016000206000896001600160a01b03166001600160a01b03168152602001908152602001600020546117919092919063ffffffff16565b60016000868481518110611edc57fe5b602002602001015181526020019081526020016000206000876001600160a01b03166001600160a01b0316815260200190815260200160002081905550611f7f838281518110611f2857fe5b60200260200101516040518060600160405280602781526020016128fd6027913960036000888681518110611f5957fe5b60200260200101518152602001908152602001600020546117919092919063ffffffff16565b60036000868481518110611f8f57fe5b602090810291909101810151825281019190915260400160002055600101611e3a565b5060006001600160a01b0316846001600160a01b0316826001600160a01b03167f4a39dc06d4c0dbc64b70af90fd698a233a518aa5d07e595d983b8c0526c8f7fb8686604051808060200180602001838103835285818151815260200191508051906020019060200280838360005b83811015612039578181015183820152602001612021565b50505050905001838103825284818151815260200191508051906020019060200280838360005b83811015612078578181015183820152602001612060565b5050505090500194505050505060405180910390a450505050565b6001600160a01b0384166120f15760408051600160e51b62461bcd02815260206004820152601f60248201527f4b495033373a206d696e7420746f20746865207a65726f206164647265737300604482015290519081900360640190fd5b60006120fb61178c565b905061210d8160008761130888612229565b60008481526001602090815260408083206001600160a01b0389168452909152902054612140908463ffffffff61182b16565b60008581526001602090815260408083206001600160a01b038a16845282528083209390935586825260039052205461217f908463ffffffff61182b16565b600085815260036020908152604080832093909355825187815290810186905282516001600160a01b03808a1694908616927fc3d58168c5ae7397731d063d5bbf3d657854427343f4c083240f7aacaa2d0f62929081900390910190a46121eb8160008787878761226d565b61178557604051600160e51b62461bcd0281526004018080602001828103825260308152602001806129c96030913960400191505060405180910390fd5b60408051600180825281830190925260609182919060208083019080388339019050509050828160008151811061225c57fe5b602090810291909101015292915050565b6000806060612284876001600160a01b03166127cb565b61229357600192505050611d78565b866001600160a01b031663f23a6e6160e01b8a8a89898960405160240180866001600160a01b03166001600160a01b03168152602001856001600160a01b03166001600160a01b0316815260200184815260200183815260200180602001828103825283818151815260200191508051906020019080838360005b8381101561232657818101518382015260200161230e565b50505050905090810190601f1680156123535780820380516001836020036101000a031916815260200191505b509650505050505050604051602081830303815290604052906001600160e01b0319166020820180516001600160e01b0383818316178352505050506040518082805190602001908083835b602083106123be5780518252601f19909201916020918201910161239f565b6001836020036101000a0380198251168184511680821785525050505050509050019150506000604051808303816000865af19150503d8060008114612420576040519150601f19603f3d011682016040523d82523d6000602084013e612425565b606091505b50805191935091501580159061246557508051600160e01b63f23a6e6102906020808401919081101561245757600080fd5b50516001600160e01b031916145b1561247557600192505050611d78565b866001600160a01b031663e78b332560e01b8a8a89898960405160240180866001600160a01b03166001600160a01b03168152602001856001600160a01b03166001600160a01b0316815260200184815260200183815260200180602001828103825283818151815260200191508051906020019080838360005b838110156125085781810151838201526020016124f0565b50505050905090810190601f1680156125355780820380516001836020036101000a031916815260200191505b509650505050505050604051602081830303815290604052906001600160e01b0319166020820180516001600160e01b0383818316178352505050506040518082805190602001908083835b602083106125a05780518252601f199092019160209182019101612581565b6001836020036101000a0380198251168184511680821785525050505050509050019150506000604051808303816000865af19150503d8060008114612602576040519150601f19603f3d011682016040523d82523d6000602084013e612607565b606091505b508051919350915015801590611d6157508051600160e01b63e78b3325029060208084019190811015611d5357600080fd5b6001600160a01b03831661268157604051600160e51b62461bcd0281526004018080602001828103825260218152602001806128b36021913960400191505060405180910390fd5b600061268b61178c565b90506126bb8185600061269d87612229565b6126a687612229565b60405180602001604052806000815250610f76565b612708826040518060600160405280602281526020016128916022913960008681526001602090815260408083206001600160a01b038b168452909152902054919063ffffffff61179116565b60008481526001602090815260408083206001600160a01b038916845282529182902092909255805160608101909152602780825261276892859291906128fd90830139600086815260036020526040902054919063ffffffff61179116565b6000848152600360209081526040808320939093558251868152908101859052825191926001600160a01b0388811693908616927fc3d58168c5ae7397731d063d5bbf3d657854427343f4c083240f7aacaa2d0f6292908290030190a450505050565b3b151590565b828054600181600116156101000203166002900490600052602060002090601f016020900481019282601f1061281257805160ff191683800117855561283f565b8280016001018555821561283f579182015b8281111561283f578251825591602001919060010190612824565b5061284b92915061284f565b5090565b61178e91905b8082111561284b576000815560010161285556fe4b495033373a206163636f756e747320616e6420696473206c656e677468206d69736d617463684b495033373a206275726e20616d6f756e7420657863656564732062616c616e63654b495033373a206275726e2066726f6d20746865207a65726f20616464726573734b495033373a2062616c616e636520717565727920666f7220746865207a65726f20616464726573734b495033373a206275726e20616d6f756e74206578636565647320746f74616c20737570706c794b495033373a2069647320616e6420616d6f756e7473206c656e677468206d69736d617463684b495033373a207472616e736665722063616c6c6572206973206e6f74206f776e6572206e6f7220617070726f7665644b495033373a20696e73756666696369656e742062616c616e636520666f72207472616e736665724b495033373a2073657474696e6720617070726f76616c2073746174757320666f722073656c664b495033373a207472616e7366657220746f206e6f6e204b49503337526563656976657220696d706c656d656e7465724b495033373a2063616c6c6572206973206e6f74206f776e6572206e6f7220617070726f7665644b495033373a207472616e7366657220746f20746865207a65726f20616464726573734b495033373a206261746368207472616e7366657220746f206e6f6e204b49503337526563656976657220696d706c656d656e7465724b495033373a2062617463682062616c616e636520717565727920666f7220746865207a65726f2061646472657373a165627a7a7230582015128284d7b1948abddf3d0d23ac496497736ef0e67ff51acabd70522b7964570029",
  "source": "// SPDX-License-Identifier: MIT\n\npragma solidity ^0.5.0;\n\nimport \"../token/KIP37/KIP37.sol\";\n\n/**\n * @title KIP37Mock\n * This mock just publicizes internal functions for testing purposes\n */\ncontract KIP37Mock is KIP37 {\n    constructor (string memory uri) public KIP37(uri) {\n        // solhint-disable-previous-line no-empty-blocks\n    }\n\n    function setURI(string memory newuri) public {\n        _setURI(newuri);\n    }\n\n    function mint(address to, uint256 id, uint256 value, bytes memory data) public {\n        _mint(to, id, value, data);\n    }\n\n    function mintBatch(address to, uint256[] memory ids, uint256[] memory values, bytes memory data) public {\n        _mintBatch(to, ids, values, data);\n    }\n\n    function burn(address owner, uint256 id, uint256 value) public {\n        _burn(owner, id, value);\n    }\n\n    function burnBatch(address owner, uint256[] memory ids, uint256[] memory values) public {\n        _burnBatch(owner, ids, values);\n    }\n}\n",
  "sourcePath": "C:\\Users\\runde\\Documents\\Mint_Leo\\src\\contracts\\klaytn-contracts\\mocks\\KIP37Mock.sol",
  "compiler": {
    "name": "solc",
    "version": "0.5.6+commit.b259423e.Emscripten.clang"
  },
  "schemaVersion": "3.3.3",
  "updatedAt": "2022-02-24T11:14:36.047Z",
  "devdoc": {
    "methods": {
      "balanceOf(address,uint256)": {
        "details": "See {IKIP37-balanceOf}.     * Requirements:     * - `account` cannot be the zero address."
      },
      "balanceOfBatch(address[],uint256[])": {
        "details": "See {IKIP37-balanceOfBatch}.     * Requirements:     * - `accounts` and `ids` must have the same length."
      },
      "isApprovedForAll(address,address)": {
        "details": "See {IKIP37-isApprovedForAll}."
      },
      "safeBatchTransferFrom(address,address,uint256[],uint256[],bytes)": {
        "details": "See {IKIP37-safeBatchTransferFrom}."
      },
      "safeTransferFrom(address,address,uint256,uint256,bytes)": {
        "details": "See {IKIP37-safeTransferFrom}."
      },
      "setApprovalForAll(address,bool)": {
        "details": "See {IKIP37-setApprovalForAll}."
      },
      "supportsInterface(bytes4)": {
        "details": "See `IKIP13.supportsInterface`.     * Time complexity O(1), guaranteed to always use less than 30 000 gas."
      },
      "uri(uint256)": {
        "details": "See {IKIP37MetadataURI-uri}.     * This implementation returns the same URI for *all* token types. It relies on the token type ID substituion mechanism http://kips.klaytn.com/KIPs/kip-37#metadata     * Clients calling this function must replace the `\\{id\\}` substring with the actual token type ID."
      }
    },
    "title": "KIP37Mock This mock just publicizes internal functions for testing purposes"
  },
  "userdoc": {
    "methods": {}
  }
}