{
  "contractName": "KIP37BurnableMock",
  "abi": [
    {
      "constant": true,
      "inputs": [
        {
          "name": "account",
          "type": "address"
        },
        {
          "name": "id",
          "type": "uint256"
        }
      ],
      "name": "balanceOf",
      "outputs": [
        {
          "name": "",
          "type": "uint256"
        }
      ],
      "payable": false,
      "stateMutability": "view",
      "type": "function"
    },
    {
      "constant": true,
      "inputs": [
        {
          "name": "interfaceId",
          "type": "bytes4"
        }
      ],
      "name": "supportsInterface",
      "outputs": [
        {
          "name": "",
          "type": "bool"
        }
      ],
      "payable": false,
      "stateMutability": "view",
      "type": "function"
    },
    {
      "constant": true,
      "inputs": [
        {
          "name": "",
          "type": "uint256"
        }
      ],
      "name": "uri",
      "outputs": [
        {
          "name": "",
          "type": "string"
        }
      ],
      "payable": false,
      "stateMutability": "view",
      "type": "function"
    },
    {
      "constant": false,
      "inputs": [
        {
          "name": "from",
          "type": "address"
        },
        {
          "name": "to",
          "type": "address"
        },
        {
          "name": "ids",
          "type": "uint256[]"
        },
        {
          "name": "amounts",
          "type": "uint256[]"
        },
        {
          "name": "data",
          "type": "bytes"
        }
      ],
      "name": "safeBatchTransferFrom",
      "outputs": [],
      "payable": false,
      "stateMutability": "nonpayable",
      "type": "function"
    },
    {
      "constant": true,
      "inputs": [
        {
          "name": "accounts",
          "type": "address[]"
        },
        {
          "name": "ids",
          "type": "uint256[]"
        }
      ],
      "name": "balanceOfBatch",
      "outputs": [
        {
          "name": "",
          "type": "uint256[]"
        }
      ],
      "payable": false,
      "stateMutability": "view",
      "type": "function"
    },
    {
      "constant": false,
      "inputs": [
        {
          "name": "account",
          "type": "address"
        },
        {
          "name": "ids",
          "type": "uint256[]"
        },
        {
          "name": "values",
          "type": "uint256[]"
        }
      ],
      "name": "burnBatch",
      "outputs": [],
      "payable": false,
      "stateMutability": "nonpayable",
      "type": "function"
    },
    {
      "constant": false,
      "inputs": [
        {
          "name": "operator",
          "type": "address"
        },
        {
          "name": "approved",
          "type": "bool"
        }
      ],
      "name": "setApprovalForAll",
      "outputs": [],
      "payable": false,
      "stateMutability": "nonpayable",
      "type": "function"
    },
    {
      "constant": true,
      "inputs": [
        {
          "name": "_tokenId",
          "type": "uint256"
        }
      ],
      "name": "totalSupply",
      "outputs": [
        {
          "name": "",
          "type": "uint256"
        }
      ],
      "payable": false,
      "stateMutability": "view",
      "type": "function"
    },
    {
      "constant": true,
      "inputs": [
        {
          "name": "account",
          "type": "address"
        },
        {
          "name": "operator",
          "type": "address"
        }
      ],
      "name": "isApprovedForAll",
      "outputs": [
        {
          "name": "",
          "type": "bool"
        }
      ],
      "payable": false,
      "stateMutability": "view",
      "type": "function"
    },
    {
      "constant": false,
      "inputs": [
        {
          "name": "from",
          "type": "address"
        },
        {
          "name": "to",
          "type": "address"
        },
        {
          "name": "id",
          "type": "uint256"
        },
        {
          "name": "amount",
          "type": "uint256"
        },
        {
          "name": "data",
          "type": "bytes"
        }
      ],
      "name": "safeTransferFrom",
      "outputs": [],
      "payable": false,
      "stateMutability": "nonpayable",
      "type": "function"
    },
    {
      "constant": false,
      "inputs": [
        {
          "name": "account",
          "type": "address"
        },
        {
          "name": "id",
          "type": "uint256"
        },
        {
          "name": "value",
          "type": "uint256"
        }
      ],
      "name": "burn",
      "outputs": [],
      "payable": false,
      "stateMutability": "nonpayable",
      "type": "function"
    },
    {
      "inputs": [
        {
          "name": "uri",
          "type": "string"
        }
      ],
      "payable": false,
      "stateMutability": "nonpayable",
      "type": "constructor"
    },
    {
      "anonymous": false,
      "inputs": [
        {
          "indexed": true,
          "name": "operator",
          "type": "address"
        },
        {
          "indexed": true,
          "name": "from",
          "type": "address"
        },
        {
          "indexed": true,
          "name": "to",
          "type": "address"
        },
        {
          "indexed": false,
          "name": "id",
          "type": "uint256"
        },
        {
          "indexed": false,
          "name": "value",
          "type": "uint256"
        }
      ],
      "name": "TransferSingle",
      "type": "event"
    },
    {
      "anonymous": false,
      "inputs": [
        {
          "indexed": true,
          "name": "operator",
          "type": "address"
        },
        {
          "indexed": true,
          "name": "from",
          "type": "address"
        },
        {
          "indexed": true,
          "name": "to",
          "type": "address"
        },
        {
          "indexed": false,
          "name": "ids",
          "type": "uint256[]"
        },
        {
          "indexed": false,
          "name": "values",
          "type": "uint256[]"
        }
      ],
      "name": "TransferBatch",
      "type": "event"
    },
    {
      "anonymous": false,
      "inputs": [
        {
          "indexed": true,
          "name": "account",
          "type": "address"
        },
        {
          "indexed": true,
          "name": "operator",
          "type": "address"
        },
        {
          "indexed": false,
          "name": "approved",
          "type": "bool"
        }
      ],
      "name": "ApprovalForAll",
      "type": "event"
    },
    {
      "anonymous": false,
      "inputs": [
        {
          "indexed": false,
          "name": "value",
          "type": "string"
        },
        {
          "indexed": true,
          "name": "id",
          "type": "uint256"
        }
      ],
      "name": "URI",
      "type": "event"
    },
    {
      "constant": false,
      "inputs": [
        {
          "name": "to",
          "type": "address"
        },
        {
          "name": "id",
          "type": "uint256"
        },
        {
          "name": "value",
          "type": "uint256"
        },
        {
          "name": "data",
          "type": "bytes"
        }
      ],
      "name": "mint",
      "outputs": [],
      "payable": false,
      "stateMutability": "nonpayable",
      "type": "function"
    }
  ],
  "bytecode": "0x60806040523480156200001157600080fd5b50604051620027da380380620027da833981018060405260208110156200003757600080fd5b8101908080516401000000008111156200005057600080fd5b820160208101848111156200006457600080fd5b81516401000000008111828201871017156200007f57600080fd5b505092919050505080620000a06301ffc9a760e01b6200010160201b60201c565b620000b181620001d060201b60201c565b620000c9636433ca1f60e01b6200010160201b60201c565b620000e1630e89341c60e01b6200010160201b60201c565b50620000fa639e094e9e60e01b6200010160201b60201c565b506200028e565b7fffffffff0000000000000000000000000000000000000000000000000000000080821614156200019357604080517f08c379a000000000000000000000000000000000000000000000000000000000815260206004820152601b60248201527f4b495031333a20696e76616c696420696e746572666163652069640000000000604482015290519081900360640190fd5b7fffffffff00000000000000000000000000000000000000000000000000000000166000908152602081905260409020805460ff19166001179055565b8051620001e5906004906020840190620001e9565b5050565b828054600181600116156101000203166002900490600052602060002090601f016020900481019282601f106200022c57805160ff19168380011785556200025c565b828001600101855582156200025c579182015b828111156200025c5782518255916020019190600101906200023f565b506200026a9291506200026e565b5090565b6200028b91905b808211156200026a576000815560010162000275565b90565b61253c806200029e6000396000f3fe608060405234801561001057600080fd5b50600436106100b35760003560e01c8063731133e911610071578063731133e91461062c578063a22cb465146106ec578063bd85b0391461071a578063e985e9c514610737578063f242432a14610765578063f5298aca1461082e576100b3565b8062fdd58e146100b857806301ffc9a7146100f65780630e89341c146101315780632eb2c2d6146101c35780634e1273f4146103865780636b20c454146104f9575b600080fd5b6100e4600480360360408110156100ce57600080fd5b506001600160a01b038135169060200135610860565b60408051918252519081900360200190f35b61011d6004803603602081101561010c57600080fd5b50356001600160e01b0319166108d2565b604080519115158252519081900360200190f35b61014e6004803603602081101561014757600080fd5b50356108f1565b6040805160208082528351818301528351919283929083019185019080838360005b83811015610188578181015183820152602001610170565b50505050905090810190601f1680156101b55780820380516001836020036101000a031916815260200191505b509250505060405180910390f35b610384600480360360a08110156101d957600080fd5b6001600160a01b038235811692602081013590911691810190606081016040820135600160201b81111561020c57600080fd5b82018360208201111561021e57600080fd5b803590602001918460208302840111600160201b8311171561023f57600080fd5b9190808060200260200160405190810160405280939291908181526020018383602002808284376000920191909152509295949360208101935035915050600160201b81111561028e57600080fd5b8201836020820111156102a057600080fd5b803590602001918460208302840111600160201b831117156102c157600080fd5b9190808060200260200160405190810160405280939291908181526020018383602002808284376000920191909152509295949360208101935035915050600160201b81111561031057600080fd5b82018360208201111561032257600080fd5b803590602001918460018302840111600160201b8311171561034357600080fd5b91908080601f016020809104026020016040519081016040528093929190818152602001838380828437600092019190915250929550610989945050505050565b005b6104a96004803603604081101561039c57600080fd5b810190602081018135600160201b8111156103b657600080fd5b8201836020820111156103c857600080fd5b803590602001918460208302840111600160201b831117156103e957600080fd5b9190808060200260200160405190810160405280939291908181526020018383602002808284376000920191909152509295949360208101935035915050600160201b81111561043857600080fd5b82018360208201111561044a57600080fd5b803590602001918460208302840111600160201b8311171561046b57600080fd5b919080806020026020016040519081016040528093929190818152602001838360200280828437600092019190915250929550610cce945050505050565b60408051602080825283518183015283519192839290830191858101910280838360005b838110156104e55781810151838201526020016104cd565b505050509050019250505060405180910390f35b6103846004803603606081101561050f57600080fd5b6001600160a01b038235169190810190604081016020820135600160201b81111561053957600080fd5b82018360208201111561054b57600080fd5b803590602001918460208302840111600160201b8311171561056c57600080fd5b9190808060200260200160405190810160405280939291908181526020018383602002808284376000920191909152509295949360208101935035915050600160201b8111156105bb57600080fd5b8201836020820111156105cd57600080fd5b803590602001918460208302840111600160201b831117156105ee57600080fd5b919080806020026020016040519081016040528093929190818152602001838360200280828437600092019190915250929550610e3b945050505050565b6103846004803603608081101561064257600080fd5b6001600160a01b038235169160208101359160408201359190810190608081016060820135600160201b81111561067857600080fd5b82018360208201111561068a57600080fd5b803590602001918460018302840111600160201b831117156106ab57600080fd5b91908080601f016020809104026020016040519081016040528093929190818152602001838380828437600092019190915250929550610eb7945050505050565b6103846004803603604081101561070257600080fd5b506001600160a01b0381351690602001351515610ec9565b6100e46004803603602081101561073057600080fd5b5035610fbb565b61011d6004803603604081101561074d57600080fd5b506001600160a01b0381358116916020013516610fcd565b610384600480360360a081101561077b57600080fd5b6001600160a01b03823581169260208101359091169160408201359160608101359181019060a081016080820135600160201b8111156107ba57600080fd5b8201836020820111156107cc57600080fd5b803590602001918460018302840111600160201b831117156107ed57600080fd5b91908080601f016020809104026020016040519081016040528093929190818152602001838380828437600092019190915250929550610ffb945050505050565b6103846004803603606081101561084457600080fd5b506001600160a01b038135169060208101359060400135611210565b60006001600160a01b0383166108aa57604051600160e51b62461bcd02815260040180806020018281038252602981526020018061233d6029913960400191505060405180910390fd5b5060009081526001602090815260408083206001600160a01b03949094168352929052205490565b6001600160e01b03191660009081526020819052604090205460ff1690565b60048054604080516020601f600260001961010060018816150201909516949094049384018190048102820181019092528281526060939092909183018282801561097d5780601f106109525761010080835404028352916020019161097d565b820191906000526020600020905b81548152906001019060200180831161096057829003601f168201915b50505050509050919050565b81518351146109cc57604051600160e51b62461bcd02815260040180806020018281038252602681526020018061238d6026913960400191505060405180910390fd5b6001600160a01b038416610a1457604051600160e51b62461bcd0281526004018080602001828103825260238152602001806124896023913960400191505060405180910390fd5b610a1c611287565b6001600160a01b0316856001600160a01b03161480610a475750610a4785610a42611287565b610fcd565b610a8557604051600160e51b62461bcd0281526004018080602001828103825260308152602001806123b36030913960400191505060405180910390fd5b6000610a8f611287565b9050610a9f818787878787610cc6565b60005b8451811015610ba0576000858281518110610ab957fe5b602002602001015190506000858381518110610ad157fe5b60200260200101519050610b3e816040518060600160405280602881526020016123e3602891396001600086815260200190815260200160002060008d6001600160a01b03166001600160a01b031681526020019081526020016000205461128b9092919063ffffffff16565b60008381526001602090815260408083206001600160a01b038e811685529252808320939093558a1681522054610b759082611325565b60009283526001602081815260408086206001600160a01b038d168752909152909320555001610aa2565b50846001600160a01b0316866001600160a01b0316826001600160a01b03167f4a39dc06d4c0dbc64b70af90fd698a233a518aa5d07e595d983b8c0526c8f7fb8787604051808060200180602001838103835285818151815260200191508051906020019060200280838360005b83811015610c26578181015183820152602001610c0e565b50505050905001838103825284818151815260200191508051906020019060200280838360005b83811015610c65578181015183820152602001610c4d565b5050505090500194505050505060405180910390a4610c88818787878787611389565b610cc657604051600160e51b62461bcd0281526004018080602001828103825260368152602001806124ac6036913960400191505060405180910390fd5b505050505050565b60608151835114610d1357604051600160e51b62461bcd0281526004018080602001828103825260278152602001806122d36027913960400191505060405180910390fd5b60608351604051908082528060200260200182016040528015610d40578160200160208202803883390190505b50905060005b8451811015610e335760006001600160a01b0316858281518110610d6657fe5b60200260200101516001600160a01b03161415610db757604051600160e51b62461bcd02815260040180806020018281038252602f8152602001806124e2602f913960400191505060405180910390fd5b60016000858381518110610dc757fe5b602002602001015181526020019081526020016000206000868381518110610deb57fe5b60200260200101516001600160a01b03166001600160a01b0316815260200190815260200160002054828281518110610e2057fe5b6020908102919091010152600101610d46565b509392505050565b610e43611287565b6001600160a01b0316836001600160a01b03161480610e695750610e6983610a42611287565b610ea757604051600160e51b62461bcd0281526004018080602001828103825260278152602001806124626027913960400191505060405180910390fd5b610eb283838361187c565b505050565b610ec384848484611b8d565b50505050565b816001600160a01b0316610edb611287565b6001600160a01b03161415610f2457604051600160e51b62461bcd02815260040180806020018281038252602781526020018061240b6027913960400191505060405180910390fd5b8060026000610f31611287565b6001600160a01b03908116825260208083019390935260409182016000908120918716808252919093529120805460ff191692151592909217909155610f75611287565b60408051841515815290516001600160a01b0392909216917f17307eab39ab6107e8899845ad3d59bd9653f200f220920489ca2b5937696c319181900360200190a35050565b60009081526003602052604090205490565b6001600160a01b03918216600090815260026020908152604080832093909416825291909152205460ff1690565b6001600160a01b03841661104357604051600160e51b62461bcd0281526004018080602001828103825260238152602001806124896023913960400191505060405180910390fd5b61104b611287565b6001600160a01b0316856001600160a01b03161480611071575061107185610a42611287565b6110af57604051600160e51b62461bcd0281526004018080602001828103825260278152602001806124626027913960400191505060405180910390fd5b60006110b9611287565b90506110d98187876110ca88611d2a565b6110d388611d2a565b87610cc6565b611126836040518060600160405280602881526020016123e36028913960008781526001602090815260408083206001600160a01b038d168452909152902054919063ffffffff61128b16565b60008581526001602090815260408083206001600160a01b038b8116855292528083209390935587168152205461115d9084611325565b60008581526001602090815260408083206001600160a01b03808b168086529184529382902094909455805188815291820187905280518a8416938616927fc3d58168c5ae7397731d063d5bbf3d657854427343f4c083240f7aacaa2d0f6292908290030190a46111d2818787878787611d6e565b610cc657604051600160e51b62461bcd0281526004018080602001828103825260308152602001806124326030913960400191505060405180910390fd5b611218611287565b6001600160a01b0316836001600160a01b0316148061123e575061123e83610a42611287565b61127c57604051600160e51b62461bcd0281526004018080602001828103825260278152602001806124626027913960400191505060405180910390fd5b610eb283838361213a565b3390565b6000818484111561131d57604051600160e51b62461bcd0281526004018080602001828103825283818151815260200191508051906020019080838360005b838110156112e25781810151838201526020016112ca565b50505050905090810190601f16801561130f5780820380516001836020036101000a031916815260200191505b509250505060405180910390fd5b505050900390565b6000828201838110156113825760408051600160e51b62461bcd02815260206004820152601b60248201527f536166654d6174683a206164646974696f6e206f766572666c6f770000000000604482015290519081900360640190fd5b9392505050565b60008060606113a0876001600160a01b03166122cc565b6113af57600192505050611872565b866001600160a01b031663bc197c8160e01b8a8a89898960405160240180866001600160a01b03166001600160a01b03168152602001856001600160a01b03166001600160a01b03168152602001806020018060200180602001848103845287818151815260200191508051906020019060200280838360005b83811015611441578181015183820152602001611429565b50505050905001848103835286818151815260200191508051906020019060200280838360005b83811015611480578181015183820152602001611468565b50505050905001848103825285818151815260200191508051906020019080838360005b838110156114bc5781810151838201526020016114a4565b50505050905090810190601f1680156114e95780820380516001836020036101000a031916815260200191505b5098505050505050505050604051602081830303815290604052906001600160e01b0319166020820180516001600160e01b0383818316178352505050506040518082805190602001908083835b602083106115565780518252601f199092019160209182019101611537565b6001836020036101000a0380198251168184511680821785525050505050509050019150506000604051808303816000865af19150503d80600081146115b8576040519150601f19603f3d011682016040523d82523d6000602084013e6115bd565b606091505b5080519193509150158015906115fd57508051600160e01b63bc197c810290602080840191908110156115ef57600080fd5b50516001600160e01b031916145b1561160d57600192505050611872565b866001600160a01b0316639b49e33260e01b8a8a89898960405160240180866001600160a01b03166001600160a01b03168152602001856001600160a01b03166001600160a01b03168152602001806020018060200180602001848103845287818151815260200191508051906020019060200280838360005b8381101561169f578181015183820152602001611687565b50505050905001848103835286818151815260200191508051906020019060200280838360005b838110156116de5781810151838201526020016116c6565b50505050905001848103825285818151815260200191508051906020019080838360005b8381101561171a578181015183820152602001611702565b50505050905090810190601f1680156117475780820380516001836020036101000a031916815260200191505b5098505050505050505050604051602081830303815290604052906001600160e01b0319166020820180516001600160e01b0383818316178352505050506040518082805190602001908083835b602083106117b45780518252601f199092019160209182019101611795565b6001836020036101000a0380198251168184511680821785525050505050509050019150506000604051808303816000865af19150503d8060008114611816576040519150601f19603f3d011682016040523d82523d6000602084013e61181b565b606091505b50805191935091501580159061185b57508051600160e11b634da4f19902906020808401919081101561184d57600080fd5b50516001600160e01b031916145b1561186b57600192505050611872565b6000925050505b9695505050505050565b6001600160a01b0383166118c457604051600160e51b62461bcd02815260040180806020018281038252602181526020018061231c6021913960400191505060405180910390fd5b805182511461190757604051600160e51b62461bcd02815260040180806020018281038252602681526020018061238d6026913960400191505060405180910390fd5b6000611911611287565b905061193181856000868660405180602001604052806000815250610cc6565b60005b8351811015611aac576119c683828151811061194c57fe5b60200260200101516040518060600160405280602281526020016122fa602291396001600088868151811061197d57fe5b602002602001015181526020019081526020016000206000896001600160a01b03166001600160a01b031681526020019081526020016000205461128b9092919063ffffffff16565b600160008684815181106119d657fe5b602002602001015181526020019081526020016000206000876001600160a01b03166001600160a01b0316815260200190815260200160002081905550611a79838281518110611a2257fe5b60200260200101516040518060600160405280602781526020016123666027913960036000888681518110611a5357fe5b602002602001015181526020019081526020016000205461128b9092919063ffffffff16565b60036000868481518110611a8957fe5b602090810291909101810151825281019190915260400160002055600101611934565b5060006001600160a01b0316846001600160a01b0316826001600160a01b03167f4a39dc06d4c0dbc64b70af90fd698a233a518aa5d07e595d983b8c0526c8f7fb8686604051808060200180602001838103835285818151815260200191508051906020019060200280838360005b83811015611b33578181015183820152602001611b1b565b50505050905001838103825284818151815260200191508051906020019060200280838360005b83811015611b72578181015183820152602001611b5a565b5050505090500194505050505060405180910390a450505050565b6001600160a01b038416611beb5760408051600160e51b62461bcd02815260206004820152601f60248201527f4b495033373a206d696e7420746f20746865207a65726f206164647265737300604482015290519081900360640190fd5b6000611bf5611287565b9050611c07816000876110ca88611d2a565b60008481526001602090815260408083206001600160a01b0389168452909152902054611c3a908463ffffffff61132516565b60008581526001602090815260408083206001600160a01b038a168452825280832093909355868252600390522054611c79908463ffffffff61132516565b600085815260036020908152604080832093909355825187815290810186905282516001600160a01b03808a1694908616927fc3d58168c5ae7397731d063d5bbf3d657854427343f4c083240f7aacaa2d0f62929081900390910190a4611ce581600087878787611d6e565b611d2357604051600160e51b62461bcd0281526004018080602001828103825260308152602001806124326030913960400191505060405180910390fd5b5050505050565b604080516001808252818301909252606091829190602080830190803883390190505090508281600081518110611d5d57fe5b602090810291909101015292915050565b6000806060611d85876001600160a01b03166122cc565b611d9457600192505050611872565b866001600160a01b031663f23a6e6160e01b8a8a89898960405160240180866001600160a01b03166001600160a01b03168152602001856001600160a01b03166001600160a01b0316815260200184815260200183815260200180602001828103825283818151815260200191508051906020019080838360005b83811015611e27578181015183820152602001611e0f565b50505050905090810190601f168015611e545780820380516001836020036101000a031916815260200191505b509650505050505050604051602081830303815290604052906001600160e01b0319166020820180516001600160e01b0383818316178352505050506040518082805190602001908083835b60208310611ebf5780518252601f199092019160209182019101611ea0565b6001836020036101000a0380198251168184511680821785525050505050509050019150506000604051808303816000865af19150503d8060008114611f21576040519150601f19603f3d011682016040523d82523d6000602084013e611f26565b606091505b508051919350915015801590611f6657508051600160e01b63f23a6e61029060208084019190811015611f5857600080fd5b50516001600160e01b031916145b15611f7657600192505050611872565b866001600160a01b031663e78b332560e01b8a8a89898960405160240180866001600160a01b03166001600160a01b03168152602001856001600160a01b03166001600160a01b0316815260200184815260200183815260200180602001828103825283818151815260200191508051906020019080838360005b83811015612009578181015183820152602001611ff1565b50505050905090810190601f1680156120365780820380516001836020036101000a031916815260200191505b509650505050505050604051602081830303815290604052906001600160e01b0319166020820180516001600160e01b0383818316178352505050506040518082805190602001908083835b602083106120a15780518252601f199092019160209182019101612082565b6001836020036101000a0380198251168184511680821785525050505050509050019150506000604051808303816000865af19150503d8060008114612103576040519150601f19603f3d011682016040523d82523d6000602084013e612108565b606091505b50805191935091501580159061185b57508051600160e01b63e78b332502906020808401919081101561184d57600080fd5b6001600160a01b03831661218257604051600160e51b62461bcd02815260040180806020018281038252602181526020018061231c6021913960400191505060405180910390fd5b600061218c611287565b90506121bc8185600061219e87611d2a565b6121a787611d2a565b60405180602001604052806000815250610cc6565b612209826040518060600160405280602281526020016122fa6022913960008681526001602090815260408083206001600160a01b038b168452909152902054919063ffffffff61128b16565b60008481526001602090815260408083206001600160a01b0389168452825291829020929092558051606081019091526027808252612269928592919061236690830139600086815260036020526040902054919063ffffffff61128b16565b6000848152600360209081526040808320939093558251868152908101859052825191926001600160a01b0388811693908616927fc3d58168c5ae7397731d063d5bbf3d657854427343f4c083240f7aacaa2d0f6292908290030190a450505050565b3b15159056fe4b495033373a206163636f756e747320616e6420696473206c656e677468206d69736d617463684b495033373a206275726e20616d6f756e7420657863656564732062616c616e63654b495033373a206275726e2066726f6d20746865207a65726f20616464726573734b495033373a2062616c616e636520717565727920666f7220746865207a65726f20616464726573734b495033373a206275726e20616d6f756e74206578636565647320746f74616c20737570706c794b495033373a2069647320616e6420616d6f756e7473206c656e677468206d69736d617463684b495033373a207472616e736665722063616c6c6572206973206e6f74206f776e6572206e6f7220617070726f7665644b495033373a20696e73756666696369656e742062616c616e636520666f72207472616e736665724b495033373a2073657474696e6720617070726f76616c2073746174757320666f722073656c664b495033373a207472616e7366657220746f206e6f6e204b49503337526563656976657220696d706c656d656e7465724b495033373a2063616c6c6572206973206e6f74206f776e6572206e6f7220617070726f7665644b495033373a207472616e7366657220746f20746865207a65726f20616464726573734b495033373a206261746368207472616e7366657220746f206e6f6e204b49503337526563656976657220696d706c656d656e7465724b495033373a2062617463682062616c616e636520717565727920666f7220746865207a65726f2061646472657373a165627a7a72305820c4a123f1011e3a72f456b1b5a7a0253635ea204ad0b7024768ae385b3da052ee0029",
  "source": "// SPDX-License-Identifier: MIT\n\npragma solidity ^0.5.0;\n\nimport \"../token/KIP37/KIP37Burnable.sol\";\n\ncontract KIP37BurnableMock is KIP37Burnable {\n    constructor(string memory uri) public KIP37(uri) { }\n\n    function mint(address to, uint256 id, uint256 value, bytes memory data) public {\n        _mint(to, id, value, data);\n    }\n}\n",
  "sourcePath": "C:/Users/runde/Documents/Mint_Leo/src/contracts/klaytn-contracts/mocks/KIP37BurnableMock.sol",
  "compiler": {
    "name": "solc",
    "version": "0.5.6+commit.b259423e.Emscripten.clang"
  },
  "schemaVersion": "3.3.3",
  "updatedAt": "2022-02-25T08:53:57.190Z",
  "devdoc": {
    "methods": {
      "balanceOf(address,uint256)": {
        "details": "See {IKIP37-balanceOf}.     * Requirements:     * - `account` cannot be the zero address."
      },
      "balanceOfBatch(address[],uint256[])": {
        "details": "See {IKIP37-balanceOfBatch}.     * Requirements:     * - `accounts` and `ids` must have the same length."
      },
      "isApprovedForAll(address,address)": {
        "details": "See {IKIP37-isApprovedForAll}."
      },
      "safeBatchTransferFrom(address,address,uint256[],uint256[],bytes)": {
        "details": "See {IKIP37-safeBatchTransferFrom}."
      },
      "safeTransferFrom(address,address,uint256,uint256,bytes)": {
        "details": "See {IKIP37-safeTransferFrom}."
      },
      "setApprovalForAll(address,bool)": {
        "details": "See {IKIP37-setApprovalForAll}."
      },
      "supportsInterface(bytes4)": {
        "details": "See `IKIP13.supportsInterface`.     * Time complexity O(1), guaranteed to always use less than 30 000 gas."
      },
      "uri(uint256)": {
        "details": "See {IKIP37MetadataURI-uri}.     * This implementation returns the same URI for *all* token types. It relies on the token type ID substituion mechanism http://kips.klaytn.com/KIPs/kip-37#metadata     * Clients calling this function must replace the `\\{id\\}` substring with the actual token type ID."
      }
    }
  },
  "userdoc": {
    "methods": {}
  }
}