{
  "contractName": "KIP37PausableMock",
  "abi": [
    {
      "constant": true,
      "inputs": [
        {
          "name": "_id",
          "type": "uint256"
        }
      ],
      "name": "paused",
      "outputs": [
        {
          "name": "",
          "type": "bool"
        }
      ],
      "payable": false,
      "stateMutability": "view",
      "type": "function"
    },
    {
      "constant": true,
      "inputs": [
        {
          "name": "account",
          "type": "address"
        },
        {
          "name": "id",
          "type": "uint256"
        }
      ],
      "name": "balanceOf",
      "outputs": [
        {
          "name": "",
          "type": "uint256"
        }
      ],
      "payable": false,
      "stateMutability": "view",
      "type": "function"
    },
    {
      "constant": true,
      "inputs": [
        {
          "name": "interfaceId",
          "type": "bytes4"
        }
      ],
      "name": "supportsInterface",
      "outputs": [
        {
          "name": "",
          "type": "bool"
        }
      ],
      "payable": false,
      "stateMutability": "view",
      "type": "function"
    },
    {
      "constant": false,
      "inputs": [
        {
          "name": "newuri",
          "type": "string"
        }
      ],
      "name": "setURI",
      "outputs": [],
      "payable": false,
      "stateMutability": "nonpayable",
      "type": "function"
    },
    {
      "constant": true,
      "inputs": [
        {
          "name": "",
          "type": "uint256"
        }
      ],
      "name": "uri",
      "outputs": [
        {
          "name": "",
          "type": "string"
        }
      ],
      "payable": false,
      "stateMutability": "view",
      "type": "function"
    },
    {
      "constant": false,
      "inputs": [
        {
          "name": "_id",
          "type": "uint256"
        }
      ],
      "name": "pause",
      "outputs": [],
      "payable": false,
      "stateMutability": "nonpayable",
      "type": "function"
    },
    {
      "constant": false,
      "inputs": [
        {
          "name": "to",
          "type": "address"
        },
        {
          "name": "ids",
          "type": "uint256[]"
        },
        {
          "name": "values",
          "type": "uint256[]"
        },
        {
          "name": "data",
          "type": "bytes"
        }
      ],
      "name": "mintBatch",
      "outputs": [],
      "payable": false,
      "stateMutability": "nonpayable",
      "type": "function"
    },
    {
      "constant": false,
      "inputs": [
        {
          "name": "from",
          "type": "address"
        },
        {
          "name": "to",
          "type": "address"
        },
        {
          "name": "ids",
          "type": "uint256[]"
        },
        {
          "name": "amounts",
          "type": "uint256[]"
        },
        {
          "name": "data",
          "type": "bytes"
        }
      ],
      "name": "safeBatchTransferFrom",
      "outputs": [],
      "payable": false,
      "stateMutability": "nonpayable",
      "type": "function"
    },
    {
      "constant": false,
      "inputs": [],
      "name": "unpause",
      "outputs": [],
      "payable": false,
      "stateMutability": "nonpayable",
      "type": "function"
    },
    {
      "constant": true,
      "inputs": [
        {
          "name": "account",
          "type": "address"
        }
      ],
      "name": "isPauser",
      "outputs": [
        {
          "name": "",
          "type": "bool"
        }
      ],
      "payable": false,
      "stateMutability": "view",
      "type": "function"
    },
    {
      "constant": true,
      "inputs": [
        {
          "name": "accounts",
          "type": "address[]"
        },
        {
          "name": "ids",
          "type": "uint256[]"
        }
      ],
      "name": "balanceOfBatch",
      "outputs": [
        {
          "name": "",
          "type": "uint256[]"
        }
      ],
      "payable": false,
      "stateMutability": "view",
      "type": "function"
    },
    {
      "constant": true,
      "inputs": [],
      "name": "paused",
      "outputs": [
        {
          "name": "",
          "type": "bool"
        }
      ],
      "payable": false,
      "stateMutability": "view",
      "type": "function"
    },
    {
      "constant": false,
      "inputs": [
        {
          "name": "owner",
          "type": "address"
        },
        {
          "name": "ids",
          "type": "uint256[]"
        },
        {
          "name": "values",
          "type": "uint256[]"
        }
      ],
      "name": "burnBatch",
      "outputs": [],
      "payable": false,
      "stateMutability": "nonpayable",
      "type": "function"
    },
    {
      "constant": false,
      "inputs": [],
      "name": "renouncePauser",
      "outputs": [],
      "payable": false,
      "stateMutability": "nonpayable",
      "type": "function"
    },
    {
      "constant": false,
      "inputs": [
        {
          "name": "to",
          "type": "address"
        },
        {
          "name": "id",
          "type": "uint256"
        },
        {
          "name": "value",
          "type": "uint256"
        },
        {
          "name": "data",
          "type": "bytes"
        }
      ],
      "name": "mint",
      "outputs": [],
      "payable": false,
      "stateMutability": "nonpayable",
      "type": "function"
    },
    {
      "constant": false,
      "inputs": [
        {
          "name": "account",
          "type": "address"
        }
      ],
      "name": "addPauser",
      "outputs": [],
      "payable": false,
      "stateMutability": "nonpayable",
      "type": "function"
    },
    {
      "constant": false,
      "inputs": [],
      "name": "pause",
      "outputs": [],
      "payable": false,
      "stateMutability": "nonpayable",
      "type": "function"
    },
    {
      "constant": false,
      "inputs": [
        {
          "name": "operator",
          "type": "address"
        },
        {
          "name": "approved",
          "type": "bool"
        }
      ],
      "name": "setApprovalForAll",
      "outputs": [],
      "payable": false,
      "stateMutability": "nonpayable",
      "type": "function"
    },
    {
      "constant": true,
      "inputs": [
        {
          "name": "_tokenId",
          "type": "uint256"
        }
      ],
      "name": "totalSupply",
      "outputs": [
        {
          "name": "",
          "type": "uint256"
        }
      ],
      "payable": false,
      "stateMutability": "view",
      "type": "function"
    },
    {
      "constant": true,
      "inputs": [
        {
          "name": "account",
          "type": "address"
        },
        {
          "name": "operator",
          "type": "address"
        }
      ],
      "name": "isApprovedForAll",
      "outputs": [
        {
          "name": "",
          "type": "bool"
        }
      ],
      "payable": false,
      "stateMutability": "view",
      "type": "function"
    },
    {
      "constant": false,
      "inputs": [
        {
          "name": "from",
          "type": "address"
        },
        {
          "name": "to",
          "type": "address"
        },
        {
          "name": "id",
          "type": "uint256"
        },
        {
          "name": "amount",
          "type": "uint256"
        },
        {
          "name": "data",
          "type": "bytes"
        }
      ],
      "name": "safeTransferFrom",
      "outputs": [],
      "payable": false,
      "stateMutability": "nonpayable",
      "type": "function"
    },
    {
      "constant": false,
      "inputs": [
        {
          "name": "owner",
          "type": "address"
        },
        {
          "name": "id",
          "type": "uint256"
        },
        {
          "name": "value",
          "type": "uint256"
        }
      ],
      "name": "burn",
      "outputs": [],
      "payable": false,
      "stateMutability": "nonpayable",
      "type": "function"
    },
    {
      "constant": false,
      "inputs": [
        {
          "name": "_id",
          "type": "uint256"
        }
      ],
      "name": "unpause",
      "outputs": [],
      "payable": false,
      "stateMutability": "nonpayable",
      "type": "function"
    },
    {
      "inputs": [
        {
          "name": "uri",
          "type": "string"
        }
      ],
      "payable": false,
      "stateMutability": "nonpayable",
      "type": "constructor"
    },
    {
      "anonymous": false,
      "inputs": [
        {
          "indexed": false,
          "name": "tokenId",
          "type": "uint256"
        },
        {
          "indexed": false,
          "name": "account",
          "type": "address"
        }
      ],
      "name": "Paused",
      "type": "event"
    },
    {
      "anonymous": false,
      "inputs": [
        {
          "indexed": false,
          "name": "tokenId",
          "type": "uint256"
        },
        {
          "indexed": false,
          "name": "account",
          "type": "address"
        }
      ],
      "name": "Unpaused",
      "type": "event"
    },
    {
      "anonymous": false,
      "inputs": [
        {
          "indexed": false,
          "name": "account",
          "type": "address"
        }
      ],
      "name": "Paused",
      "type": "event"
    },
    {
      "anonymous": false,
      "inputs": [
        {
          "indexed": false,
          "name": "account",
          "type": "address"
        }
      ],
      "name": "Unpaused",
      "type": "event"
    },
    {
      "anonymous": false,
      "inputs": [
        {
          "indexed": true,
          "name": "account",
          "type": "address"
        }
      ],
      "name": "PauserAdded",
      "type": "event"
    },
    {
      "anonymous": false,
      "inputs": [
        {
          "indexed": true,
          "name": "account",
          "type": "address"
        }
      ],
      "name": "PauserRemoved",
      "type": "event"
    },
    {
      "anonymous": false,
      "inputs": [
        {
          "indexed": true,
          "name": "operator",
          "type": "address"
        },
        {
          "indexed": true,
          "name": "from",
          "type": "address"
        },
        {
          "indexed": true,
          "name": "to",
          "type": "address"
        },
        {
          "indexed": false,
          "name": "id",
          "type": "uint256"
        },
        {
          "indexed": false,
          "name": "value",
          "type": "uint256"
        }
      ],
      "name": "TransferSingle",
      "type": "event"
    },
    {
      "anonymous": false,
      "inputs": [
        {
          "indexed": true,
          "name": "operator",
          "type": "address"
        },
        {
          "indexed": true,
          "name": "from",
          "type": "address"
        },
        {
          "indexed": true,
          "name": "to",
          "type": "address"
        },
        {
          "indexed": false,
          "name": "ids",
          "type": "uint256[]"
        },
        {
          "indexed": false,
          "name": "values",
          "type": "uint256[]"
        }
      ],
      "name": "TransferBatch",
      "type": "event"
    },
    {
      "anonymous": false,
      "inputs": [
        {
          "indexed": true,
          "name": "account",
          "type": "address"
        },
        {
          "indexed": true,
          "name": "operator",
          "type": "address"
        },
        {
          "indexed": false,
          "name": "approved",
          "type": "bool"
        }
      ],
      "name": "ApprovalForAll",
      "type": "event"
    },
    {
      "anonymous": false,
      "inputs": [
        {
          "indexed": false,
          "name": "value",
          "type": "string"
        },
        {
          "indexed": true,
          "name": "id",
          "type": "uint256"
        }
      ],
      "name": "URI",
      "type": "event"
    }
  ],
  "bytecode": "0x60806040523480156200001157600080fd5b506040516200385538038062003855833981018060405260208110156200003757600080fd5b8101908080516401000000008111156200005057600080fd5b820160208101848111156200006457600080fd5b81516401000000008111828201871017156200007f57600080fd5b50509291905050508080620000a16301ffc9a760e01b6200013860201b60201c565b620000b2816200020760201b60201c565b620000ca636433ca1f60e01b6200013860201b60201c565b620000e2630e89341c60e01b6200013860201b60201c565b5050620000f5336200022060201b60201c565b6006805460ff19169055620001317f0e8ffdb70000000000000000000000000000000000000000000000000000000062000138602090811b901c565b506200043e565b7fffffffff000000000000000000000000000000000000000000000000000000008082161415620001ca57604080517f08c379a000000000000000000000000000000000000000000000000000000000815260206004820152601b60248201527f4b495031333a20696e76616c696420696e746572666163652069640000000000604482015290519081900360640190fd5b7fffffffff00000000000000000000000000000000000000000000000000000000166000908152602081905260409020805460ff19166001179055565b80516200021c90600490602084019062000399565b5050565b6200023b8160056200027260201b62002fa01790919060201c565b6040516001600160a01b038216907f6719d08c1888103bea251a4ed56406bd0c3e69723c8a1686e017e7bbe159b6f890600090a250565b6200028482826200031660201b60201c565b15620002f157604080517f08c379a000000000000000000000000000000000000000000000000000000000815260206004820152601f60248201527f526f6c65733a206163636f756e7420616c72656164792068617320726f6c6500604482015290519081900360640190fd5b6001600160a01b0316600090815260209190915260409020805460ff19166001179055565b60006001600160a01b03821662000379576040517f08c379a0000000000000000000000000000000000000000000000000000000008152600401808060200182810382526022815260200180620038336022913960400191505060405180910390fd5b506001600160a01b03166000908152602091909152604090205460ff1690565b828054600181600116156101000203166002900490600052602060002090601f016020900481019282601f10620003dc57805160ff19168380011785556200040c565b828001600101855582156200040c579182015b828111156200040c578251825591602001919060010190620003ef565b506200041a9291506200041e565b5090565b6200043b91905b808211156200041a576000815560010162000425565b90565b6133e5806200044e6000396000f3fe608060405234801561001057600080fd5b506004361061014b5760003560e01c80635c975abb116100c3578063a22cb4651161007c578063a22cb46514610a86578063bd85b03914610ab4578063e985e9c514610ad1578063f242432a14610aff578063f5298aca14610bc8578063fabc1cbc14610bfa5761014b565b80635c975abb146108555780636b20c4541461085d5780636ef8d66d14610990578063731133e91461099857806382dc1ec414610a585780638456cb5914610a7e5761014b565b8063136439dd11610115578063136439dd1461031e5780631f7fdffa1461033b5780632eb2c2d6146104f35780633f4ba83a146106b457806346fbf68e146106bc5780634e1273f4146106e25761014b565b8062dde10e14610150578062fdd58e1461018157806301ffc9a7146101bf57806302fe5305146101e65780630e89341c1461028c575b600080fd5b61016d6004803603602081101561016657600080fd5b5035610c17565b604080519115158252519081900360200190f35b6101ad6004803603604081101561019757600080fd5b506001600160a01b038135169060200135610c2c565b60408051918252519081900360200190f35b61016d600480360360208110156101d557600080fd5b50356001600160e01b031916610c9e565b61028a600480360360208110156101fc57600080fd5b810190602081018135600160201b81111561021657600080fd5b82018360208201111561022857600080fd5b803590602001918460018302840111600160201b8311171561024957600080fd5b91908080601f016020809104026020016040519081016040528093929190818152602001838380828437600092019190915250929550610cbd945050505050565b005b6102a9600480360360208110156102a257600080fd5b5035610cc9565b6040805160208082528351818301528351919283929083019185019080838360005b838110156102e35781810151838201526020016102cb565b50505050905090810190601f1680156103105780820380516001836020036101000a031916815260200191505b509250505060405180910390f35b61028a6004803603602081101561033457600080fd5b5035610d61565b61028a6004803603608081101561035157600080fd5b6001600160a01b038235169190810190604081016020820135600160201b81111561037b57600080fd5b82018360208201111561038d57600080fd5b803590602001918460208302840111600160201b831117156103ae57600080fd5b9190808060200260200160405190810160405280939291908181526020018383602002808284376000920191909152509295949360208101935035915050600160201b8111156103fd57600080fd5b82018360208201111561040f57600080fd5b803590602001918460208302840111600160201b8311171561043057600080fd5b9190808060200260200160405190810160405280939291908181526020018383602002808284376000920191909152509295949360208101935035915050600160201b81111561047f57600080fd5b82018360208201111561049157600080fd5b803590602001918460018302840111600160201b831117156104b257600080fd5b91908080601f016020809104026020016040519081016040528093929190818152602001838380828437600092019190915250929550610e69945050505050565b61028a600480360360a081101561050957600080fd5b6001600160a01b038235811692602081013590911691810190606081016040820135600160201b81111561053c57600080fd5b82018360208201111561054e57600080fd5b803590602001918460208302840111600160201b8311171561056f57600080fd5b9190808060200260200160405190810160405280939291908181526020018383602002808284376000920191909152509295949360208101935035915050600160201b8111156105be57600080fd5b8201836020820111156105d057600080fd5b803590602001918460208302840111600160201b831117156105f157600080fd5b9190808060200260200160405190810160405280939291908181526020018383602002808284376000920191909152509295949360208101935035915050600160201b81111561064057600080fd5b82018360208201111561065257600080fd5b803590602001918460018302840111600160201b8311171561067357600080fd5b91908080601f016020809104026020016040519081016040528093929190818152602001838380828437600092019190915250929550610e7b945050505050565b61028a6111c0565b61016d600480360360208110156106d257600080fd5b50356001600160a01b03166112a0565b610805600480360360408110156106f857600080fd5b810190602081018135600160201b81111561071257600080fd5b82018360208201111561072457600080fd5b803590602001918460208302840111600160201b8311171561074557600080fd5b9190808060200260200160405190810160405280939291908181526020018383602002808284376000920191909152509295949360208101935035915050600160201b81111561079457600080fd5b8201836020820111156107a657600080fd5b803590602001918460208302840111600160201b831117156107c757600080fd5b9190808060200260200160405190810160405280939291908181526020018383602002808284376000920191909152509295506112b9945050505050565b60408051602080825283518183015283519192839290830191858101910280838360005b83811015610841578181015183820152602001610829565b505050509050019250505060405180910390f35b61016d611426565b61028a6004803603606081101561087357600080fd5b6001600160a01b038235169190810190604081016020820135600160201b81111561089d57600080fd5b8201836020820111156108af57600080fd5b803590602001918460208302840111600160201b831117156108d057600080fd5b9190808060200260200160405190810160405280939291908181526020018383602002808284376000920191909152509295949360208101935035915050600160201b81111561091f57600080fd5b82018360208201111561093157600080fd5b803590602001918460208302840111600160201b8311171561095257600080fd5b919080806020026020016040519081016040528093929190818152602001838360200280828437600092019190915250929550611430945050505050565b61028a611440565b61028a600480360360808110156109ae57600080fd5b6001600160a01b038235169160208101359160408201359190810190608081016060820135600160201b8111156109e457600080fd5b8201836020820111156109f657600080fd5b803590602001918460018302840111600160201b83111715610a1757600080fd5b91908080601f01602080910402602001604051908101604052809392919081815260200183838082843760009201919091525092955061144b945050505050565b61028a60048036036020811015610a6e57600080fd5b50356001600160a01b0316611457565b61028a6114a7565b61028a60048036036040811015610a9c57600080fd5b506001600160a01b038135169060200135151561158b565b6101ad60048036036020811015610aca57600080fd5b503561167d565b61016d60048036036040811015610ae757600080fd5b506001600160a01b038135811691602001351661168f565b61028a600480360360a0811015610b1557600080fd5b6001600160a01b03823581169260208101359091169160408201359160608101359181019060a081016080820135600160201b811115610b5457600080fd5b820183602082011115610b6657600080fd5b803590602001918460018302840111600160201b83111715610b8757600080fd5b91908080601f0160208091040260200160405190810160405280939291908181526020018383808284376000920191909152509295506116bd945050505050565b61028a60048036036060811015610bde57600080fd5b506001600160a01b0381351690602081013590604001356118d2565b61028a60048036036020811015610c1057600080fd5b50356118dd565b60009081526007602052604090205460ff1690565b60006001600160a01b038316610c7657604051600160e51b62461bcd0281526004018080602001828103825260298152602001806131576029913960400191505060405180910390fd5b5060009081526001602090815260408083206001600160a01b03949094168352929052205490565b6001600160e01b03191660009081526020819052604090205460ff1690565b610cc6816119e6565b50565b60048054604080516020601f6002600019610100600188161502019095169490940493840181900481028201810190925282815260609390929091830182828015610d555780601f10610d2a57610100808354040283529160200191610d55565b820191906000526020600020905b815481529060010190602001808311610d3857829003601f168201915b50505050509050919050565b610d6a336112a0565b610da857604051600160e51b62461bcd0281526004018080602001828103825260308152602001806130e46030913960400191505060405180910390fd5b60008181526007602052604090205460ff1615610e0f5760408051600160e51b62461bcd02815260206004820152601d60248201527f4b495033375061757361626c653a20616c726561647920706175736564000000604482015290519081900360640190fd5b600081815260076020908152604091829020805460ff191660011790558151838152339181019190915281517fabdb1c9133626eb4f8c5f2ec7e3c60a969a2fb148a0c341a3cf6597242c8f8f5929181900390910190a150565b610e75848484846119fd565b50505050565b8151835114610ebe57604051600160e51b62461bcd0281526004018080602001828103825260268152602001806131a76026913960400191505060405180910390fd5b6001600160a01b038416610f0657604051600160e51b62461bcd0281526004018080602001828103825260238152602001806133106023913960400191505060405180910390fd5b610f0e611d19565b6001600160a01b0316856001600160a01b03161480610f395750610f3985610f34611d19565b61168f565b610f7757604051600160e51b62461bcd0281526004018080602001828103825260308152602001806131cd6030913960400191505060405180910390fd5b6000610f81611d19565b9050610f91818787878787611d1d565b60005b8451811015611092576000858281518110610fab57fe5b602002602001015190506000858381518110610fc357fe5b60200260200101519050611030816040518060600160405280602881526020016131fd602891396001600086815260200190815260200160002060008d6001600160a01b03166001600160a01b0316815260200190815260200160002054611d2b9092919063ffffffff16565b60008381526001602090815260408083206001600160a01b038e811685529252808320939093558a16815220546110679082611dc5565b60009283526001602081815260408086206001600160a01b038d168752909152909320555001610f94565b50846001600160a01b0316866001600160a01b0316826001600160a01b03167f4a39dc06d4c0dbc64b70af90fd698a233a518aa5d07e595d983b8c0526c8f7fb8787604051808060200180602001838103835285818151815260200191508051906020019060200280838360005b83811015611118578181015183820152602001611100565b50505050905001838103825284818151815260200191508051906020019060200280838360005b8381101561115757818101518382015260200161113f565b5050505090500194505050505060405180910390a461117a818787878787611e29565b6111b857604051600160e51b62461bcd0281526004018080602001828103825260368152602001806133336036913960400191505060405180910390fd5b505050505050565b6111c9336112a0565b61120757604051600160e51b62461bcd0281526004018080602001828103825260308152602001806130e46030913960400191505060405180910390fd5b60065460ff166112615760408051600160e51b62461bcd02815260206004820152601460248201527f5061757361626c653a206e6f7420706175736564000000000000000000000000604482015290519081900360640190fd5b6006805460ff191690556040805133815290517f5db9ee0a495bf2e6ff9c91a7834c1ba4fdd244a5e8aa4e537bd38aeae4b073aa9181900360200190a1565b60006112b360058363ffffffff61231c16565b92915050565b606081518351146112fe57604051600160e51b62461bcd0281526004018080602001828103825260278152602001806130bd6027913960400191505060405180910390fd5b6060835160405190808252806020026020018201604052801561132b578160200160208202803883390190505b50905060005b845181101561141e5760006001600160a01b031685828151811061135157fe5b60200260200101516001600160a01b031614156113a257604051600160e51b62461bcd02815260040180806020018281038252602f815260200180613369602f913960400191505060405180910390fd5b600160008583815181106113b257fe5b6020026020010151815260200190815260200160002060008683815181106113d657fe5b60200260200101516001600160a01b03166001600160a01b031681526020019081526020016000205482828151811061140b57fe5b6020908102919091010152600101611331565b509392505050565b60065460ff165b90565b61143b838383612386565b505050565b61144933612697565b565b610e75848484846126df565b611460336112a0565b61149e57604051600160e51b62461bcd0281526004018080602001828103825260308152602001806130e46030913960400191505060405180910390fd5b610cc681612875565b6114b0336112a0565b6114ee57604051600160e51b62461bcd0281526004018080602001828103825260308152602001806130e46030913960400191505060405180910390fd5b60065460ff16156115495760408051600160e51b62461bcd02815260206004820152601060248201527f5061757361626c653a2070617573656400000000000000000000000000000000604482015290519081900360640190fd5b6006805460ff191660011790556040805133815290517f62e78cea01bee320cd4e420270b5ea74000d11b0c9f74754ebdbfc544b05a2589181900360200190a1565b816001600160a01b031661159d611d19565b6001600160a01b031614156115e657604051600160e51b62461bcd0281526004018080602001828103825260278152602001806132706027913960400191505060405180910390fd5b80600260006115f3611d19565b6001600160a01b03908116825260208083019390935260409182016000908120918716808252919093529120805460ff191692151592909217909155611637611d19565b60408051841515815290516001600160a01b0392909216917f17307eab39ab6107e8899845ad3d59bd9653f200f220920489ca2b5937696c319181900360200190a35050565b60009081526003602052604090205490565b6001600160a01b03918216600090815260026020908152604080832093909416825291909152205460ff1690565b6001600160a01b03841661170557604051600160e51b62461bcd0281526004018080602001828103825260238152602001806133106023913960400191505060405180910390fd5b61170d611d19565b6001600160a01b0316856001600160a01b03161480611733575061173385610f34611d19565b61177157604051600160e51b62461bcd0281526004018080602001828103825260278152602001806132e96027913960400191505060405180910390fd5b600061177b611d19565b905061179b81878761178c886128bd565b611795886128bd565b87611d1d565b6117e8836040518060600160405280602881526020016131fd6028913960008781526001602090815260408083206001600160a01b038d168452909152902054919063ffffffff611d2b16565b60008581526001602090815260408083206001600160a01b038b8116855292528083209390935587168152205461181f9084611dc5565b60008581526001602090815260408083206001600160a01b03808b168086529184529382902094909455805188815291820187905280518a8416938616927fc3d58168c5ae7397731d063d5bbf3d657854427343f4c083240f7aacaa2d0f6292908290030190a4611894818787878787612901565b6111b857604051600160e51b62461bcd0281526004018080602001828103825260308152602001806132b96030913960400191505060405180910390fd5b61143b838383612ccd565b6118e6336112a0565b61192457604051600160e51b62461bcd0281526004018080602001828103825260308152602001806130e46030913960400191505060405180910390fd5b60008181526007602052604090205460ff16151560011461198f5760408051600160e51b62461bcd02815260206004820152601f60248201527f4b495033375061757361626c653a20616c726561647920756e70617573656400604482015290519081900360640190fd5b600081815260076020908152604091829020805460ff191690558151838152339181019190915281517ffe9b5e5216db9de81757f43d20f846bea509c040a560d136b8263dd8cd764238929181900390910190a150565b80516119f9906004906020840190613024565b5050565b6001600160a01b038416611a5b5760408051600160e51b62461bcd02815260206004820152601f60248201527f4b495033373a206d696e7420746f20746865207a65726f206164647265737300604482015290519081900360640190fd5b8151835114611a9e57604051600160e51b62461bcd0281526004018080602001828103825260268152602001806131a76026913960400191505060405180910390fd5b6000611aa8611d19565b9050611ab981600087878787611d1d565b60005b8451811015611bea57611b3460016000878481518110611ad857fe5b602002602001015181526020019081526020016000206000886001600160a01b03166001600160a01b0316815260200190815260200160002054858381518110611b1e57fe5b6020026020010151611dc590919063ffffffff16565b60016000878481518110611b4457fe5b602002602001015181526020019081526020016000206000886001600160a01b03166001600160a01b0316815260200190815260200160002081905550611bb760036000878481518110611b9457fe5b6020026020010151815260200190815260200160002054858381518110611b1e57fe5b60036000878481518110611bc757fe5b602090810291909101810151825281019190915260400160002055600101611abc565b50846001600160a01b031660006001600160a01b0316826001600160a01b03167f4a39dc06d4c0dbc64b70af90fd698a233a518aa5d07e595d983b8c0526c8f7fb8787604051808060200180602001838103835285818151815260200191508051906020019060200280838360005b83811015611c71578181015183820152602001611c59565b50505050905001838103825284818151815260200191508051906020019060200280838360005b83811015611cb0578181015183820152602001611c98565b5050505090500194505050505060405180910390a4611cd481600087878787611e29565b611d1257604051600160e51b62461bcd0281526004018080602001828103825260368152602001806133336036913960400191505060405180910390fd5b5050505050565b3390565b6111b8868686868686612e5f565b60008184841115611dbd57604051600160e51b62461bcd0281526004018080602001828103825283818151815260200191508051906020019080838360005b83811015611d82578181015183820152602001611d6a565b50505050905090810190601f168015611daf5780820380516001836020036101000a031916815260200191505b509250505060405180910390fd5b505050900390565b600082820183811015611e225760408051600160e51b62461bcd02815260206004820152601b60248201527f536166654d6174683a206164646974696f6e206f766572666c6f770000000000604482015290519081900360640190fd5b9392505050565b6000806060611e40876001600160a01b0316612f30565b611e4f57600192505050612312565b866001600160a01b031663bc197c8160e01b8a8a89898960405160240180866001600160a01b03166001600160a01b03168152602001856001600160a01b03166001600160a01b03168152602001806020018060200180602001848103845287818151815260200191508051906020019060200280838360005b83811015611ee1578181015183820152602001611ec9565b50505050905001848103835286818151815260200191508051906020019060200280838360005b83811015611f20578181015183820152602001611f08565b50505050905001848103825285818151815260200191508051906020019080838360005b83811015611f5c578181015183820152602001611f44565b50505050905090810190601f168015611f895780820380516001836020036101000a031916815260200191505b5098505050505050505050604051602081830303815290604052906001600160e01b0319166020820180516001600160e01b0383818316178352505050506040518082805190602001908083835b60208310611ff65780518252601f199092019160209182019101611fd7565b6001836020036101000a0380198251168184511680821785525050505050509050019150506000604051808303816000865af19150503d8060008114612058576040519150601f19603f3d011682016040523d82523d6000602084013e61205d565b606091505b50805191935091501580159061209d57508051600160e01b63bc197c8102906020808401919081101561208f57600080fd5b50516001600160e01b031916145b156120ad57600192505050612312565b866001600160a01b0316639b49e33260e01b8a8a89898960405160240180866001600160a01b03166001600160a01b03168152602001856001600160a01b03166001600160a01b03168152602001806020018060200180602001848103845287818151815260200191508051906020019060200280838360005b8381101561213f578181015183820152602001612127565b50505050905001848103835286818151815260200191508051906020019060200280838360005b8381101561217e578181015183820152602001612166565b50505050905001848103825285818151815260200191508051906020019080838360005b838110156121ba5781810151838201526020016121a2565b50505050905090810190601f1680156121e75780820380516001836020036101000a031916815260200191505b5098505050505050505050604051602081830303815290604052906001600160e01b0319166020820180516001600160e01b0383818316178352505050506040518082805190602001908083835b602083106122545780518252601f199092019160209182019101612235565b6001836020036101000a0380198251168184511680821785525050505050509050019150506000604051808303816000865af19150503d80600081146122b6576040519150601f19603f3d011682016040523d82523d6000602084013e6122bb565b606091505b5080519193509150158015906122fb57508051600160e11b634da4f1990290602080840191908110156122ed57600080fd5b50516001600160e01b031916145b1561230b57600192505050612312565b6000925050505b9695505050505050565b60006001600160a01b03821661236657604051600160e51b62461bcd0281526004018080602001828103825260228152602001806132976022913960400191505060405180910390fd5b506001600160a01b03166000908152602091909152604090205460ff1690565b6001600160a01b0383166123ce57604051600160e51b62461bcd0281526004018080602001828103825260218152602001806131366021913960400191505060405180910390fd5b805182511461241157604051600160e51b62461bcd0281526004018080602001828103825260268152602001806131a76026913960400191505060405180910390fd5b600061241b611d19565b905061243b81856000868660405180602001604052806000815250611d1d565b60005b83518110156125b6576124d083828151811061245657fe5b6020026020010151604051806060016040528060228152602001613114602291396001600088868151811061248757fe5b602002602001015181526020019081526020016000206000896001600160a01b03166001600160a01b0316815260200190815260200160002054611d2b9092919063ffffffff16565b600160008684815181106124e057fe5b602002602001015181526020019081526020016000206000876001600160a01b03166001600160a01b031681526020019081526020016000208190555061258383828151811061252c57fe5b6020026020010151604051806060016040528060278152602001613180602791396003600088868151811061255d57fe5b6020026020010151815260200190815260200160002054611d2b9092919063ffffffff16565b6003600086848151811061259357fe5b60209081029190910181015182528101919091526040016000205560010161243e565b5060006001600160a01b0316846001600160a01b0316826001600160a01b03167f4a39dc06d4c0dbc64b70af90fd698a233a518aa5d07e595d983b8c0526c8f7fb8686604051808060200180602001838103835285818151815260200191508051906020019060200280838360005b8381101561263d578181015183820152602001612625565b50505050905001838103825284818151815260200191508051906020019060200280838360005b8381101561267c578181015183820152602001612664565b5050505090500194505050505060405180910390a450505050565b6126a860058263ffffffff612f3616565b6040516001600160a01b038216907fcd265ebaf09df2871cc7bd4133404a235ba12eff2041bb89d9c714a2621c7c7e90600090a250565b6001600160a01b03841661273d5760408051600160e51b62461bcd02815260206004820152601f60248201527f4b495033373a206d696e7420746f20746865207a65726f206164647265737300604482015290519081900360640190fd5b6000612747611d19565b90506127598160008761178c886128bd565b60008481526001602090815260408083206001600160a01b038916845290915290205461278c908463ffffffff611dc516565b60008581526001602090815260408083206001600160a01b038a1684528252808320939093558682526003905220546127cb908463ffffffff611dc516565b600085815260036020908152604080832093909355825187815290810186905282516001600160a01b03808a1694908616927fc3d58168c5ae7397731d063d5bbf3d657854427343f4c083240f7aacaa2d0f62929081900390910190a461283781600087878787612901565b611d1257604051600160e51b62461bcd0281526004018080602001828103825260308152602001806132b96030913960400191505060405180910390fd5b61288660058263ffffffff612fa016565b6040516001600160a01b038216907f6719d08c1888103bea251a4ed56406bd0c3e69723c8a1686e017e7bbe159b6f890600090a250565b6040805160018082528183019092526060918291906020808301908038833901905050905082816000815181106128f057fe5b602090810291909101015292915050565b6000806060612918876001600160a01b0316612f30565b61292757600192505050612312565b866001600160a01b031663f23a6e6160e01b8a8a89898960405160240180866001600160a01b03166001600160a01b03168152602001856001600160a01b03166001600160a01b0316815260200184815260200183815260200180602001828103825283818151815260200191508051906020019080838360005b838110156129ba5781810151838201526020016129a2565b50505050905090810190601f1680156129e75780820380516001836020036101000a031916815260200191505b509650505050505050604051602081830303815290604052906001600160e01b0319166020820180516001600160e01b0383818316178352505050506040518082805190602001908083835b60208310612a525780518252601f199092019160209182019101612a33565b6001836020036101000a0380198251168184511680821785525050505050509050019150506000604051808303816000865af19150503d8060008114612ab4576040519150601f19603f3d011682016040523d82523d6000602084013e612ab9565b606091505b508051919350915015801590612af957508051600160e01b63f23a6e61029060208084019190811015612aeb57600080fd5b50516001600160e01b031916145b15612b0957600192505050612312565b866001600160a01b031663e78b332560e01b8a8a89898960405160240180866001600160a01b03166001600160a01b03168152602001856001600160a01b03166001600160a01b0316815260200184815260200183815260200180602001828103825283818151815260200191508051906020019080838360005b83811015612b9c578181015183820152602001612b84565b50505050905090810190601f168015612bc95780820380516001836020036101000a031916815260200191505b509650505050505050604051602081830303815290604052906001600160e01b0319166020820180516001600160e01b0383818316178352505050506040518082805190602001908083835b60208310612c345780518252601f199092019160209182019101612c15565b6001836020036101000a0380198251168184511680821785525050505050509050019150506000604051808303816000865af19150503d8060008114612c96576040519150601f19603f3d011682016040523d82523d6000602084013e612c9b565b606091505b5080519193509150158015906122fb57508051600160e01b63e78b33250290602080840191908110156122ed57600080fd5b6001600160a01b038316612d1557604051600160e51b62461bcd0281526004018080602001828103825260218152602001806131366021913960400191505060405180910390fd5b6000612d1f611d19565b9050612d4f81856000612d31876128bd565b612d3a876128bd565b60405180602001604052806000815250611d1d565b612d9c826040518060600160405280602281526020016131146022913960008681526001602090815260408083206001600160a01b038b168452909152902054919063ffffffff611d2b16565b60008481526001602090815260408083206001600160a01b0389168452825291829020929092558051606081019091526027808252612dfc928592919061318090830139600086815260036020526040902054919063ffffffff611d2b16565b6000848152600360209081526040808320939093558251868152908101859052825191926001600160a01b0388811693908616927fc3d58168c5ae7397731d063d5bbf3d657854427343f4c083240f7aacaa2d0f6292908290030190a450505050565b612e67611426565b15612ea657604051600160e51b62461bcd02815260040180806020018281038252602a815260200180613246602a913960400191505060405180910390fd5b60005b8351811015612f275760076000858381518110612ec257fe5b60209081029190910181015182528101919091526040016000205460ff1615612f1f57604051600160e51b62461bcd0281526004018080602001828103825260228152602001806133986022913960400191505060405180910390fd5b600101612ea9565b50505050505050565b3b151590565b612f40828261231c565b612f7e57604051600160e51b62461bcd0281526004018080602001828103825260218152602001806132256021913960400191505060405180910390fd5b6001600160a01b0316600090815260209190915260409020805460ff19169055565b612faa828261231c565b15612fff5760408051600160e51b62461bcd02815260206004820152601f60248201527f526f6c65733a206163636f756e7420616c72656164792068617320726f6c6500604482015290519081900360640190fd5b6001600160a01b0316600090815260209190915260409020805460ff19166001179055565b828054600181600116156101000203166002900490600052602060002090601f016020900481019282601f1061306557805160ff1916838001178555613092565b82800160010185558215613092579182015b82811115613092578251825591602001919060010190613077565b5061309e9291506130a2565b5090565b61142d91905b8082111561309e57600081556001016130a856fe4b495033373a206163636f756e747320616e6420696473206c656e677468206d69736d61746368506175736572526f6c653a2063616c6c657220646f6573206e6f742068617665207468652050617573657220726f6c654b495033373a206275726e20616d6f756e7420657863656564732062616c616e63654b495033373a206275726e2066726f6d20746865207a65726f20616464726573734b495033373a2062616c616e636520717565727920666f7220746865207a65726f20616464726573734b495033373a206275726e20616d6f756e74206578636565647320746f74616c20737570706c794b495033373a2069647320616e6420616d6f756e7473206c656e677468206d69736d617463684b495033373a207472616e736665722063616c6c6572206973206e6f74206f776e6572206e6f7220617070726f7665644b495033373a20696e73756666696369656e742062616c616e636520666f72207472616e73666572526f6c65733a206163636f756e7420646f6573206e6f74206861766520726f6c654b495033375061757361626c653a20746f6b656e207472616e73666572207768696c65207061757365644b495033373a2073657474696e6720617070726f76616c2073746174757320666f722073656c66526f6c65733a206163636f756e7420697320746865207a65726f20616464726573734b495033373a207472616e7366657220746f206e6f6e204b49503337526563656976657220696d706c656d656e7465724b495033373a2063616c6c6572206973206e6f74206f776e6572206e6f7220617070726f7665644b495033373a207472616e7366657220746f20746865207a65726f20616464726573734b495033373a206261746368207472616e7366657220746f206e6f6e204b49503337526563656976657220696d706c656d656e7465724b495033373a2062617463682062616c616e636520717565727920666f7220746865207a65726f20616464726573734b495033375061757361626c653a2074686520746f6b656e20697320706175736564a165627a7a723058201ebe9f22ff746bf2ce75f7735786f3153f74071b50aeeb0454158cc0a8dd082e0029526f6c65733a206163636f756e7420697320746865207a65726f2061646472657373",
  "source": "// SPDX-License-Identifier: MIT\n\npragma solidity ^0.5.0;\n\nimport \"./KIP37Mock.sol\";\nimport \"../token/KIP37/KIP37Pausable.sol\";\n\ncontract KIP37PausableMock is KIP37Mock, KIP37Pausable {\n    constructor(string memory uri) public KIP37Mock(uri) { }\n\n    function _beforeTokenTransfer(\n        address operator,\n        address from,\n        address to,\n        uint256[] memory ids,\n        uint256[] memory amounts,\n        bytes memory data\n    )\n        internal\n    {\n        super._beforeTokenTransfer(operator, from, to, ids, amounts, data);\n    }\n}\n",
  "sourcePath": "C:/Users/runde/Documents/Mint_Leo/src/contracts/klaytn-contracts/mocks/KIP37PausableMock.sol",
  "compiler": {
    "name": "solc",
    "version": "0.5.6+commit.b259423e.Emscripten.clang"
  },
  "schemaVersion": "3.3.3",
  "updatedAt": "2022-02-24T10:47:41.309Z",
  "devdoc": {
    "methods": {
      "balanceOf(address,uint256)": {
        "details": "See {IKIP37-balanceOf}.     * Requirements:     * - `account` cannot be the zero address."
      },
      "balanceOfBatch(address[],uint256[])": {
        "details": "See {IKIP37-balanceOfBatch}.     * Requirements:     * - `accounts` and `ids` must have the same length."
      },
      "isApprovedForAll(address,address)": {
        "details": "See {IKIP37-isApprovedForAll}."
      },
      "pause()": {
        "details": "Called by a pauser to pause, triggers stopped state."
      },
      "pause(uint256)": {
        "details": "Throws if `msg.sender` is not allowed to pause.   Throws if the specific token is paused."
      },
      "paused()": {
        "details": "Returns true if the contract is paused, and false otherwise."
      },
      "paused(uint256)": {
        "return": "True if the specific token is paused, false otherwise"
      },
      "safeBatchTransferFrom(address,address,uint256[],uint256[],bytes)": {
        "details": "See {IKIP37-safeBatchTransferFrom}."
      },
      "safeTransferFrom(address,address,uint256,uint256,bytes)": {
        "details": "See {IKIP37-safeTransferFrom}."
      },
      "setApprovalForAll(address,bool)": {
        "details": "See {IKIP37-setApprovalForAll}."
      },
      "supportsInterface(bytes4)": {
        "details": "See `IKIP13.supportsInterface`.     * Time complexity O(1), guaranteed to always use less than 30 000 gas."
      },
      "unpause()": {
        "details": "Called by a pauser to unpause, returns to normal state."
      },
      "unpause(uint256)": {
        "details": "Throws if `msg.sender` is not allowed to unpause.   Throws if the specific token is not paused."
      },
      "uri(uint256)": {
        "details": "See {IKIP37MetadataURI-uri}.     * This implementation returns the same URI for *all* token types. It relies on the token type ID substituion mechanism http://kips.klaytn.com/KIPs/kip-37#metadata     * Clients calling this function must replace the `\\{id\\}` substring with the actual token type ID."
      }
    }
  },
  "userdoc": {
    "methods": {
      "pause(uint256)": {
        "notice": "Pauses actions related to transfer and approval of the specific token."
      },
      "paused(uint256)": {
        "notice": "Checks whether the specific token is paused."
      },
      "unpause(uint256)": {
        "notice": "Resumes from the paused state of the specific token."
      }
    }
  }
}