{
  "contractName": "KIP7Token",
  "abi": [
    {
      "constant": true,
      "inputs": [
        {
          "name": "interfaceId",
          "type": "bytes4"
        }
      ],
      "name": "supportsInterface",
      "outputs": [
        {
          "name": "",
          "type": "bool"
        }
      ],
      "payable": false,
      "stateMutability": "view",
      "type": "function"
    },
    {
      "constant": true,
      "inputs": [],
      "name": "name",
      "outputs": [
        {
          "name": "",
          "type": "string"
        }
      ],
      "payable": false,
      "stateMutability": "view",
      "type": "function"
    },
    {
      "constant": false,
      "inputs": [
        {
          "name": "spender",
          "type": "address"
        },
        {
          "name": "value",
          "type": "uint256"
        }
      ],
      "name": "approve",
      "outputs": [
        {
          "name": "",
          "type": "bool"
        }
      ],
      "payable": false,
      "stateMutability": "nonpayable",
      "type": "function"
    },
    {
      "constant": true,
      "inputs": [],
      "name": "totalSupply",
      "outputs": [
        {
          "name": "",
          "type": "uint256"
        }
      ],
      "payable": false,
      "stateMutability": "view",
      "type": "function"
    },
    {
      "constant": false,
      "inputs": [
        {
          "name": "from",
          "type": "address"
        },
        {
          "name": "to",
          "type": "address"
        },
        {
          "name": "value",
          "type": "uint256"
        }
      ],
      "name": "transferFrom",
      "outputs": [
        {
          "name": "",
          "type": "bool"
        }
      ],
      "payable": false,
      "stateMutability": "nonpayable",
      "type": "function"
    },
    {
      "constant": true,
      "inputs": [],
      "name": "decimals",
      "outputs": [
        {
          "name": "",
          "type": "uint8"
        }
      ],
      "payable": false,
      "stateMutability": "view",
      "type": "function"
    },
    {
      "constant": false,
      "inputs": [],
      "name": "unpause",
      "outputs": [],
      "payable": false,
      "stateMutability": "nonpayable",
      "type": "function"
    },
    {
      "constant": false,
      "inputs": [
        {
          "name": "account",
          "type": "address"
        },
        {
          "name": "amount",
          "type": "uint256"
        }
      ],
      "name": "mint",
      "outputs": [
        {
          "name": "",
          "type": "bool"
        }
      ],
      "payable": false,
      "stateMutability": "nonpayable",
      "type": "function"
    },
    {
      "constant": false,
      "inputs": [
        {
          "name": "recipient",
          "type": "address"
        },
        {
          "name": "amount",
          "type": "uint256"
        }
      ],
      "name": "safeTransfer",
      "outputs": [],
      "payable": false,
      "stateMutability": "nonpayable",
      "type": "function"
    },
    {
      "constant": false,
      "inputs": [
        {
          "name": "sender",
          "type": "address"
        },
        {
          "name": "recipient",
          "type": "address"
        },
        {
          "name": "amount",
          "type": "uint256"
        }
      ],
      "name": "safeTransferFrom",
      "outputs": [],
      "payable": false,
      "stateMutability": "nonpayable",
      "type": "function"
    },
    {
      "constant": false,
      "inputs": [
        {
          "name": "amount",
          "type": "uint256"
        }
      ],
      "name": "burn",
      "outputs": [],
      "payable": false,
      "stateMutability": "nonpayable",
      "type": "function"
    },
    {
      "constant": true,
      "inputs": [
        {
          "name": "account",
          "type": "address"
        }
      ],
      "name": "isPauser",
      "outputs": [
        {
          "name": "",
          "type": "bool"
        }
      ],
      "payable": false,
      "stateMutability": "view",
      "type": "function"
    },
    {
      "constant": true,
      "inputs": [],
      "name": "paused",
      "outputs": [
        {
          "name": "",
          "type": "bool"
        }
      ],
      "payable": false,
      "stateMutability": "view",
      "type": "function"
    },
    {
      "constant": false,
      "inputs": [],
      "name": "renouncePauser",
      "outputs": [],
      "payable": false,
      "stateMutability": "nonpayable",
      "type": "function"
    },
    {
      "constant": true,
      "inputs": [
        {
          "name": "account",
          "type": "address"
        }
      ],
      "name": "balanceOf",
      "outputs": [
        {
          "name": "",
          "type": "uint256"
        }
      ],
      "payable": false,
      "stateMutability": "view",
      "type": "function"
    },
    {
      "constant": false,
      "inputs": [
        {
          "name": "account",
          "type": "address"
        },
        {
          "name": "amount",
          "type": "uint256"
        }
      ],
      "name": "burnFrom",
      "outputs": [],
      "payable": false,
      "stateMutability": "nonpayable",
      "type": "function"
    },
    {
      "constant": false,
      "inputs": [
        {
          "name": "account",
          "type": "address"
        }
      ],
      "name": "addPauser",
      "outputs": [],
      "payable": false,
      "stateMutability": "nonpayable",
      "type": "function"
    },
    {
      "constant": false,
      "inputs": [],
      "name": "pause",
      "outputs": [],
      "payable": false,
      "stateMutability": "nonpayable",
      "type": "function"
    },
    {
      "constant": true,
      "inputs": [],
      "name": "symbol",
      "outputs": [
        {
          "name": "",
          "type": "string"
        }
      ],
      "payable": false,
      "stateMutability": "view",
      "type": "function"
    },
    {
      "constant": false,
      "inputs": [
        {
          "name": "account",
          "type": "address"
        }
      ],
      "name": "addMinter",
      "outputs": [],
      "payable": false,
      "stateMutability": "nonpayable",
      "type": "function"
    },
    {
      "constant": false,
      "inputs": [],
      "name": "renounceMinter",
      "outputs": [],
      "payable": false,
      "stateMutability": "nonpayable",
      "type": "function"
    },
    {
      "constant": false,
      "inputs": [
        {
          "name": "to",
          "type": "address"
        },
        {
          "name": "value",
          "type": "uint256"
        }
      ],
      "name": "transfer",
      "outputs": [
        {
          "name": "",
          "type": "bool"
        }
      ],
      "payable": false,
      "stateMutability": "nonpayable",
      "type": "function"
    },
    {
      "constant": true,
      "inputs": [
        {
          "name": "account",
          "type": "address"
        }
      ],
      "name": "isMinter",
      "outputs": [
        {
          "name": "",
          "type": "bool"
        }
      ],
      "payable": false,
      "stateMutability": "view",
      "type": "function"
    },
    {
      "constant": false,
      "inputs": [
        {
          "name": "sender",
          "type": "address"
        },
        {
          "name": "recipient",
          "type": "address"
        },
        {
          "name": "amount",
          "type": "uint256"
        },
        {
          "name": "data",
          "type": "bytes"
        }
      ],
      "name": "safeTransferFrom",
      "outputs": [],
      "payable": false,
      "stateMutability": "nonpayable",
      "type": "function"
    },
    {
      "constant": true,
      "inputs": [
        {
          "name": "owner",
          "type": "address"
        },
        {
          "name": "spender",
          "type": "address"
        }
      ],
      "name": "allowance",
      "outputs": [
        {
          "name": "",
          "type": "uint256"
        }
      ],
      "payable": false,
      "stateMutability": "view",
      "type": "function"
    },
    {
      "constant": false,
      "inputs": [
        {
          "name": "recipient",
          "type": "address"
        },
        {
          "name": "amount",
          "type": "uint256"
        },
        {
          "name": "data",
          "type": "bytes"
        }
      ],
      "name": "safeTransfer",
      "outputs": [],
      "payable": false,
      "stateMutability": "nonpayable",
      "type": "function"
    },
    {
      "inputs": [
        {
          "name": "name",
          "type": "string"
        },
        {
          "name": "symbol",
          "type": "string"
        },
        {
          "name": "decimals",
          "type": "uint8"
        },
        {
          "name": "initialSupply",
          "type": "uint256"
        }
      ],
      "payable": false,
      "stateMutability": "nonpayable",
      "type": "constructor"
    },
    {
      "anonymous": false,
      "inputs": [
        {
          "indexed": false,
          "name": "account",
          "type": "address"
        }
      ],
      "name": "Paused",
      "type": "event"
    },
    {
      "anonymous": false,
      "inputs": [
        {
          "indexed": false,
          "name": "account",
          "type": "address"
        }
      ],
      "name": "Unpaused",
      "type": "event"
    },
    {
      "anonymous": false,
      "inputs": [
        {
          "indexed": true,
          "name": "account",
          "type": "address"
        }
      ],
      "name": "PauserAdded",
      "type": "event"
    },
    {
      "anonymous": false,
      "inputs": [
        {
          "indexed": true,
          "name": "account",
          "type": "address"
        }
      ],
      "name": "PauserRemoved",
      "type": "event"
    },
    {
      "anonymous": false,
      "inputs": [
        {
          "indexed": true,
          "name": "account",
          "type": "address"
        }
      ],
      "name": "MinterAdded",
      "type": "event"
    },
    {
      "anonymous": false,
      "inputs": [
        {
          "indexed": true,
          "name": "account",
          "type": "address"
        }
      ],
      "name": "MinterRemoved",
      "type": "event"
    },
    {
      "anonymous": false,
      "inputs": [
        {
          "indexed": true,
          "name": "from",
          "type": "address"
        },
        {
          "indexed": true,
          "name": "to",
          "type": "address"
        },
        {
          "indexed": false,
          "name": "value",
          "type": "uint256"
        }
      ],
      "name": "Transfer",
      "type": "event"
    },
    {
      "anonymous": false,
      "inputs": [
        {
          "indexed": true,
          "name": "owner",
          "type": "address"
        },
        {
          "indexed": true,
          "name": "spender",
          "type": "address"
        },
        {
          "indexed": false,
          "name": "value",
          "type": "uint256"
        }
      ],
      "name": "Approval",
      "type": "event"
    }
  ],
  "bytecode": "0x60806040523480156200001157600080fd5b5060405162001fc838038062001fc8833981018060405260808110156200003757600080fd5b8101908080516401000000008111156200005057600080fd5b820160208101848111156200006457600080fd5b81516401000000008111828201871017156200007f57600080fd5b505092919060200180516401000000008111156200009c57600080fd5b82016020810184811115620000b057600080fd5b8151640100000000811182820187101715620000cb57600080fd5b50506020808301516040909301519194509192509084908490849062000117907f01ffc9a7000000000000000000000000000000000000000000000000000000009062000249811b901c565b6200012f636578737160e01b6200024960201b60201c565b62000140336200031860201b60201c565b6200015863eab83e2060e01b6200024960201b60201c565b62000170633b5a0bf860e01b6200024960201b60201c565b62000181336200036a60201b60201c565b6006805460ff19169055620001bd7f4d5507ff0000000000000000000000000000000000000000000000000000000062000249602090811b901c565b8251620001d29060079060208601906200067e565b508151620001e89060089060208501906200067e565b506009805460ff191660ff83161790556200022a7fa219a0250000000000000000000000000000000000000000000000000000000062000249602090811b901c565b5050506200023f3382620003bc60201b60201c565b5050505062000723565b7fffffffff000000000000000000000000000000000000000000000000000000008082161415620002db57604080517f08c379a000000000000000000000000000000000000000000000000000000000815260206004820152601b60248201527f4b495031333a20696e76616c696420696e746572666163652069640000000000604482015290519081900360640190fd5b7fffffffff00000000000000000000000000000000000000000000000000000000166000908152602081905260409020805460ff19166001179055565b62000333816004620004db60201b620015c81790919060201c565b6040516001600160a01b038216907f6ae172837ea30b801fbfcdd4108aa1d5bf8ff775444fd70256b44e6bf3dfc3f690600090a250565b62000385816005620004db60201b620015c81790919060201c565b6040516001600160a01b038216907f6719d08c1888103bea251a4ed56406bd0c3e69723c8a1686e017e7bbe159b6f890600090a250565b6001600160a01b0382166200043257604080517f08c379a000000000000000000000000000000000000000000000000000000000815260206004820152601e60248201527f4b4950373a206d696e7420746f20746865207a65726f20616464726573730000604482015290519081900360640190fd5b6200044e816003546200057f60201b620015011790919060201c565b6003556001600160a01b03821660009081526001602090815260409091205462000483918390620015016200057f821b17901c565b6001600160a01b03831660008181526001602090815260408083209490945583518581529351929391927fddf252ad1be2c89b69c2b068fc378daa952ba7f163c4a11628f55a4df523b3ef9281900390910190a35050565b620004ed8282620005fb60201b60201c565b156200055a57604080517f08c379a000000000000000000000000000000000000000000000000000000000815260206004820152601f60248201527f526f6c65733a206163636f756e7420616c72656164792068617320726f6c6500604482015290519081900360640190fd5b6001600160a01b0316600090815260209190915260409020805460ff19166001179055565b600082820183811015620005f457604080517f08c379a000000000000000000000000000000000000000000000000000000000815260206004820152601b60248201527f536166654d6174683a206164646974696f6e206f766572666c6f770000000000604482015290519081900360640190fd5b9392505050565b60006001600160a01b0382166200065e576040517f08c379a000000000000000000000000000000000000000000000000000000000815260040180806020018281038252602281526020018062001fa66022913960400191505060405180910390fd5b506001600160a01b03166000908152602091909152604090205460ff1690565b828054600181600116156101000203166002900490600052602060002090601f016020900481019282601f10620006c157805160ff1916838001178555620006f1565b82800160010185558215620006f1579182015b82811115620006f1578251825591602001919060010190620006d4565b50620006ff92915062000703565b5090565b6200072091905b80821115620006ff57600081556001016200070a565b90565b61187380620007336000396000f3fe608060405234801561001057600080fd5b506004361061018e5760003560e01c80636ef8d66d116100de578063983b2d5611610097578063aa271e1a11610071578063aa271e1a146104b2578063b88d4fde146104d8578063dd62ed3e1461059e578063eb795549146105cc5761018e565b8063983b2d5614610458578063986502751461047e578063a9059cbb146104865761018e565b80636ef8d66d146103c857806370a08231146103d057806379cc6790146103f657806382dc1ec4146104225780638456cb591461044857806395d89b41146104505761018e565b80633f4ba83a1161014b57806342842e0e1161012557806342842e0e1461034757806342966c681461037d57806346fbf68e1461039a5780635c975abb146103c05761018e565b80633f4ba83a146102e557806340c10f19146102ef578063423f6cef1461031b5761018e565b806301ffc9a71461019357806306fdde03146101ce578063095ea7b31461024b57806318160ddd1461027757806323b872dd14610291578063313ce567146102c7575b600080fd5b6101ba600480360360208110156101a957600080fd5b50356001600160e01b031916610687565b604080519115158252519081900360200190f35b6101d66106a6565b6040805160208082528351818301528351919283929083019185019080838360005b838110156102105781810151838201526020016101f8565b50505050905090810190601f16801561023d5780820380516001836020036101000a031916815260200191505b509250505060405180910390f35b6101ba6004803603604081101561026157600080fd5b506001600160a01b03813516906020013561073c565b61027f6107a1565b60408051918252519081900360200190f35b6101ba600480360360608110156102a757600080fd5b506001600160a01b038135811691602081013590911690604001356107a7565b6102cf61080e565b6040805160ff9092168252519081900360200190f35b6102ed610817565b005b6101ba6004803603604081101561030557600080fd5b506001600160a01b0381351690602001356108f7565b6102ed6004803603604081101561033157600080fd5b506001600160a01b038135169060200135610953565b6102ed6004803603606081101561035d57600080fd5b506001600160a01b03813581169160208101359091169060400135610971565b6102ed6004803603602081101561039357600080fd5b5035610991565b6101ba600480360360208110156103b057600080fd5b50356001600160a01b031661099e565b6101ba6109b7565b6102ed6109c0565b61027f600480360360208110156103e657600080fd5b50356001600160a01b03166109cb565b6102ed6004803603604081101561040c57600080fd5b506001600160a01b0381351690602001356109e6565b6102ed6004803603602081101561043857600080fd5b50356001600160a01b03166109f0565b6102ed610a40565b6101d6610b1a565b6102ed6004803603602081101561046e57600080fd5b50356001600160a01b0316610b7b565b6102ed610bcb565b6101ba6004803603604081101561049c57600080fd5b506001600160a01b038135169060200135610bd4565b6101ba600480360360208110156104c857600080fd5b50356001600160a01b0316610c32565b6102ed600480360360808110156104ee57600080fd5b6001600160a01b0382358116926020810135909116916040820135919081019060808101606082013564010000000081111561052957600080fd5b82018360208201111561053b57600080fd5b8035906020019184600183028401116401000000008311171561055d57600080fd5b91908080601f016020809104026020016040519081016040528093929190818152602001838380828437600092019190915250929550610c45945050505050565b61027f600480360360408110156105b457600080fd5b506001600160a01b0381358116916020013516610ca1565b6102ed600480360360608110156105e257600080fd5b6001600160a01b038235169160208101359181019060608101604082013564010000000081111561061257600080fd5b82018360208201111561062457600080fd5b8035906020019184600183028401116401000000008311171561064657600080fd5b91908080601f016020809104026020016040519081016040528093929190818152602001838380828437600092019190915250929550610ccc945050505050565b6001600160e01b03191660009081526020819052604090205460ff1690565b60078054604080516020601f60026000196101006001881615020190951694909404938401819004810282018101909252828152606093909290918301828280156107325780601f1061070757610100808354040283529160200191610732565b820191906000526020600020905b81548152906001019060200180831161071557829003601f168201915b5050505050905090565b60065460009060ff16156107905760408051600160e51b62461bcd0281526020600482015260106024820152600160821b6f14185d5cd8589b194e881c185d5cd95902604482015290519081900360640190fd5b61079a8383610d21565b9392505050565b60035490565b60065460009060ff16156107fb5760408051600160e51b62461bcd0281526020600482015260106024820152600160821b6f14185d5cd8589b194e881c185d5cd95902604482015290519081900360640190fd5b610806848484610d2e565b949350505050565b60095460ff1690565b6108203361099e565b61085e57604051600160e51b62461bcd02815260040180806020018281038252603081526020018061173c6030913960400191505060405180910390fd5b60065460ff166108b85760408051600160e51b62461bcd02815260206004820152601460248201527f5061757361626c653a206e6f7420706175736564000000000000000000000000604482015290519081900360640190fd5b6006805460ff191690556040805133815290517f5db9ee0a495bf2e6ff9c91a7834c1ba4fdd244a5e8aa4e537bd38aeae4b073aa9181900360200190a1565b600061090233610c32565b61094057604051600160e51b62461bcd02815260040180806020018281038252603081526020018061178e6030913960400191505060405180910390fd5b61094a8383610d85565b50600192915050565b61096d828260405180602001604052806000815250610ccc565b5050565b61098c83838360405180602001604052806000815250610c45565b505050565b61099b3382610e7a565b50565b60006109b160058363ffffffff610f6e16565b92915050565b60065460ff1690565b6109c933610fd8565b565b6001600160a01b031660009081526001602052604090205490565b61096d8282611020565b6109f93361099e565b610a3757604051600160e51b62461bcd02815260040180806020018281038252603081526020018061173c6030913960400191505060405180910390fd5b61099b81611065565b610a493361099e565b610a8757604051600160e51b62461bcd02815260040180806020018281038252603081526020018061173c6030913960400191505060405180910390fd5b60065460ff1615610ad85760408051600160e51b62461bcd0281526020600482015260106024820152600160821b6f14185d5cd8589b194e881c185d5cd95902604482015290519081900360640190fd5b6006805460ff191660011790556040805133815290517f62e78cea01bee320cd4e420270b5ea74000d11b0c9f74754ebdbfc544b05a2589181900360200190a1565b60088054604080516020601f60026000196101006001881615020190951694909404938401819004810282018101909252828152606093909290918301828280156107325780601f1061070757610100808354040283529160200191610732565b610b8433610c32565b610bc257604051600160e51b62461bcd02815260040180806020018281038252603081526020018061178e6030913960400191505060405180910390fd5b61099b816110ad565b6109c9336110f5565b60065460009060ff1615610c285760408051600160e51b62461bcd0281526020600482015260106024820152600160821b6f14185d5cd8589b194e881c185d5cd95902604482015290519081900360640190fd5b61079a838361113d565b60006109b160048363ffffffff610f6e16565b610c508484846107a7565b50610c5d8484848461114a565b610c9b57604051600160e51b62461bcd02815260040180806020018281038252602e81526020018061170e602e913960400191505060405180910390fd5b50505050565b6001600160a01b03918216600090815260026020908152604080832093909416825291909152205490565b610cd68383610bd4565b50610ce33384848461114a565b61098c57604051600160e51b62461bcd02815260040180806020018281038252602e81526020018061170e602e913960400191505060405180910390fd5b600061094a338484611283565b6000610d3b848484611375565b6001600160a01b038416600090815260026020908152604080832033808552925290912054610d7b918691610d76908663ffffffff6114bf16565b611283565b5060019392505050565b6001600160a01b038216610de35760408051600160e51b62461bcd02815260206004820152601e60248201527f4b4950373a206d696e7420746f20746865207a65726f20616464726573730000604482015290519081900360640190fd5b600354610df6908263ffffffff61150116565b6003556001600160a01b038216600090815260016020526040902054610e22908263ffffffff61150116565b6001600160a01b03831660008181526001602090815260408083209490945583518581529351929391927fddf252ad1be2c89b69c2b068fc378daa952ba7f163c4a11628f55a4df523b3ef9281900390910190a35050565b6001600160a01b038216610ed85760408051600160e51b62461bcd02815260206004820181905260248201527f4b4950373a206275726e2066726f6d20746865207a65726f2061646472657373604482015290519081900360640190fd5b600354610eeb908263ffffffff6114bf16565b6003556001600160a01b038216600090815260016020526040902054610f17908263ffffffff6114bf16565b6001600160a01b0383166000818152600160209081526040808320949094558351858152935191937fddf252ad1be2c89b69c2b068fc378daa952ba7f163c4a11628f55a4df523b3ef929081900390910190a35050565b60006001600160a01b038216610fb857604051600160e51b62461bcd0281526004018080602001828103825260228152602001806118036022913960400191505060405180910390fd5b506001600160a01b03166000908152602091909152604090205460ff1690565b610fe960058263ffffffff61155e16565b6040516001600160a01b038216907fcd265ebaf09df2871cc7bd4133404a235ba12eff2041bb89d9c714a2621c7c7e90600090a250565b61102a8282610e7a565b6001600160a01b03821660009081526002602090815260408083203380855292529091205461096d918491610d76908563ffffffff6114bf16565b61107660058263ffffffff6115c816565b6040516001600160a01b038216907f6719d08c1888103bea251a4ed56406bd0c3e69723c8a1686e017e7bbe159b6f890600090a250565b6110be60048263ffffffff6115c816565b6040516001600160a01b038216907f6ae172837ea30b801fbfcdd4108aa1d5bf8ff775444fd70256b44e6bf3dfc3f690600090a250565b61110660048263ffffffff61155e16565b6040516001600160a01b038216907fe94479a9f7e1952cc78f2d6baab678adc1b772d936c6583def489e524cb6669290600090a250565b600061094a338484611375565b600061115e846001600160a01b031661164c565b61116a57506001610806565b604051600160e11b634e8c461102815233600482018181526001600160a01b03888116602485015260448401879052608060648501908152865160848601528651600095928a1694639d188c229490938c938b938b939260a4019060208501908083838e5b838110156111e75781810151838201526020016111cf565b50505050905090810190601f1680156112145780820380516001836020036101000a031916815260200191505b5095505050505050602060405180830381600087803b15801561123657600080fd5b505af115801561124a573d6000803e3d6000fd5b505050506040513d602081101561126057600080fd5b50516001600160e01b031916600160e11b634e8c46110214915050949350505050565b6001600160a01b0383166112cb57604051600160e51b62461bcd0281526004018080602001828103825260238152602001806118256023913960400191505060405180910390fd5b6001600160a01b03821661131357604051600160e51b62461bcd0281526004018080602001828103825260218152602001806116ed6021913960400191505060405180910390fd5b6001600160a01b03808416600081815260026020908152604080832094871680845294825291829020859055815185815291517f8c5be1e5ebec7d5bd14f71427d1e84f3dd0314c0f7b2291e5b200ac8c7c3b9259281900390910190a3505050565b6001600160a01b0383166113bd57604051600160e51b62461bcd0281526004018080602001828103825260248152602001806117df6024913960400191505060405180910390fd5b6001600160a01b03821661140557604051600160e51b62461bcd02815260040180806020018281038252602281526020018061176c6022913960400191505060405180910390fd5b6001600160a01b03831660009081526001602052604090205461142e908263ffffffff6114bf16565b6001600160a01b038085166000908152600160205260408082209390935590841681522054611463908263ffffffff61150116565b6001600160a01b0380841660008181526001602090815260409182902094909455805185815290519193928716927fddf252ad1be2c89b69c2b068fc378daa952ba7f163c4a11628f55a4df523b3ef92918290030190a3505050565b600061079a83836040518060400160405280601e81526020017f536166654d6174683a207375627472616374696f6e206f766572666c6f770000815250611652565b60008282018381101561079a5760408051600160e51b62461bcd02815260206004820152601b60248201527f536166654d6174683a206164646974696f6e206f766572666c6f770000000000604482015290519081900360640190fd5b6115688282610f6e565b6115a657604051600160e51b62461bcd0281526004018080602001828103825260218152602001806117be6021913960400191505060405180910390fd5b6001600160a01b0316600090815260209190915260409020805460ff19169055565b6115d28282610f6e565b156116275760408051600160e51b62461bcd02815260206004820152601f60248201527f526f6c65733a206163636f756e7420616c72656164792068617320726f6c6500604482015290519081900360640190fd5b6001600160a01b0316600090815260209190915260409020805460ff19166001179055565b3b151590565b600081848411156116e457604051600160e51b62461bcd0281526004018080602001828103825283818151815260200191508051906020019080838360005b838110156116a9578181015183820152602001611691565b50505050905090810190601f1680156116d65780820380516001836020036101000a031916815260200191505b509250505060405180910390fd5b50505090039056fe4b4950373a20617070726f766520746f20746865207a65726f20616464726573734b4950373a207472616e7366657220746f206e6f6e204b495037526563656976657220696d706c656d656e746572506175736572526f6c653a2063616c6c657220646f6573206e6f742068617665207468652050617573657220726f6c654b4950373a207472616e7366657220746f20746865207a65726f20616464726573734d696e746572526f6c653a2063616c6c657220646f6573206e6f74206861766520746865204d696e74657220726f6c65526f6c65733a206163636f756e7420646f6573206e6f74206861766520726f6c654b4950373a207472616e736665722066726f6d20746865207a65726f2061646472657373526f6c65733a206163636f756e7420697320746865207a65726f20616464726573734b4950373a20617070726f76652066726f6d20746865207a65726f2061646472657373a165627a7a72305820da669f7ef9c6e4a89625d96616da6d2f9d7fe2a81dcd00660172b6809b0880510029526f6c65733a206163636f756e7420697320746865207a65726f2061646472657373",
  "source": "pragma solidity ^0.5.0;\n\nimport \"./KIP7Mintable.sol\";\nimport \"./KIP7Burnable.sol\";\nimport \"./KIP7Pausable.sol\";\nimport \"./KIP7Metadata.sol\";\n\ncontract KIP7Token is KIP7Mintable, KIP7Burnable, KIP7Pausable, KIP7Metadata {\n    constructor(string memory name, string memory symbol, uint8 decimals, uint256 initialSupply) KIP7Metadata(name, symbol, decimals) public {\n        _mint(msg.sender, initialSupply);\n    }\n}",
  "sourcePath": "C:/Users/runde/Documents/Mint_Leo/src/contracts/klaytn-contracts/token/KIP7/KIP7Token.sol",
  "compiler": {
    "name": "solc",
    "version": "0.5.6+commit.b259423e.Emscripten.clang"
  },
  "schemaVersion": "3.3.3",
  "updatedAt": "2022-02-25T08:53:57.312Z",
  "devdoc": {
    "methods": {
      "allowance(address,address)": {
        "details": "See `IKIP7.allowance`."
      },
      "balanceOf(address)": {
        "details": "See `IKIP7.balanceOf`."
      },
      "burn(uint256)": {
        "details": "Destroys `amount` tokens from the caller.     * See `KIP7._burn`."
      },
      "burnFrom(address,uint256)": {
        "details": "See `KIP7._burnFrom`."
      },
      "decimals()": {
        "details": "Returns the number of decimals used to get its user representation. For example, if `decimals` equals `2`, a balance of `505` tokens should be displayed to a user as `5,05` (`505 / 10 ** 2`).     * Tokens usually opt for a value of 18, imitating the relationship between Ether and Wei.     * > Note that this information is only used for _display_ purposes: it in no way affects any of the arithmetic of the contract, including `IKIP7.balanceOf` and `IKIP7.transfer`."
      },
      "mint(address,uint256)": {
        "details": "See `KIP7._mint`.     * Requirements:     * - the caller must have the `MinterRole`."
      },
      "name()": {
        "details": "Returns the name of the token."
      },
      "pause()": {
        "details": "Called by a pauser to pause, triggers stopped state."
      },
      "paused()": {
        "details": "Returns true if the contract is paused, and false otherwise."
      },
      "safeTransfer(address,uint256)": {
        "details": "Moves `amount` tokens from the caller's account to `recipient`."
      },
      "safeTransfer(address,uint256,bytes)": {
        "details": "Moves `amount` tokens from the caller's account to `recipient`."
      },
      "safeTransferFrom(address,address,uint256)": {
        "details": "Moves `amount` tokens from `sender` to `recipient` using the allowance mechanism. `amount` is then deducted from the caller's allowance."
      },
      "safeTransferFrom(address,address,uint256,bytes)": {
        "details": "Moves `amount` tokens from `sender` to `recipient` using the allowance mechanism. `amount` is then deducted from the caller's allowance."
      },
      "supportsInterface(bytes4)": {
        "details": "See `IKIP13.supportsInterface`.     * Time complexity O(1), guaranteed to always use less than 30 000 gas."
      },
      "symbol()": {
        "details": "Returns the symbol of the token, usually a shorter version of the name."
      },
      "totalSupply()": {
        "details": "See `IKIP7.totalSupply`."
      },
      "unpause()": {
        "details": "Called by a pauser to unpause, returns to normal state."
      }
    }
  },
  "userdoc": {
    "methods": {}
  }
}