{
  "contractName": "Leo",
  "abi": [
    {
      "inputs": [],
      "stateMutability": "nonpayable",
      "type": "constructor"
    },
    {
      "anonymous": false,
      "inputs": [
        {
          "indexed": true,
          "internalType": "address",
          "name": "owner",
          "type": "address"
        },
        {
          "indexed": true,
          "internalType": "address",
          "name": "approved",
          "type": "address"
        },
        {
          "indexed": true,
          "internalType": "uint256",
          "name": "tokenId",
          "type": "uint256"
        }
      ],
      "name": "Approval",
      "type": "event"
    },
    {
      "anonymous": false,
      "inputs": [
        {
          "indexed": true,
          "internalType": "address",
          "name": "owner",
          "type": "address"
        },
        {
          "indexed": true,
          "internalType": "address",
          "name": "operator",
          "type": "address"
        },
        {
          "indexed": false,
          "internalType": "bool",
          "name": "approved",
          "type": "bool"
        }
      ],
      "name": "ApprovalForAll",
      "type": "event"
    },
    {
      "anonymous": false,
      "inputs": [
        {
          "indexed": true,
          "internalType": "address",
          "name": "from",
          "type": "address"
        },
        {
          "indexed": true,
          "internalType": "address",
          "name": "to",
          "type": "address"
        },
        {
          "indexed": true,
          "internalType": "uint256",
          "name": "tokenId",
          "type": "uint256"
        }
      ],
      "name": "Transfer",
      "type": "event"
    },
    {
      "inputs": [],
      "name": "_name",
      "outputs": [
        {
          "internalType": "string",
          "name": "",
          "type": "string"
        }
      ],
      "stateMutability": "view",
      "type": "function"
    },
    {
      "inputs": [],
      "name": "_symbol",
      "outputs": [
        {
          "internalType": "string",
          "name": "",
          "type": "string"
        }
      ],
      "stateMutability": "view",
      "type": "function"
    },
    {
      "inputs": [
        {
          "internalType": "address",
          "name": "to",
          "type": "address"
        },
        {
          "internalType": "uint256",
          "name": "tokenId",
          "type": "uint256"
        }
      ],
      "name": "approve",
      "outputs": [],
      "stateMutability": "nonpayable",
      "type": "function"
    },
    {
      "inputs": [
        {
          "internalType": "address",
          "name": "owner",
          "type": "address"
        }
      ],
      "name": "balanceOf",
      "outputs": [
        {
          "internalType": "uint256",
          "name": "",
          "type": "uint256"
        }
      ],
      "stateMutability": "view",
      "type": "function"
    },
    {
      "inputs": [],
      "name": "baseExtension",
      "outputs": [
        {
          "internalType": "string",
          "name": "",
          "type": "string"
        }
      ],
      "stateMutability": "view",
      "type": "function"
    },
    {
      "inputs": [],
      "name": "baseURI",
      "outputs": [
        {
          "internalType": "string",
          "name": "",
          "type": "string"
        }
      ],
      "stateMutability": "view",
      "type": "function"
    },
    {
      "inputs": [],
      "name": "cost",
      "outputs": [
        {
          "internalType": "uint256",
          "name": "",
          "type": "uint256"
        }
      ],
      "stateMutability": "view",
      "type": "function"
    },
    {
      "inputs": [
        {
          "internalType": "uint256",
          "name": "tokenId",
          "type": "uint256"
        }
      ],
      "name": "getApproved",
      "outputs": [
        {
          "internalType": "address",
          "name": "",
          "type": "address"
        }
      ],
      "stateMutability": "view",
      "type": "function"
    },
    {
      "inputs": [
        {
          "internalType": "address",
          "name": "owner",
          "type": "address"
        },
        {
          "internalType": "address",
          "name": "operator",
          "type": "address"
        }
      ],
      "name": "isApprovedForAll",
      "outputs": [
        {
          "internalType": "bool",
          "name": "",
          "type": "bool"
        }
      ],
      "stateMutability": "view",
      "type": "function"
    },
    {
      "inputs": [],
      "name": "maxMintAmount",
      "outputs": [
        {
          "internalType": "uint256",
          "name": "",
          "type": "uint256"
        }
      ],
      "stateMutability": "view",
      "type": "function"
    },
    {
      "inputs": [],
      "name": "maxSupply",
      "outputs": [
        {
          "internalType": "uint256",
          "name": "",
          "type": "uint256"
        }
      ],
      "stateMutability": "view",
      "type": "function"
    },
    {
      "inputs": [],
      "name": "name",
      "outputs": [
        {
          "internalType": "string",
          "name": "",
          "type": "string"
        }
      ],
      "stateMutability": "view",
      "type": "function"
    },
    {
      "inputs": [],
      "name": "notRevealedUri",
      "outputs": [
        {
          "internalType": "string",
          "name": "",
          "type": "string"
        }
      ],
      "stateMutability": "view",
      "type": "function"
    },
    {
      "inputs": [
        {
          "internalType": "uint256",
          "name": "tokenId",
          "type": "uint256"
        }
      ],
      "name": "ownerOf",
      "outputs": [
        {
          "internalType": "address",
          "name": "",
          "type": "address"
        }
      ],
      "stateMutability": "view",
      "type": "function"
    },
    {
      "inputs": [],
      "name": "paused",
      "outputs": [
        {
          "internalType": "bool",
          "name": "",
          "type": "bool"
        }
      ],
      "stateMutability": "view",
      "type": "function"
    },
    {
      "inputs": [],
      "name": "revealed",
      "outputs": [
        {
          "internalType": "bool",
          "name": "",
          "type": "bool"
        }
      ],
      "stateMutability": "view",
      "type": "function"
    },
    {
      "inputs": [
        {
          "internalType": "address",
          "name": "from",
          "type": "address"
        },
        {
          "internalType": "address",
          "name": "to",
          "type": "address"
        },
        {
          "internalType": "uint256",
          "name": "tokenId",
          "type": "uint256"
        }
      ],
      "name": "safeTransferFrom",
      "outputs": [],
      "stateMutability": "nonpayable",
      "type": "function"
    },
    {
      "inputs": [
        {
          "internalType": "address",
          "name": "from",
          "type": "address"
        },
        {
          "internalType": "address",
          "name": "to",
          "type": "address"
        },
        {
          "internalType": "uint256",
          "name": "tokenId",
          "type": "uint256"
        },
        {
          "internalType": "bytes",
          "name": "_data",
          "type": "bytes"
        }
      ],
      "name": "safeTransferFrom",
      "outputs": [],
      "stateMutability": "nonpayable",
      "type": "function"
    },
    {
      "inputs": [
        {
          "internalType": "address",
          "name": "operator",
          "type": "address"
        },
        {
          "internalType": "bool",
          "name": "approved",
          "type": "bool"
        }
      ],
      "name": "setApprovalForAll",
      "outputs": [],
      "stateMutability": "nonpayable",
      "type": "function"
    },
    {
      "inputs": [
        {
          "internalType": "bytes4",
          "name": "interfaceId",
          "type": "bytes4"
        }
      ],
      "name": "supportsInterface",
      "outputs": [
        {
          "internalType": "bool",
          "name": "",
          "type": "bool"
        }
      ],
      "stateMutability": "view",
      "type": "function"
    },
    {
      "inputs": [],
      "name": "symbol",
      "outputs": [
        {
          "internalType": "string",
          "name": "",
          "type": "string"
        }
      ],
      "stateMutability": "view",
      "type": "function"
    },
    {
      "inputs": [
        {
          "internalType": "uint256",
          "name": "index",
          "type": "uint256"
        }
      ],
      "name": "tokenByIndex",
      "outputs": [
        {
          "internalType": "uint256",
          "name": "",
          "type": "uint256"
        }
      ],
      "stateMutability": "view",
      "type": "function"
    },
    {
      "inputs": [
        {
          "internalType": "address",
          "name": "owner",
          "type": "address"
        },
        {
          "internalType": "uint256",
          "name": "index",
          "type": "uint256"
        }
      ],
      "name": "tokenOfOwnerByIndex",
      "outputs": [
        {
          "internalType": "uint256",
          "name": "",
          "type": "uint256"
        }
      ],
      "stateMutability": "view",
      "type": "function"
    },
    {
      "inputs": [],
      "name": "totalSupply",
      "outputs": [
        {
          "internalType": "uint256",
          "name": "",
          "type": "uint256"
        }
      ],
      "stateMutability": "view",
      "type": "function"
    },
    {
      "inputs": [
        {
          "internalType": "address",
          "name": "from",
          "type": "address"
        },
        {
          "internalType": "address",
          "name": "to",
          "type": "address"
        },
        {
          "internalType": "uint256",
          "name": "tokenId",
          "type": "uint256"
        }
      ],
      "name": "transferFrom",
      "outputs": [],
      "stateMutability": "nonpayable",
      "type": "function"
    },
    {
      "inputs": [
        {
          "internalType": "address",
          "name": "",
          "type": "address"
        }
      ],
      "name": "whitelisted",
      "outputs": [
        {
          "internalType": "bool",
          "name": "",
          "type": "bool"
        }
      ],
      "stateMutability": "view",
      "type": "function"
    },
    {
      "inputs": [
        {
          "internalType": "uint256",
          "name": "tokenId",
          "type": "uint256"
        }
      ],
      "name": "tokenURI",
      "outputs": [
        {
          "internalType": "string",
          "name": "",
          "type": "string"
        }
      ],
      "stateMutability": "view",
      "type": "function"
    },
    {
      "inputs": [
        {
          "internalType": "address",
          "name": "_owner",
          "type": "address"
        }
      ],
      "name": "tokensfromWallet",
      "outputs": [
        {
          "internalType": "uint256[]",
          "name": "",
          "type": "uint256[]"
        }
      ],
      "stateMutability": "view",
      "type": "function"
    },
    {
      "inputs": [
        {
          "internalType": "address",
          "name": "_recipient",
          "type": "address"
        },
        {
          "internalType": "uint256",
          "name": "_mintAmount",
          "type": "uint256"
        }
      ],
      "name": "mint",
      "outputs": [],
      "stateMutability": "payable",
      "type": "function"
    },
    {
      "inputs": [],
      "name": "reveal",
      "outputs": [],
      "stateMutability": "nonpayable",
      "type": "function"
    },
    {
      "inputs": [
        {
          "internalType": "uint256",
          "name": "_newCost",
          "type": "uint256"
        }
      ],
      "name": "setCost",
      "outputs": [],
      "stateMutability": "nonpayable",
      "type": "function"
    },
    {
      "inputs": [
        {
          "internalType": "bool",
          "name": "_state",
          "type": "bool"
        }
      ],
      "name": "pause",
      "outputs": [],
      "stateMutability": "nonpayable",
      "type": "function"
    },
    {
      "inputs": [
        {
          "internalType": "uint256",
          "name": "_newmaxMintAmount",
          "type": "uint256"
        }
      ],
      "name": "setmaxMintAmount",
      "outputs": [],
      "stateMutability": "nonpayable",
      "type": "function"
    },
    {
      "inputs": [
        {
          "internalType": "string",
          "name": "_newBaseExtension",
          "type": "string"
        }
      ],
      "name": "setBaseExtension",
      "outputs": [],
      "stateMutability": "nonpayable",
      "type": "function"
    },
    {
      "inputs": [
        {
          "internalType": "address",
          "name": "_user",
          "type": "address"
        }
      ],
      "name": "whitelistUser",
      "outputs": [],
      "stateMutability": "nonpayable",
      "type": "function"
    },
    {
      "inputs": [
        {
          "internalType": "address",
          "name": "_user",
          "type": "address"
        }
      ],
      "name": "removeWhitelistUser",
      "outputs": [],
      "stateMutability": "nonpayable",
      "type": "function"
    },
    {
      "inputs": [],
      "name": "withdraw",
      "outputs": [],
      "stateMutability": "payable",
      "type": "function"
    }
  ],
  "bytecode": "0x608060405260405180608001604052806044815260200162004f8460449139600b90805190602001906200003592919062000a11565b506040518060400160405280600581526020017f2e6a736f6e000000000000000000000000000000000000000000000000000000815250600c90805190602001906200008392919062000a11565b506040518060400160405280601a81526020017f6e6f742072657665616c656420616d617a6f6e20733320757269000000000000815250600d9080519060200190620000d192919062000a11565b50620000e26200027560201b60201c565b600e9080519060200190620000f992919062000a11565b506200010a6200030f60201b60201c565b600f90805190602001906200012192919062000a11565b5066b1a2bc2ec50000601055607b60115560026012556000601360006101000a81548160ff0219169083151502179055506000601360016101000a81548160ff0219169083151502179055503480156200017a57600080fd5b506040518060400160405280600381526020017f4c656f00000000000000000000000000000000000000000000000000000000008152506040518060400160405280600381526020017f4c454f00000000000000000000000000000000000000000000000000000000008152508160009080519060200190620001ff92919062000a11565b5080600190805190602001906200021892919062000a11565b50505033600a60006101000a81548173ffffffffffffffffffffffffffffffffffffffff021916908373ffffffffffffffffffffffffffffffffffffffff1602179055506200026f336005620003a960201b60201c565b62000fda565b606060008054620002869062000af0565b80601f0160208091040260200160405190810160405280929190818152602001828054620002b49062000af0565b8015620003055780601f10620002d95761010080835404028352916020019162000305565b820191906000526020600020905b815481529060010190602001808311620002e757829003601f168201915b5050505050905090565b606060018054620003209062000af0565b80601f01602080910402602001604051908101604052809291908181526020018280546200034e9062000af0565b80156200039f5780601f1062000373576101008083540402835291602001916200039f565b820191906000526020600020905b8154815290600101906020018083116200038157829003601f168201915b5050505050905090565b6000620003bb6200052b60201b60201c565b9050601360009054906101000a900460ff1615620003d857600080fd5b60008211620003e657600080fd5b601254821115620003f657600080fd5b601154828262000407919062000b5f565b11156200041357600080fd5b600a60009054906101000a900473ffffffffffffffffffffffffffffffffffffffff1673ffffffffffffffffffffffffffffffffffffffff163373ffffffffffffffffffffffffffffffffffffffff1614620004e15760011515601460003373ffffffffffffffffffffffffffffffffffffffff1673ffffffffffffffffffffffffffffffffffffffff16815260200190815260200160002060009054906101000a900460ff16151514620004e05781601054620004d2919062000bbc565b341015620004df57600080fd5b5b5b6000600190505b82811162000525576200050f84828462000503919062000b5f565b6200053860201b60201c565b80806200051c9062000c1d565b915050620004e8565b50505050565b6000600880549050905090565b6200055a8282604051806020016040528060008152506200055e60201b60201c565b5050565b620005708383620005cc60201b60201c565b620005856000848484620007c660201b60201c565b620005c7576040517f08c379a0000000000000000000000000000000000000000000000000000000008152600401620005be9062000cf2565b60405180910390fd5b505050565b600073ffffffffffffffffffffffffffffffffffffffff168273ffffffffffffffffffffffffffffffffffffffff1614156200063f576040517f08c379a0000000000000000000000000000000000000000000000000000000008152600401620006369062000d64565b60405180910390fd5b62000650816200097060201b60201c565b1562000693576040517f08c379a00000000000000000000000000000000000000000000000000000000081526004016200068a9062000dd6565b60405180910390fd5b620006a760008383620009dc60201b60201c565b6001600360008473ffffffffffffffffffffffffffffffffffffffff1673ffffffffffffffffffffffffffffffffffffffff1681526020019081526020016000206000828254620006f9919062000b5f565b92505081905550816002600083815260200190815260200160002060006101000a81548173ffffffffffffffffffffffffffffffffffffffff021916908373ffffffffffffffffffffffffffffffffffffffff160217905550808273ffffffffffffffffffffffffffffffffffffffff16600073ffffffffffffffffffffffffffffffffffffffff167fddf252ad1be2c89b69c2b068fc378daa952ba7f163c4a11628f55a4df523b3ef60405160405180910390a4620007c260008383620009e160201b60201c565b5050565b6000620007f48473ffffffffffffffffffffffffffffffffffffffff16620009e660201b62001d211760201c565b1562000963578373ffffffffffffffffffffffffffffffffffffffff1663150b7a026200082662000a0960201b60201c565b8786866040518563ffffffff1660e01b81526004016200084a949392919062000ef2565b6020604051808303816000875af19250505080156200088957506040513d601f19601f8201168201806040525081019062000886919062000fa8565b60015b62000912573d8060008114620008bc576040519150601f19603f3d011682016040523d82523d6000602084013e620008c1565b606091505b506000815114156200090a576040517f08c379a0000000000000000000000000000000000000000000000000000000008152600401620009019062000cf2565b60405180910390fd5b805181602001fd5b63150b7a0260e01b7bffffffffffffffffffffffffffffffffffffffffffffffffffffffff1916817bffffffffffffffffffffffffffffffffffffffffffffffffffffffff19161491505062000968565b600190505b949350505050565b60008073ffffffffffffffffffffffffffffffffffffffff166002600084815260200190815260200160002060009054906101000a900473ffffffffffffffffffffffffffffffffffffffff1673ffffffffffffffffffffffffffffffffffffffff1614159050919050565b505050565b505050565b6000808273ffffffffffffffffffffffffffffffffffffffff163b119050919050565b600033905090565b82805462000a1f9062000af0565b90600052602060002090601f01602090048101928262000a43576000855562000a8f565b82601f1062000a5e57805160ff191683800117855562000a8f565b8280016001018555821562000a8f579182015b8281111562000a8e57825182559160200191906001019062000a71565b5b50905062000a9e919062000aa2565b5090565b5b8082111562000abd57600081600090555060010162000aa3565b5090565b7f4e487b7100000000000000000000000000000000000000000000000000000000600052602260045260246000fd5b6000600282049050600182168062000b0957607f821691505b6020821081141562000b205762000b1f62000ac1565b5b50919050565b6000819050919050565b7f4e487b7100000000000000000000000000000000000000000000000000000000600052601160045260246000fd5b600062000b6c8262000b26565b915062000b798362000b26565b9250827fffffffffffffffffffffffffffffffffffffffffffffffffffffffffffffffff0382111562000bb15762000bb062000b30565b5b828201905092915050565b600062000bc98262000b26565b915062000bd68362000b26565b9250817fffffffffffffffffffffffffffffffffffffffffffffffffffffffffffffffff048311821515161562000c125762000c1162000b30565b5b828202905092915050565b600062000c2a8262000b26565b91507fffffffffffffffffffffffffffffffffffffffffffffffffffffffffffffffff82141562000c605762000c5f62000b30565b5b600182019050919050565b600082825260208201905092915050565b7f4552433732313a207472616e7366657220746f206e6f6e20455243373231526560008201527f63656976657220696d706c656d656e7465720000000000000000000000000000602082015250565b600062000cda60328362000c6b565b915062000ce78262000c7c565b604082019050919050565b6000602082019050818103600083015262000d0d8162000ccb565b9050919050565b7f4552433732313a206d696e7420746f20746865207a65726f2061646472657373600082015250565b600062000d4c60208362000c6b565b915062000d598262000d14565b602082019050919050565b6000602082019050818103600083015262000d7f8162000d3d565b9050919050565b7f4552433732313a20746f6b656e20616c7265616479206d696e74656400000000600082015250565b600062000dbe601c8362000c6b565b915062000dcb8262000d86565b602082019050919050565b6000602082019050818103600083015262000df18162000daf565b9050919050565b600073ffffffffffffffffffffffffffffffffffffffff82169050919050565b600062000e258262000df8565b9050919050565b62000e378162000e18565b82525050565b62000e488162000b26565b82525050565b600081519050919050565b600082825260208201905092915050565b60005b8381101562000e8a57808201518184015260208101905062000e6d565b8381111562000e9a576000848401525b50505050565b6000601f19601f8301169050919050565b600062000ebe8262000e4e565b62000eca818562000e59565b935062000edc81856020860162000e6a565b62000ee78162000ea0565b840191505092915050565b600060808201905062000f09600083018762000e2c565b62000f18602083018662000e2c565b62000f27604083018562000e3d565b818103606083015262000f3b818462000eb1565b905095945050505050565b600080fd5b60007fffffffff0000000000000000000000000000000000000000000000000000000082169050919050565b62000f828162000f4b565b811462000f8e57600080fd5b50565b60008151905062000fa28162000f77565b92915050565b60006020828403121562000fc15762000fc062000f46565b5b600062000fd18482850162000f91565b91505092915050565b613f9a8062000fea6000396000f3fe60806040526004361061021a5760003560e01c80634f6ccce711610123578063a475b5dd116100ab578063d28d88521161006f578063d28d8852146107b7578063d5abeb01146107e2578063d936547e1461080d578063da3ef23f1461084a578063e985e9c5146108735761021a565b8063a475b5dd146106e4578063b09f1266146106fb578063b88d4fde14610726578063c66828621461074f578063c87b56dd1461077a5761021a565b80636c0360eb116100f25780636c0360eb146105ff57806370a082311461062a5780637f00c7a61461066757806395d89b4114610690578063a22cb465146106bb5761021a565b80634f6ccce71461052f578063518302271461056c5780635c975abb146105975780636352211e146105c25761021a565b806323b872dd116101a657806340c10f191161017557806340c10f191461045b578063421c14c81461047757806342842e0e146104b457806344a0d68a146104dd5780634a4c560d146105065761021a565b806323b872dd146103c25780632f745c59146103eb57806330cc7ae0146104285780633ccfd60b146104515761021a565b8063081c8c44116101ed578063081c8c44146102ed578063095ea7b31461031857806313faede61461034157806318160ddd1461036c578063239c70ae146103975761021a565b806301ffc9a71461021f57806302329a291461025c57806306fdde0314610285578063081812fc146102b0575b600080fd5b34801561022b57600080fd5b5061024660048036038101906102419190612ad0565b6108b0565b6040516102539190612b18565b60405180910390f35b34801561026857600080fd5b50610283600480360381019061027e9190612b5f565b610992565b005b34801561029157600080fd5b5061029a610a3f565b6040516102a79190612c25565b60405180910390f35b3480156102bc57600080fd5b506102d760048036038101906102d29190612c7d565b610ad1565b6040516102e49190612ceb565b60405180910390f35b3480156102f957600080fd5b50610302610b56565b60405161030f9190612c25565b60405180910390f35b34801561032457600080fd5b5061033f600480360381019061033a9190612d32565b610be4565b005b34801561034d57600080fd5b50610356610cfc565b6040516103639190612d81565b60405180910390f35b34801561037857600080fd5b50610381610d02565b60405161038e9190612d81565b60405180910390f35b3480156103a357600080fd5b506103ac610d0f565b6040516103b99190612d81565b60405180910390f35b3480156103ce57600080fd5b506103e960048036038101906103e49190612d9c565b610d15565b005b3480156103f757600080fd5b50610412600480360381019061040d9190612d32565b610d75565b60405161041f9190612d81565b60405180910390f35b34801561043457600080fd5b5061044f600480360381019061044a9190612def565b610e1a565b005b610459610f05565b005b61047560048036038101906104709190612d32565b611030565b005b34801561048357600080fd5b5061049e60048036038101906104999190612def565b611191565b6040516104ab9190612eda565b60405180910390f35b3480156104c057600080fd5b506104db60048036038101906104d69190612d9c565b61123f565b005b3480156104e957600080fd5b5061050460048036038101906104ff9190612c7d565b61125f565b005b34801561051257600080fd5b5061052d60048036038101906105289190612def565b6112f9565b005b34801561053b57600080fd5b5061055660048036038101906105519190612c7d565b6113e4565b6040516105639190612d81565b60405180910390f35b34801561057857600080fd5b50610581611455565b60405161058e9190612b18565b60405180910390f35b3480156105a357600080fd5b506105ac611468565b6040516105b99190612b18565b60405180910390f35b3480156105ce57600080fd5b506105e960048036038101906105e49190612c7d565b61147b565b6040516105f69190612ceb565b60405180910390f35b34801561060b57600080fd5b5061061461152d565b6040516106219190612c25565b60405180910390f35b34801561063657600080fd5b50610651600480360381019061064c9190612def565b6115bb565b60405161065e9190612d81565b60405180910390f35b34801561067357600080fd5b5061068e60048036038101906106899190612c7d565b611673565b005b34801561069c57600080fd5b506106a561170d565b6040516106b29190612c25565b60405180910390f35b3480156106c757600080fd5b506106e260048036038101906106dd9190612efc565b61179f565b005b3480156106f057600080fd5b506106f96117b5565b005b34801561070757600080fd5b50610710611862565b60405161071d9190612c25565b60405180910390f35b34801561073257600080fd5b5061074d60048036038101906107489190613071565b6118f0565b005b34801561075b57600080fd5b50610764611952565b6040516107719190612c25565b60405180910390f35b34801561078657600080fd5b506107a1600480360381019061079c9190612c7d565b6119e0565b6040516107ae9190612c25565b60405180910390f35b3480156107c357600080fd5b506107cc611b2f565b6040516107d99190612c25565b60405180910390f35b3480156107ee57600080fd5b506107f7611bbd565b6040516108049190612d81565b60405180910390f35b34801561081957600080fd5b50610834600480360381019061082f9190612def565b611bc3565b6040516108419190612b18565b60405180910390f35b34801561085657600080fd5b50610871600480360381019061086c9190613195565b611be3565b005b34801561087f57600080fd5b5061089a600480360381019061089591906131de565b611c8d565b6040516108a79190612b18565b60405180910390f35b60007f80ac58cd000000000000000000000000000000000000000000000000000000007bffffffffffffffffffffffffffffffffffffffffffffffffffffffff1916827bffffffffffffffffffffffffffffffffffffffffffffffffffffffff1916148061097b57507f5b5e139f000000000000000000000000000000000000000000000000000000007bffffffffffffffffffffffffffffffffffffffffffffffffffffffff1916827bffffffffffffffffffffffffffffffffffffffffffffffffffffffff1916145b8061098b575061098a82611d44565b5b9050919050565b3373ffffffffffffffffffffffffffffffffffffffff16600a60009054906101000a900473ffffffffffffffffffffffffffffffffffffffff1673ffffffffffffffffffffffffffffffffffffffff1614610a22576040517f08c379a0000000000000000000000000000000000000000000000000000000008152600401610a1990613290565b60405180910390fd5b80601360006101000a81548160ff02191690831515021790555050565b606060008054610a4e906132df565b80601f0160208091040260200160405190810160405280929190818152602001828054610a7a906132df565b8015610ac75780601f10610a9c57610100808354040283529160200191610ac7565b820191906000526020600020905b815481529060010190602001808311610aaa57829003601f168201915b5050505050905090565b6000610adc82611dae565b610b1b576040517f08c379a0000000000000000000000000000000000000000000000000000000008152600401610b1290613383565b60405180910390fd5b6004600083815260200190815260200160002060009054906101000a900473ffffffffffffffffffffffffffffffffffffffff169050919050565b600d8054610b63906132df565b80601f0160208091040260200160405190810160405280929190818152602001828054610b8f906132df565b8015610bdc5780601f10610bb157610100808354040283529160200191610bdc565b820191906000526020600020905b815481529060010190602001808311610bbf57829003601f168201915b505050505081565b6000610bef8261147b565b90508073ffffffffffffffffffffffffffffffffffffffff168373ffffffffffffffffffffffffffffffffffffffff161415610c60576040517f08c379a0000000000000000000000000000000000000000000000000000000008152600401610c5790613415565b60405180910390fd5b8073ffffffffffffffffffffffffffffffffffffffff16610c7f611e1a565b73ffffffffffffffffffffffffffffffffffffffff161480610cae5750610cad81610ca8611e1a565b611c8d565b5b610ced576040517f08c379a0000000000000000000000000000000000000000000000000000000008152600401610ce4906134a7565b60405180910390fd5b610cf78383611e22565b505050565b60105481565b6000600880549050905090565b60125481565b610d26610d20611e1a565b82611edb565b610d65576040517f08c379a0000000000000000000000000000000000000000000000000000000008152600401610d5c90613539565b60405180910390fd5b610d70838383611fb9565b505050565b6000610d80836115bb565b8210610dc1576040517f08c379a0000000000000000000000000000000000000000000000000000000008152600401610db8906135cb565b60405180910390fd5b600660008473ffffffffffffffffffffffffffffffffffffffff1673ffffffffffffffffffffffffffffffffffffffff168152602001908152602001600020600083815260200190815260200160002054905092915050565b3373ffffffffffffffffffffffffffffffffffffffff16600a60009054906101000a900473ffffffffffffffffffffffffffffffffffffffff1673ffffffffffffffffffffffffffffffffffffffff1614610eaa576040517f08c379a0000000000000000000000000000000000000000000000000000000008152600401610ea190613290565b60405180910390fd5b6000601460008373ffffffffffffffffffffffffffffffffffffffff1673ffffffffffffffffffffffffffffffffffffffff16815260200190815260200160002060006101000a81548160ff02191690831515021790555050565b3373ffffffffffffffffffffffffffffffffffffffff16600a60009054906101000a900473ffffffffffffffffffffffffffffffffffffffff1673ffffffffffffffffffffffffffffffffffffffff1614610f95576040517f08c379a0000000000000000000000000000000000000000000000000000000008152600401610f8c90613290565b60405180910390fd5b6000600a60009054906101000a900473ffffffffffffffffffffffffffffffffffffffff1673ffffffffffffffffffffffffffffffffffffffff1647604051610fdd9061361c565b60006040518083038185875af1925050503d806000811461101a576040519150601f19603f3d011682016040523d82523d6000602084013e61101f565b606091505b505090508061102d57600080fd5b50565b600061103a610d02565b9050601360009054906101000a900460ff161561105657600080fd5b6000821161106357600080fd5b60125482111561107257600080fd5b60115482826110819190613660565b111561108c57600080fd5b600a60009054906101000a900473ffffffffffffffffffffffffffffffffffffffff1673ffffffffffffffffffffffffffffffffffffffff163373ffffffffffffffffffffffffffffffffffffffff16146111555760011515601460003373ffffffffffffffffffffffffffffffffffffffff1673ffffffffffffffffffffffffffffffffffffffff16815260200190815260200160002060009054906101000a900460ff16151514611154578160105461114791906136b6565b34101561115357600080fd5b5b5b6000600190505b82811161118b576111788482846111739190613660565b612220565b808061118390613710565b91505061115c565b50505050565b6060600061119e836115bb565b905060008167ffffffffffffffff8111156111bc576111bb612f46565b5b6040519080825280602002602001820160405280156111ea5781602001602082028036833780820191505090505b50905060005b82811015611234576112028582610d75565b82828151811061121557611214613759565b5b602002602001018181525050808061122c90613710565b9150506111f0565b508092505050919050565b61125a838383604051806020016040528060008152506118f0565b505050565b3373ffffffffffffffffffffffffffffffffffffffff16600a60009054906101000a900473ffffffffffffffffffffffffffffffffffffffff1673ffffffffffffffffffffffffffffffffffffffff16146112ef576040517f08c379a00000000000000000000000000000000000000000000000000000000081526004016112e690613290565b60405180910390fd5b8060108190555050565b3373ffffffffffffffffffffffffffffffffffffffff16600a60009054906101000a900473ffffffffffffffffffffffffffffffffffffffff1673ffffffffffffffffffffffffffffffffffffffff1614611389576040517f08c379a000000000000000000000000000000000000000000000000000000000815260040161138090613290565b60405180910390fd5b6001601460008373ffffffffffffffffffffffffffffffffffffffff1673ffffffffffffffffffffffffffffffffffffffff16815260200190815260200160002060006101000a81548160ff02191690831515021790555050565b60006113ee610d02565b821061142f576040517f08c379a0000000000000000000000000000000000000000000000000000000008152600401611426906137fa565b60405180910390fd5b6008828154811061144357611442613759565b5b90600052602060002001549050919050565b601360019054906101000a900460ff1681565b601360009054906101000a900460ff1681565b6000806002600084815260200190815260200160002060009054906101000a900473ffffffffffffffffffffffffffffffffffffffff169050600073ffffffffffffffffffffffffffffffffffffffff168173ffffffffffffffffffffffffffffffffffffffff161415611524576040517f08c379a000000000000000000000000000000000000000000000000000000000815260040161151b9061388c565b60405180910390fd5b80915050919050565b600b805461153a906132df565b80601f0160208091040260200160405190810160405280929190818152602001828054611566906132df565b80156115b35780601f10611588576101008083540402835291602001916115b3565b820191906000526020600020905b81548152906001019060200180831161159657829003601f168201915b505050505081565b60008073ffffffffffffffffffffffffffffffffffffffff168273ffffffffffffffffffffffffffffffffffffffff16141561162c576040517f08c379a00000000000000000000000000000000000000000000000000000000081526004016116239061391e565b60405180910390fd5b600360008373ffffffffffffffffffffffffffffffffffffffff1673ffffffffffffffffffffffffffffffffffffffff168152602001908152602001600020549050919050565b3373ffffffffffffffffffffffffffffffffffffffff16600a60009054906101000a900473ffffffffffffffffffffffffffffffffffffffff1673ffffffffffffffffffffffffffffffffffffffff1614611703576040517f08c379a00000000000000000000000000000000000000000000000000000000081526004016116fa90613290565b60405180910390fd5b8060128190555050565b60606001805461171c906132df565b80601f0160208091040260200160405190810160405280929190818152602001828054611748906132df565b80156117955780601f1061176a57610100808354040283529160200191611795565b820191906000526020600020905b81548152906001019060200180831161177857829003601f168201915b5050505050905090565b6117b16117aa611e1a565b838361223e565b5050565b3373ffffffffffffffffffffffffffffffffffffffff16600a60009054906101000a900473ffffffffffffffffffffffffffffffffffffffff1673ffffffffffffffffffffffffffffffffffffffff1614611845576040517f08c379a000000000000000000000000000000000000000000000000000000000815260040161183c90613290565b60405180910390fd5b6001601360016101000a81548160ff021916908315150217905550565b600f805461186f906132df565b80601f016020809104026020016040519081016040528092919081815260200182805461189b906132df565b80156118e85780601f106118bd576101008083540402835291602001916118e8565b820191906000526020600020905b8154815290600101906020018083116118cb57829003601f168201915b505050505081565b6119016118fb611e1a565b83611edb565b611940576040517f08c379a000000000000000000000000000000000000000000000000000000000815260040161193790613539565b60405180910390fd5b61194c848484846123ab565b50505050565b600c805461195f906132df565b80601f016020809104026020016040519081016040528092919081815260200182805461198b906132df565b80156119d85780601f106119ad576101008083540402835291602001916119d8565b820191906000526020600020905b8154815290600101906020018083116119bb57829003601f168201915b505050505081565b60606119eb82611dae565b611a2a576040517f08c379a0000000000000000000000000000000000000000000000000000000008152600401611a21906139b0565b60405180910390fd5b601360019054906101000a900460ff16611ad057600d8054611a4b906132df565b80601f0160208091040260200160405190810160405280929190818152602001828054611a77906132df565b8015611ac45780601f10611a9957610100808354040283529160200191611ac4565b820191906000526020600020905b815481529060010190602001808311611aa757829003601f168201915b50505050509050611b2a565b6000611ada612407565b5111611af55760405180602001604052806000815250611b27565b611afd612407565b611b0683612499565b604051602001611b17929190613a0c565b6040516020818303038152906040525b90505b919050565b600e8054611b3c906132df565b80601f0160208091040260200160405190810160405280929190818152602001828054611b68906132df565b8015611bb55780601f10611b8a57610100808354040283529160200191611bb5565b820191906000526020600020905b815481529060010190602001808311611b9857829003601f168201915b505050505081565b60115481565b60146020528060005260406000206000915054906101000a900460ff1681565b3373ffffffffffffffffffffffffffffffffffffffff16600a60009054906101000a900473ffffffffffffffffffffffffffffffffffffffff1673ffffffffffffffffffffffffffffffffffffffff1614611c73576040517f08c379a0000000000000000000000000000000000000000000000000000000008152600401611c6a90613290565b60405180910390fd5b80600c9080519060200190611c899291906129c1565b5050565b6000600560008473ffffffffffffffffffffffffffffffffffffffff1673ffffffffffffffffffffffffffffffffffffffff16815260200190815260200160002060008373ffffffffffffffffffffffffffffffffffffffff1673ffffffffffffffffffffffffffffffffffffffff16815260200190815260200160002060009054906101000a900460ff16905092915050565b6000808273ffffffffffffffffffffffffffffffffffffffff163b119050919050565b60007f01ffc9a7000000000000000000000000000000000000000000000000000000007bffffffffffffffffffffffffffffffffffffffffffffffffffffffff1916827bffffffffffffffffffffffffffffffffffffffffffffffffffffffff1916149050919050565b60008073ffffffffffffffffffffffffffffffffffffffff166002600084815260200190815260200160002060009054906101000a900473ffffffffffffffffffffffffffffffffffffffff1673ffffffffffffffffffffffffffffffffffffffff1614159050919050565b600033905090565b816004600083815260200190815260200160002060006101000a81548173ffffffffffffffffffffffffffffffffffffffff021916908373ffffffffffffffffffffffffffffffffffffffff160217905550808273ffffffffffffffffffffffffffffffffffffffff16611e958361147b565b73ffffffffffffffffffffffffffffffffffffffff167f8c5be1e5ebec7d5bd14f71427d1e84f3dd0314c0f7b2291e5b200ac8c7c3b92560405160405180910390a45050565b6000611ee682611dae565b611f25576040517f08c379a0000000000000000000000000000000000000000000000000000000008152600401611f1c90613aa2565b60405180910390fd5b6000611f308361147b565b90508073ffffffffffffffffffffffffffffffffffffffff168473ffffffffffffffffffffffffffffffffffffffff161480611f9f57508373ffffffffffffffffffffffffffffffffffffffff16611f8784610ad1565b73ffffffffffffffffffffffffffffffffffffffff16145b80611fb05750611faf8185611c8d565b5b91505092915050565b8273ffffffffffffffffffffffffffffffffffffffff16611fd98261147b565b73ffffffffffffffffffffffffffffffffffffffff161461202f576040517f08c379a000000000000000000000000000000000000000000000000000000000815260040161202690613b34565b60405180910390fd5b600073ffffffffffffffffffffffffffffffffffffffff168273ffffffffffffffffffffffffffffffffffffffff16141561209f576040517f08c379a000000000000000000000000000000000000000000000000000000000815260040161209690613bc6565b60405180910390fd5b6120aa8383836125fa565b6120b5600082611e22565b6001600360008573ffffffffffffffffffffffffffffffffffffffff1673ffffffffffffffffffffffffffffffffffffffff16815260200190815260200160002060008282546121059190613be6565b925050819055506001600360008473ffffffffffffffffffffffffffffffffffffffff1673ffffffffffffffffffffffffffffffffffffffff168152602001908152602001600020600082825461215c9190613660565b92505081905550816002600083815260200190815260200160002060006101000a81548173ffffffffffffffffffffffffffffffffffffffff021916908373ffffffffffffffffffffffffffffffffffffffff160217905550808273ffffffffffffffffffffffffffffffffffffffff168473ffffffffffffffffffffffffffffffffffffffff167fddf252ad1be2c89b69c2b068fc378daa952ba7f163c4a11628f55a4df523b3ef60405160405180910390a461221b8383836125ff565b505050565b61223a828260405180602001604052806000815250612604565b5050565b8173ffffffffffffffffffffffffffffffffffffffff168373ffffffffffffffffffffffffffffffffffffffff1614156122ad576040517f08c379a00000000000000000000000000000000000000000000000000000000081526004016122a490613c66565b60405180910390fd5b80600560008573ffffffffffffffffffffffffffffffffffffffff1673ffffffffffffffffffffffffffffffffffffffff16815260200190815260200160002060008473ffffffffffffffffffffffffffffffffffffffff1673ffffffffffffffffffffffffffffffffffffffff16815260200190815260200160002060006101000a81548160ff0219169083151502179055508173ffffffffffffffffffffffffffffffffffffffff168373ffffffffffffffffffffffffffffffffffffffff167f17307eab39ab6107e8899845ad3d59bd9653f200f220920489ca2b5937696c318360405161239e9190612b18565b60405180910390a3505050565b6123b6848484611fb9565b6123c28484848461265f565b612401576040517f08c379a00000000000000000000000000000000000000000000000000000000081526004016123f890613cf8565b60405180910390fd5b50505050565b6060600b8054612416906132df565b80601f0160208091040260200160405190810160405280929190818152602001828054612442906132df565b801561248f5780601f106124645761010080835404028352916020019161248f565b820191906000526020600020905b81548152906001019060200180831161247257829003601f168201915b5050505050905090565b606060008214156124e1576040518060400160405280600181526020017f300000000000000000000000000000000000000000000000000000000000000081525090506125f5565b600082905060005b600082146125135780806124fc90613710565b915050600a8261250c9190613d47565b91506124e9565b60008167ffffffffffffffff81111561252f5761252e612f46565b5b6040519080825280601f01601f1916602001820160405280156125615781602001600182028036833780820191505090505b5090505b600085146125ee5760018261257a9190613be6565b9150600a856125899190613d78565b60306125959190613660565b60f81b8183815181106125ab576125aa613759565b5b60200101907effffffffffffffffffffffffffffffffffffffffffffffffffffffffffffff1916908160001a905350600a856125e79190613d47565b9450612565565b8093505050505b919050565b505050565b505050565b61260e83836127e7565b61261b600084848461265f565b61265a576040517f08c379a000000000000000000000000000000000000000000000000000000000815260040161265190613cf8565b60405180910390fd5b505050565b60006126808473ffffffffffffffffffffffffffffffffffffffff16611d21565b156127da578373ffffffffffffffffffffffffffffffffffffffff1663150b7a026126a9611e1a565b8786866040518563ffffffff1660e01b81526004016126cb9493929190613dfe565b6020604051808303816000875af192505050801561270757506040513d601f19601f820116820180604052508101906127049190613e5f565b60015b61278a573d8060008114612737576040519150601f19603f3d011682016040523d82523d6000602084013e61273c565b606091505b50600081511415612782576040517f08c379a000000000000000000000000000000000000000000000000000000000815260040161277990613cf8565b60405180910390fd5b805181602001fd5b63150b7a0260e01b7bffffffffffffffffffffffffffffffffffffffffffffffffffffffff1916817bffffffffffffffffffffffffffffffffffffffffffffffffffffffff1916149150506127df565b600190505b949350505050565b600073ffffffffffffffffffffffffffffffffffffffff168273ffffffffffffffffffffffffffffffffffffffff161415612857576040517f08c379a000000000000000000000000000000000000000000000000000000000815260040161284e90613ed8565b60405180910390fd5b61286081611dae565b156128a0576040517f08c379a000000000000000000000000000000000000000000000000000000000815260040161289790613f44565b60405180910390fd5b6128ac600083836125fa565b6001600360008473ffffffffffffffffffffffffffffffffffffffff1673ffffffffffffffffffffffffffffffffffffffff16815260200190815260200160002060008282546128fc9190613660565b92505081905550816002600083815260200190815260200160002060006101000a81548173ffffffffffffffffffffffffffffffffffffffff021916908373ffffffffffffffffffffffffffffffffffffffff160217905550808273ffffffffffffffffffffffffffffffffffffffff16600073ffffffffffffffffffffffffffffffffffffffff167fddf252ad1be2c89b69c2b068fc378daa952ba7f163c4a11628f55a4df523b3ef60405160405180910390a46129bd600083836125ff565b5050565b8280546129cd906132df565b90600052602060002090601f0160209004810192826129ef5760008555612a36565b82601f10612a0857805160ff1916838001178555612a36565b82800160010185558215612a36579182015b82811115612a35578251825591602001919060010190612a1a565b5b509050612a439190612a47565b5090565b5b80821115612a60576000816000905550600101612a48565b5090565b6000604051905090565b600080fd5b600080fd5b60007fffffffff0000000000000000000000000000000000000000000000000000000082169050919050565b612aad81612a78565b8114612ab857600080fd5b50565b600081359050612aca81612aa4565b92915050565b600060208284031215612ae657612ae5612a6e565b5b6000612af484828501612abb565b91505092915050565b60008115159050919050565b612b1281612afd565b82525050565b6000602082019050612b2d6000830184612b09565b92915050565b612b3c81612afd565b8114612b4757600080fd5b50565b600081359050612b5981612b33565b92915050565b600060208284031215612b7557612b74612a6e565b5b6000612b8384828501612b4a565b91505092915050565b600081519050919050565b600082825260208201905092915050565b60005b83811015612bc6578082015181840152602081019050612bab565b83811115612bd5576000848401525b50505050565b6000601f19601f8301169050919050565b6000612bf782612b8c565b612c018185612b97565b9350612c11818560208601612ba8565b612c1a81612bdb565b840191505092915050565b60006020820190508181036000830152612c3f8184612bec565b905092915050565b6000819050919050565b612c5a81612c47565b8114612c6557600080fd5b50565b600081359050612c7781612c51565b92915050565b600060208284031215612c9357612c92612a6e565b5b6000612ca184828501612c68565b91505092915050565b600073ffffffffffffffffffffffffffffffffffffffff82169050919050565b6000612cd582612caa565b9050919050565b612ce581612cca565b82525050565b6000602082019050612d006000830184612cdc565b92915050565b612d0f81612cca565b8114612d1a57600080fd5b50565b600081359050612d2c81612d06565b92915050565b60008060408385031215612d4957612d48612a6e565b5b6000612d5785828601612d1d565b9250506020612d6885828601612c68565b9150509250929050565b612d7b81612c47565b82525050565b6000602082019050612d966000830184612d72565b92915050565b600080600060608486031215612db557612db4612a6e565b5b6000612dc386828701612d1d565b9350506020612dd486828701612d1d565b9250506040612de586828701612c68565b9150509250925092565b600060208284031215612e0557612e04612a6e565b5b6000612e1384828501612d1d565b91505092915050565b600081519050919050565b600082825260208201905092915050565b6000819050602082019050919050565b612e5181612c47565b82525050565b6000612e638383612e48565b60208301905092915050565b6000602082019050919050565b6000612e8782612e1c565b612e918185612e27565b9350612e9c83612e38565b8060005b83811015612ecd578151612eb48882612e57565b9750612ebf83612e6f565b925050600181019050612ea0565b5085935050505092915050565b60006020820190508181036000830152612ef48184612e7c565b905092915050565b60008060408385031215612f1357612f12612a6e565b5b6000612f2185828601612d1d565b9250506020612f3285828601612b4a565b9150509250929050565b600080fd5b600080fd5b7f4e487b7100000000000000000000000000000000000000000000000000000000600052604160045260246000fd5b612f7e82612bdb565b810181811067ffffffffffffffff82111715612f9d57612f9c612f46565b5b80604052505050565b6000612fb0612a64565b9050612fbc8282612f75565b919050565b600067ffffffffffffffff821115612fdc57612fdb612f46565b5b612fe582612bdb565b9050602081019050919050565b82818337600083830152505050565b600061301461300f84612fc1565b612fa6565b9050828152602081018484840111156130305761302f612f41565b5b61303b848285612ff2565b509392505050565b600082601f83011261305857613057612f3c565b5b8135613068848260208601613001565b91505092915050565b6000806000806080858703121561308b5761308a612a6e565b5b600061309987828801612d1d565b94505060206130aa87828801612d1d565b93505060406130bb87828801612c68565b925050606085013567ffffffffffffffff8111156130dc576130db612a73565b5b6130e887828801613043565b91505092959194509250565b600067ffffffffffffffff82111561310f5761310e612f46565b5b61311882612bdb565b9050602081019050919050565b6000613138613133846130f4565b612fa6565b90508281526020810184848401111561315457613153612f41565b5b61315f848285612ff2565b509392505050565b600082601f83011261317c5761317b612f3c565b5b813561318c848260208601613125565b91505092915050565b6000602082840312156131ab576131aa612a6e565b5b600082013567ffffffffffffffff8111156131c9576131c8612a73565b5b6131d584828501613167565b91505092915050565b600080604083850312156131f5576131f4612a6e565b5b600061320385828601612d1d565b925050602061321485828601612d1d565b9150509250929050565b7f4f776e61626c653a2063616c6c6572206973206e6f7420746865206f776e657260008201527f2e00000000000000000000000000000000000000000000000000000000000000602082015250565b600061327a602183612b97565b91506132858261321e565b604082019050919050565b600060208201905081810360008301526132a98161326d565b9050919050565b7f4e487b7100000000000000000000000000000000000000000000000000000000600052602260045260246000fd5b600060028204905060018216806132f757607f821691505b6020821081141561330b5761330a6132b0565b5b50919050565b7f4552433732313a20617070726f76656420717565727920666f72206e6f6e657860008201527f697374656e7420746f6b656e0000000000000000000000000000000000000000602082015250565b600061336d602c83612b97565b915061337882613311565b604082019050919050565b6000602082019050818103600083015261339c81613360565b9050919050565b7f4552433732313a20617070726f76616c20746f2063757272656e74206f776e6560008201527f7200000000000000000000000000000000000000000000000000000000000000602082015250565b60006133ff602183612b97565b915061340a826133a3565b604082019050919050565b6000602082019050818103600083015261342e816133f2565b9050919050565b7f4552433732313a20617070726f76652063616c6c6572206973206e6f74206f7760008201527f6e6572206e6f7220617070726f76656420666f7220616c6c0000000000000000602082015250565b6000613491603883612b97565b915061349c82613435565b604082019050919050565b600060208201905081810360008301526134c081613484565b9050919050565b7f4552433732313a207472616e736665722063616c6c6572206973206e6f74206f60008201527f776e6572206e6f7220617070726f766564000000000000000000000000000000602082015250565b6000613523603183612b97565b915061352e826134c7565b604082019050919050565b6000602082019050818103600083015261355281613516565b9050919050565b7f455243373231456e756d657261626c653a206f776e657220696e646578206f7560008201527f74206f6620626f756e6473000000000000000000000000000000000000000000602082015250565b60006135b5602b83612b97565b91506135c082613559565b604082019050919050565b600060208201905081810360008301526135e4816135a8565b9050919050565b600081905092915050565b50565b60006136066000836135eb565b9150613611826135f6565b600082019050919050565b6000613627826135f9565b9150819050919050565b7f4e487b7100000000000000000000000000000000000000000000000000000000600052601160045260246000fd5b600061366b82612c47565b915061367683612c47565b9250827fffffffffffffffffffffffffffffffffffffffffffffffffffffffffffffffff038211156136ab576136aa613631565b5b828201905092915050565b60006136c182612c47565b91506136cc83612c47565b9250817fffffffffffffffffffffffffffffffffffffffffffffffffffffffffffffffff048311821515161561370557613704613631565b5b828202905092915050565b600061371b82612c47565b91507fffffffffffffffffffffffffffffffffffffffffffffffffffffffffffffffff82141561374e5761374d613631565b5b600182019050919050565b7f4e487b7100000000000000000000000000000000000000000000000000000000600052603260045260246000fd5b7f455243373231456e756d657261626c653a20676c6f62616c20696e646578206f60008201527f7574206f6620626f756e64730000000000000000000000000000000000000000602082015250565b60006137e4602c83612b97565b91506137ef82613788565b604082019050919050565b60006020820190508181036000830152613813816137d7565b9050919050565b7f4552433732313a206f776e657220717565727920666f72206e6f6e657869737460008201527f656e7420746f6b656e0000000000000000000000000000000000000000000000602082015250565b6000613876602983612b97565b91506138818261381a565b604082019050919050565b600060208201905081810360008301526138a581613869565b9050919050565b7f4552433732313a2062616c616e636520717565727920666f7220746865207a6560008201527f726f206164647265737300000000000000000000000000000000000000000000602082015250565b6000613908602a83612b97565b9150613913826138ac565b604082019050919050565b60006020820190508181036000830152613937816138fb565b9050919050565b7f4552433732314d657461646174613a2055524920717565727920666f72206e6f60008201527f6e6578697374656e7420746f6b656e0000000000000000000000000000000000602082015250565b600061399a602f83612b97565b91506139a58261393e565b604082019050919050565b600060208201905081810360008301526139c98161398d565b9050919050565b600081905092915050565b60006139e682612b8c565b6139f081856139d0565b9350613a00818560208601612ba8565b80840191505092915050565b6000613a1882856139db565b9150613a2482846139db565b91508190509392505050565b7f4552433732313a206f70657261746f7220717565727920666f72206e6f6e657860008201527f697374656e7420746f6b656e0000000000000000000000000000000000000000602082015250565b6000613a8c602c83612b97565b9150613a9782613a30565b604082019050919050565b60006020820190508181036000830152613abb81613a7f565b9050919050565b7f4552433732313a207472616e736665722066726f6d20696e636f72726563742060008201527f6f776e6572000000000000000000000000000000000000000000000000000000602082015250565b6000613b1e602583612b97565b9150613b2982613ac2565b604082019050919050565b60006020820190508181036000830152613b4d81613b11565b9050919050565b7f4552433732313a207472616e7366657220746f20746865207a65726f2061646460008201527f7265737300000000000000000000000000000000000000000000000000000000602082015250565b6000613bb0602483612b97565b9150613bbb82613b54565b604082019050919050565b60006020820190508181036000830152613bdf81613ba3565b9050919050565b6000613bf182612c47565b9150613bfc83612c47565b925082821015613c0f57613c0e613631565b5b828203905092915050565b7f4552433732313a20617070726f766520746f2063616c6c657200000000000000600082015250565b6000613c50601983612b97565b9150613c5b82613c1a565b602082019050919050565b60006020820190508181036000830152613c7f81613c43565b9050919050565b7f4552433732313a207472616e7366657220746f206e6f6e20455243373231526560008201527f63656976657220696d706c656d656e7465720000000000000000000000000000602082015250565b6000613ce2603283612b97565b9150613ced82613c86565b604082019050919050565b60006020820190508181036000830152613d1181613cd5565b9050919050565b7f4e487b7100000000000000000000000000000000000000000000000000000000600052601260045260246000fd5b6000613d5282612c47565b9150613d5d83612c47565b925082613d6d57613d6c613d18565b5b828204905092915050565b6000613d8382612c47565b9150613d8e83612c47565b925082613d9e57613d9d613d18565b5b828206905092915050565b600081519050919050565b600082825260208201905092915050565b6000613dd082613da9565b613dda8185613db4565b9350613dea818560208601612ba8565b613df381612bdb565b840191505092915050565b6000608082019050613e136000830187612cdc565b613e206020830186612cdc565b613e2d6040830185612d72565b8181036060830152613e3f8184613dc5565b905095945050505050565b600081519050613e5981612aa4565b92915050565b600060208284031215613e7557613e74612a6e565b5b6000613e8384828501613e4a565b91505092915050565b7f4552433732313a206d696e7420746f20746865207a65726f2061646472657373600082015250565b6000613ec2602083612b97565b9150613ecd82613e8c565b602082019050919050565b60006020820190508181036000830152613ef181613eb5565b9050919050565b7f4552433732313a20746f6b656e20616c7265616479206d696e74656400000000600082015250565b6000613f2e601c83612b97565b9150613f3982613ef8565b602082019050919050565b60006020820190508181036000830152613f5d81613f21565b905091905056fea2646970667358221220aa866b376f0d1774bb514575b8fe7b4bce6e7d8e3aba4fd604e5b2b91dd1098a64736f6c634300080c003368747470733a2f2f6c656f6d657461646174612e73332e61702d6e6f727468656173742d322e616d617a6f6e6177732e636f6d2f696d616765732f6d657461646174612f",
  "immutableReferences": {},
  "source": "// SPDX-License-Identifier: MIT\r\n\r\npragma solidity ^0.8.0;\r\n\r\nimport \"./ERC721.sol\";\r\n\r\ncontract Leo is ERC721\r\n{\r\n    using Strings for uint256;\r\n\r\n    address owner;\r\n    string public baseURI = \"https://leometadata.s3.ap-northeast-2.amazonaws.com/images/metadata/\";\r\n    string public baseExtension = \".json\";\r\n    string public notRevealedUri = \"not revealed amazon s3 uri\";\r\n    string public _name = name();\r\n    string public _symbol = symbol();\r\n    uint256 public cost = 0.05 ether;\r\n    uint256 public maxSupply = 123;\r\n    uint256 public maxMintAmount = 2;\r\n    bool public paused = false;\r\n    bool public revealed = false;\r\n    mapping(address => bool) public whitelisted;\r\n\r\n    constructor () ERC721(\"Leo\", \"LEO\")\r\n    {\r\n        owner = msg.sender;\r\n        mint(msg.sender, 5); // For test purpose\r\n    }\r\n\r\n    modifier onlyOwner()\r\n    {\r\n        require(owner == msg.sender, \"Ownable: caller is not the owner.\"); _;\r\n    }\r\n\r\n    // internal\r\n    function _baseURI() internal view virtual override returns (string memory)\r\n    {\r\n        return baseURI;\r\n    }\r\n\r\n    function tokenURI(uint256 tokenId) public view virtual override returns (string memory) {\r\n        require(_exists(tokenId), \"ERC721Metadata: URI query for nonexistent token\");\r\n\r\n        if (!revealed)\r\n        {\r\n            return notRevealedUri;\r\n        }\r\n\r\n        return bytes(_baseURI()).length > 0 ? string(abi.encodePacked(_baseURI(), tokenId.toString())) : \"\";\r\n    }\r\n    \r\n    // enumerate all of ``owner``'s tokens.\r\n    function tokensfromWallet(address _owner) public view returns (uint256[] memory)\r\n    {\r\n        uint256 ownerTokenCount = balanceOf(_owner);\r\n        uint256[] memory tokenIds = new uint256[](ownerTokenCount);\r\n        for (uint256 i; i < ownerTokenCount; i++) {\r\n        tokenIds[i] = tokenOfOwnerByIndex(_owner, i);\r\n        }\r\n        return tokenIds;\r\n    }    \r\n\r\n    function mint(address _recipient, uint256 _mintAmount) public payable\r\n    {\r\n        uint256 supply = totalSupply();\r\n        require(!paused);\r\n        require(_mintAmount > 0);\r\n        require(_mintAmount <= maxMintAmount);\r\n        require(supply + _mintAmount <= maxSupply);\r\n\r\n        if (msg.sender != owner) {\r\n            if(whitelisted[msg.sender] != true) {\r\n            require(msg.value >= cost * _mintAmount);\r\n            }\r\n        }\r\n\r\n        for (uint256 i = 1; i <= _mintAmount; i++) {\r\n        _safeMint(_recipient, supply + i);\r\n        }\r\n    }\r\n\r\n    // onlyOwner\r\n    function reveal() public onlyOwner {\r\n        revealed = true;\r\n    }\r\n\r\n    function setCost(uint256 _newCost) public onlyOwner {\r\n        cost = _newCost;\r\n    }\r\n\r\n    function pause(bool _state) public onlyOwner {\r\n        paused = _state;\r\n    }\r\n\r\n    function setmaxMintAmount(uint256 _newmaxMintAmount) public onlyOwner {\r\n        maxMintAmount = _newmaxMintAmount;\r\n    }\r\n\r\n    function setBaseExtension(string memory _newBaseExtension) public onlyOwner {\r\n        baseExtension = _newBaseExtension;\r\n    }\r\n    \r\n    function whitelistUser(address _user) public onlyOwner {\r\n        whitelisted[_user] = true;\r\n    }\r\n \r\n    function removeWhitelistUser(address _user) public onlyOwner {\r\n        whitelisted[_user] = false;\r\n    }\r\n\r\n    function withdraw() public payable onlyOwner\r\n    {\r\n        (bool os, ) = payable(owner).call{value: address(this).balance}(\"\");\r\n        require(os);\r\n  }\r\n}",
  "sourcePath": "C:\\Users\\runde\\Documents\\Mint_Leo\\contract\\src\\contracts\\Mint.sol",
  "compiler": {
    "name": "solc",
    "version": "0.8.12+commit.f00d7308.Emscripten.clang"
  },
  "schemaVersion": "3.4.5",
  "updatedAt": "2022-02-23T12:07:40.342Z",
  "devdoc": {
    "kind": "dev",
    "methods": {
      "approve(address,uint256)": {
        "details": "See {IERC721-approve}."
      },
      "balanceOf(address)": {
        "details": "See Returns the number of tokens in ``owner``'s account."
      },
      "getApproved(uint256)": {
        "details": "See {IERC721-getApproved}."
      },
      "isApprovedForAll(address,address)": {
        "details": "See {IERC721-isApprovedForAll}."
      },
      "name()": {
        "details": "Returns the token collection name."
      },
      "ownerOf(uint256)": {
        "details": "Returns the owner of the `tokenId` token. Requirements: - `tokenId` must exist."
      },
      "safeTransferFrom(address,address,uint256)": {
        "details": "See {IERC721-safeTransferFrom}."
      },
      "safeTransferFrom(address,address,uint256,bytes)": {
        "details": "See {IERC721-safeTransferFrom}."
      },
      "setApprovalForAll(address,bool)": {
        "details": "See {IERC721-setApprovalForAll}."
      },
      "supportsInterface(bytes4)": {
        "details": "See {IERC165-supportsInterface}."
      },
      "symbol()": {
        "details": "Returns the token collection symbol."
      },
      "tokenByIndex(uint256)": {
        "details": "See {IERC721Enumerable-tokenByIndex}."
      },
      "tokenOfOwnerByIndex(address,uint256)": {
        "details": "See {IERC721Enumerable-tokenOfOwnerByIndex}."
      },
      "tokenURI(uint256)": {
        "details": "Returns the Uniform Resource Identifier (URI) for `tokenId` token."
      },
      "totalSupply()": {
        "details": "See {IERC721Enumerable-totalSupply}."
      },
      "transferFrom(address,address,uint256)": {
        "details": "See {IERC721-transferFrom}."
      }
    },
    "version": 1
  },
  "userdoc": {
    "kind": "user",
    "methods": {},
    "version": 1
  }
}