{
  "contractName": "SupportsInterfaceWithLookupMock",
  "abi": [
    {
      "constant": true,
      "inputs": [],
      "name": "INTERFACE_ID_KIP13",
      "outputs": [
        {
          "name": "",
          "type": "bytes4"
        }
      ],
      "payable": false,
      "stateMutability": "view",
      "type": "function"
    },
    {
      "inputs": [],
      "payable": false,
      "stateMutability": "nonpayable",
      "type": "constructor"
    },
    {
      "constant": true,
      "inputs": [
        {
          "name": "interfaceId",
          "type": "bytes4"
        }
      ],
      "name": "supportsInterface",
      "outputs": [
        {
          "name": "",
          "type": "bool"
        }
      ],
      "payable": false,
      "stateMutability": "view",
      "type": "function"
    }
  ],
  "bytecode": "0x608060405234801561001057600080fd5b506100276301ffc9a760e01b61002c60201b60201c565b6100e4565b7fffffffff0000000000000000000000000000000000000000000000000000000080821614156100a7576040517f08c379a000000000000000000000000000000000000000000000000000000000815260040180806020018281038252602e8152602001806101dd602e913960400191505060405180910390fd5b7fffffffff00000000000000000000000000000000000000000000000000000000166000908152602081905260409020805460ff19166001179055565b60eb806100f26000396000f3fe6080604052348015600f57600080fd5b506004361060325760003560e01c806301ffc9a7146037578063d81037cd14606f575b600080fd5b605b60048036036020811015604b57600080fd5b50356001600160e01b0319166092565b604080519115158252519081900360200190f35b607560b1565b604080516001600160e01b03199092168252519081900360200190f35b6001600160e01b03191660009081526020819052604090205460ff1690565b600160e01b6301ffc9a7028156fea165627a7a723058206734ee36a89189b18b5f4902c07f3f3ce1f3b6a71b0770936d39b4d2b670d6ea00294b49503133496e7465726661636573537570706f727465643a20696e76616c696420696e74657266616365206964",
  "source": "pragma solidity ^0.5.0;\n\nimport \"../../introspection/IKIP13.sol\";\n\n/**\n * https://eips.ethereum.org/EIPS/eip-214#specification\n * From the specification:\n * > Any attempts to make state-changing operations inside an execution instance with STATIC set to true will instead\n * throw an exception.\n * > These operations include [...], LOG0, LOG1, LOG2, [...]\n *\n * therefore, because this contract is staticcall'd we need to not emit events (which is how solidity-coverage works)\n * solidity-coverage ignores the /mocks folder, so we duplicate its implementation here to avoid instrumenting it\n */\ncontract SupportsInterfaceWithLookupMock is IKIP13 {\n    /*\n     * bytes4(keccak256('supportsInterface(bytes4)')) == 0x01ffc9a7\n     */\n    bytes4 public constant INTERFACE_ID_KIP13 = 0x01ffc9a7;\n\n    /**\n     * @dev A mapping of interface id to whether or not it's supported.\n     */\n    mapping(bytes4 => bool) private _supportedInterfaces;\n\n    /**\n     * @dev A contract implementing SupportsInterfaceWithLookup\n     * implement KIP13 itself.\n     */\n    constructor () public {\n        _registerInterface(INTERFACE_ID_KIP13);\n    }\n\n    /**\n     * @dev Implement supportsInterface(bytes4) using a lookup table.\n     */\n    function supportsInterface(bytes4 interfaceId) external view returns (bool) {\n        return _supportedInterfaces[interfaceId];\n    }\n\n    /**\n     * @dev Private method for registering an interface.\n     */\n    function _registerInterface(bytes4 interfaceId) internal {\n        require(interfaceId != 0xffffffff, \"KIP13InterfacesSupported: invalid interface id\");\n        _supportedInterfaces[interfaceId] = true;\n    }\n}\n\ncontract KIP13InterfacesSupported is SupportsInterfaceWithLookupMock {\n    constructor (bytes4[] memory interfaceIds) public {\n        for (uint256 i = 0; i < interfaceIds.length; i++) {\n            _registerInterface(interfaceIds[i]);\n        }\n    }\n}\n",
  "sourcePath": "C:/Users/runde/Documents/Mint_Leo/src/contracts/klaytn-contracts/mocks/KIP13/KIP13InterfacesSupported.sol",
  "compiler": {
    "name": "solc",
    "version": "0.5.6+commit.b259423e.Emscripten.clang"
  },
  "schemaVersion": "3.3.3",
  "updatedAt": "2022-02-24T10:47:41.298Z",
  "devdoc": {
    "methods": {
      "constructor": {
        "details": "A contract implementing SupportsInterfaceWithLookup implement KIP13 itself."
      },
      "supportsInterface(bytes4)": {
        "details": "Implement supportsInterface(bytes4) using a lookup table."
      }
    }
  },
  "userdoc": {
    "methods": {},
    "notice": "https://eips.ethereum.org/EIPS/eip-214#specification From the specification: > Any attempts to make state-changing operations inside an execution instance with STATIC set to true will instead throw an exception. > These operations include [...], LOG0, LOG1, LOG2, [...] * therefore, because this contract is staticcall'd we need to not emit events (which is how solidity-coverage works) solidity-coverage ignores the /mocks folder, so we duplicate its implementation here to avoid instrumenting it"
  }
}